{
	"contracts/CredentialVerification.sol": {
		"CredentialVerification": {
			"abi": [
				{
					"anonymous": false,
					"inputs": [
						{
							"indexed": false,
							"internalType": "uint256",
							"name": "studentId",
							"type": "uint256"
						},
						{
							"indexed": false,
							"internalType": "address",
							"name": "employer",
							"type": "address"
						}
					],
					"name": "PermissionDenied",
					"type": "event"
				},
				{
					"anonymous": false,
					"inputs": [
						{
							"indexed": false,
							"internalType": "uint256",
							"name": "studentId",
							"type": "uint256"
						},
						{
							"indexed": false,
							"internalType": "address",
							"name": "employer",
							"type": "address"
						}
					],
					"name": "PermissionGranted",
					"type": "event"
				},
				{
					"anonymous": false,
					"inputs": [
						{
							"indexed": false,
							"internalType": "uint256",
							"name": "studentId",
							"type": "uint256"
						},
						{
							"indexed": false,
							"internalType": "address",
							"name": "employer",
							"type": "address"
						}
					],
					"name": "PermissionRequested",
					"type": "event"
				},
				{
					"anonymous": false,
					"inputs": [
						{
							"indexed": false,
							"internalType": "address",
							"name": "employer",
							"type": "address"
						},
						{
							"indexed": false,
							"internalType": "bool",
							"name": "isVerified",
							"type": "bool"
						},
						{
							"indexed": false,
							"internalType": "string",
							"name": "message",
							"type": "string"
						}
					],
					"name": "VerificationResult",
					"type": "event"
				},
				{
					"inputs": [
						{
							"internalType": "address",
							"name": "employer",
							"type": "address"
						}
					],
					"name": "addEmployer",
					"outputs": [],
					"stateMutability": "nonpayable",
					"type": "function"
				},
				{
					"inputs": [
						{
							"internalType": "uint256",
							"name": "",
							"type": "uint256"
						}
					],
					"name": "credentials",
					"outputs": [
						{
							"internalType": "uint256",
							"name": "studentId",
							"type": "uint256"
						},
						{
							"internalType": "string",
							"name": "studentName",
							"type": "string"
						},
						{
							"internalType": "string",
							"name": "institution",
							"type": "string"
						},
						{
							"internalType": "string",
							"name": "qualification",
							"type": "string"
						},
						{
							"internalType": "string",
							"name": "dateIssued",
							"type": "string"
						},
						{
							"internalType": "string",
							"name": "additionalData",
							"type": "string"
						},
						{
							"internalType": "bytes32",
							"name": "signature",
							"type": "bytes32"
						}
					],
					"stateMutability": "view",
					"type": "function"
				},
				{
					"inputs": [
						{
							"internalType": "uint256",
							"name": "studentId",
							"type": "uint256"
						},
						{
							"internalType": "address",
							"name": "employer",
							"type": "address"
						}
					],
					"name": "denyPermission",
					"outputs": [],
					"stateMutability": "nonpayable",
					"type": "function"
				},
				{
					"inputs": [
						{
							"internalType": "uint256",
							"name": "studentId",
							"type": "uint256"
						},
						{
							"internalType": "address",
							"name": "employer",
							"type": "address"
						}
					],
					"name": "grantPermission",
					"outputs": [],
					"stateMutability": "nonpayable",
					"type": "function"
				},
				{
					"inputs": [
						{
							"internalType": "address",
							"name": "",
							"type": "address"
						}
					],
					"name": "isEmployer",
					"outputs": [
						{
							"internalType": "bool",
							"name": "",
							"type": "bool"
						}
					],
					"stateMutability": "view",
					"type": "function"
				},
				{
					"inputs": [
						{
							"internalType": "uint256",
							"name": "",
							"type": "uint256"
						},
						{
							"internalType": "address",
							"name": "",
							"type": "address"
						}
					],
					"name": "permissions",
					"outputs": [
						{
							"internalType": "bool",
							"name": "",
							"type": "bool"
						}
					],
					"stateMutability": "view",
					"type": "function"
				},
				{
					"inputs": [
						{
							"internalType": "uint256",
							"name": "studentId",
							"type": "uint256"
						}
					],
					"name": "readCredential",
					"outputs": [
						{
							"internalType": "string",
							"name": "",
							"type": "string"
						}
					],
					"stateMutability": "view",
					"type": "function"
				},
				{
					"inputs": [
						{
							"internalType": "uint256",
							"name": "studentId",
							"type": "uint256"
						},
						{
							"internalType": "string",
							"name": "studentName",
							"type": "string"
						},
						{
							"internalType": "string",
							"name": "institution",
							"type": "string"
						},
						{
							"internalType": "string",
							"name": "qualification",
							"type": "string"
						},
						{
							"internalType": "string",
							"name": "dateIssued",
							"type": "string"
						},
						{
							"internalType": "string",
							"name": "additionalData",
							"type": "string"
						},
						{
							"internalType": "bytes32",
							"name": "signature",
							"type": "bytes32"
						}
					],
					"name": "registerCredential",
					"outputs": [],
					"stateMutability": "nonpayable",
					"type": "function"
				},
				{
					"inputs": [
						{
							"internalType": "uint256",
							"name": "studentId",
							"type": "uint256"
						}
					],
					"name": "requestPermission",
					"outputs": [],
					"stateMutability": "nonpayable",
					"type": "function"
				},
				{
					"inputs": [
						{
							"internalType": "uint256",
							"name": "studentId",
							"type": "uint256"
						},
						{
							"internalType": "bytes32",
							"name": "credentialHash",
							"type": "bytes32"
						}
					],
					"name": "verifyCredentials",
					"outputs": [
						{
							"internalType": "bool",
							"name": "",
							"type": "bool"
						}
					],
					"stateMutability": "view",
					"type": "function"
				}
			],
			"devdoc": {
				"kind": "dev",
				"methods": {},
				"version": 1
			},
			"evm": {
				"assembly": "    /* \"contracts/CredentialVerification.sol\":118:4466  contract CredentialVerification {... */\n  mstore(0x40, 0x80)\n  callvalue\n  dup1\n  iszero\n  tag_1\n  jumpi\n  0x00\n  dup1\n  revert\ntag_1:\n  pop\n  dataSize(sub_0)\n  dup1\n  dataOffset(sub_0)\n  0x00\n  codecopy\n  0x00\n  return\nstop\n\nsub_0: assembly {\n        /* \"contracts/CredentialVerification.sol\":118:4466  contract CredentialVerification {... */\n      mstore(0x40, 0x80)\n      callvalue\n      dup1\n      iszero\n      tag_1\n      jumpi\n      0x00\n      dup1\n      revert\n    tag_1:\n      pop\n      jumpi(tag_2, lt(calldatasize, 0x04))\n      shr(0xe0, calldataload(0x00))\n      dup1\n      0x44b89e3b\n      gt\n      tag_13\n      jumpi\n      dup1\n      0x44b89e3b\n      eq\n      tag_8\n      jumpi\n      dup1\n      0x68b54919\n      eq\n      tag_9\n      jumpi\n      dup1\n      0x92522e9d\n      eq\n      tag_10\n      jumpi\n      dup1\n      0x92642daa\n      eq\n      tag_11\n      jumpi\n      dup1\n      0xe0574e3f\n      eq\n      tag_12\n      jumpi\n      jump(tag_2)\n    tag_13:\n      dup1\n      0x2cdb559b\n      eq\n      tag_3\n      jumpi\n      dup1\n      0x300ecdb9\n      eq\n      tag_4\n      jumpi\n      dup1\n      0x3207e1c6\n      eq\n      tag_5\n      jumpi\n      dup1\n      0x3ff36d65\n      eq\n      tag_6\n      jumpi\n      dup1\n      0x417d6c99\n      eq\n      tag_7\n      jumpi\n    tag_2:\n      0x00\n      dup1\n      revert\n        /* \"contracts/CredentialVerification.sol\":2204:2385  function grantPermission(uint256 studentId, address employer) public {... */\n    tag_3:\n      tag_14\n      0x04\n      dup1\n      calldatasize\n      sub\n      dup2\n      add\n      swap1\n      tag_15\n      swap2\n      swap1\n      tag_16\n      jump\t// in\n    tag_15:\n      tag_17\n      jump\t// in\n    tag_14:\n      stop\n        /* \"contracts/CredentialVerification.sol\":991:1054  mapping(uint256 => mapping(address => bool)) public permissions */\n    tag_4:\n      tag_18\n      0x04\n      dup1\n      calldatasize\n      sub\n      dup2\n      add\n      swap1\n      tag_19\n      swap2\n      swap1\n      tag_16\n      jump\t// in\n    tag_19:\n      tag_20\n      jump\t// in\n    tag_18:\n      mload(0x40)\n      tag_21\n      swap2\n      swap1\n      tag_22\n      jump\t// in\n    tag_21:\n      mload(0x40)\n      dup1\n      swap2\n      sub\n      swap1\n      return\n        /* \"contracts/CredentialVerification.sol\":2487:2667  function denyPermission(uint256 studentId, address employer) public {... */\n    tag_5:\n      tag_23\n      0x04\n      dup1\n      calldatasize\n      sub\n      dup2\n      add\n      swap1\n      tag_24\n      swap2\n      swap1\n      tag_16\n      jump\t// in\n    tag_24:\n      tag_25\n      jump\t// in\n    tag_23:\n      stop\n        /* \"contracts/CredentialVerification.sol\":1977:2109  function requestPermission(uint256 studentId) public onlyEmployer {... */\n    tag_6:\n      tag_26\n      0x04\n      dup1\n      calldatasize\n      sub\n      dup2\n      add\n      swap1\n      tag_27\n      swap2\n      swap1\n      tag_28\n      jump\t// in\n    tag_27:\n      tag_29\n      jump\t// in\n    tag_26:\n      stop\n        /* \"contracts/CredentialVerification.sol\":746:788  mapping(address => bool) public isEmployer */\n    tag_7:\n      tag_30\n      0x04\n      dup1\n      calldatasize\n      sub\n      dup2\n      add\n      swap1\n      tag_31\n      swap2\n      swap1\n      tag_32\n      jump\t// in\n    tag_31:\n      tag_33\n      jump\t// in\n    tag_30:\n      mload(0x40)\n      tag_34\n      swap2\n      swap1\n      tag_22\n      jump\t// in\n    tag_34:\n      mload(0x40)\n      dup1\n      swap2\n      sub\n      swap1\n      return\n        /* \"contracts/CredentialVerification.sol\":3617:3974  function registerCredential(uint256 studentId, string memory studentName, string memory institution, string memory qualification, string memory dateIssued, string memory additionalData, bytes32 signature) public {... */\n    tag_8:\n      tag_35\n      0x04\n      dup1\n      calldatasize\n      sub\n      dup2\n      add\n      swap1\n      tag_36\n      swap2\n      swap1\n      tag_37\n      jump\t// in\n    tag_36:\n      tag_38\n      jump\t// in\n    tag_35:\n      stop\n        /* \"contracts/CredentialVerification.sol\":1790:1882  function addEmployer(address employer) public {... */\n    tag_9:\n      tag_39\n      0x04\n      dup1\n      calldatasize\n      sub\n      dup2\n      add\n      swap1\n      tag_40\n      swap2\n      swap1\n      tag_32\n      jump\t// in\n    tag_40:\n      tag_41\n      jump\t// in\n    tag_39:\n      stop\n        /* \"contracts/CredentialVerification.sol\":2771:3075  function readCredential(uint256 studentId) public view onlyEmployer returns (string memory) {... */\n    tag_10:\n      tag_42\n      0x04\n      dup1\n      calldatasize\n      sub\n      dup2\n      add\n      swap1\n      tag_43\n      swap2\n      swap1\n      tag_28\n      jump\t// in\n    tag_43:\n      tag_44\n      jump\t// in\n    tag_42:\n      mload(0x40)\n      tag_45\n      swap2\n      swap1\n      tag_46\n      jump\t// in\n    tag_45:\n      mload(0x40)\n      dup1\n      swap2\n      sub\n      swap1\n      return\n        /* \"contracts/CredentialVerification.sol\":3184:3540  function verifyCredentials(uint256 studentId, bytes32 credentialHash) public view onlyEmployer returns (bool) {... */\n    tag_11:\n      tag_47\n      0x04\n      dup1\n      calldatasize\n      sub\n      dup2\n      add\n      swap1\n      tag_48\n      swap2\n      swap1\n      tag_49\n      jump\t// in\n    tag_48:\n      tag_50\n      jump\t// in\n    tag_47:\n      mload(0x40)\n      tag_51\n      swap2\n      swap1\n      tag_22\n      jump\t// in\n    tag_51:\n      mload(0x40)\n      dup1\n      swap2\n      sub\n      swap1\n      return\n        /* \"contracts/CredentialVerification.sol\":617:666  mapping(uint256 => Credential) public credentials */\n    tag_12:\n      tag_52\n      0x04\n      dup1\n      calldatasize\n      sub\n      dup2\n      add\n      swap1\n      tag_53\n      swap2\n      swap1\n      tag_28\n      jump\t// in\n    tag_53:\n      tag_54\n      jump\t// in\n    tag_52:\n      mload(0x40)\n      tag_55\n      swap8\n      swap7\n      swap6\n      swap5\n      swap4\n      swap3\n      swap2\n      swap1\n      tag_56\n      jump\t// in\n    tag_55:\n      mload(0x40)\n      dup1\n      swap2\n      sub\n      swap1\n      return\n        /* \"contracts/CredentialVerification.sol\":2204:2385  function grantPermission(uint256 studentId, address employer) public {... */\n    tag_17:\n        /* \"contracts/CredentialVerification.sol\":2319:2323  true */\n      0x01\n        /* \"contracts/CredentialVerification.sol\":2284:2295  permissions */\n      0x02\n        /* \"contracts/CredentialVerification.sol\":2284:2306  permissions[studentId] */\n      0x00\n        /* \"contracts/CredentialVerification.sol\":2296:2305  studentId */\n      dup5\n        /* \"contracts/CredentialVerification.sol\":2284:2306  permissions[studentId] */\n      dup2\n      mstore\n      0x20\n      add\n      swap1\n      dup2\n      mstore\n      0x20\n      add\n      0x00\n      keccak256\n        /* \"contracts/CredentialVerification.sol\":2284:2316  permissions[studentId][employer] */\n      0x00\n        /* \"contracts/CredentialVerification.sol\":2307:2315  employer */\n      dup4\n        /* \"contracts/CredentialVerification.sol\":2284:2316  permissions[studentId][employer] */\n      0xffffffffffffffffffffffffffffffffffffffff\n      and\n      0xffffffffffffffffffffffffffffffffffffffff\n      and\n      dup2\n      mstore\n      0x20\n      add\n      swap1\n      dup2\n      mstore\n      0x20\n      add\n      0x00\n      keccak256\n      0x00\n        /* \"contracts/CredentialVerification.sol\":2284:2323  permissions[studentId][employer] = true */\n      0x0100\n      exp\n      dup2\n      sload\n      dup2\n      0xff\n      mul\n      not\n      and\n      swap1\n      dup4\n      iszero\n      iszero\n      mul\n      or\n      swap1\n      sstore\n      pop\n        /* \"contracts/CredentialVerification.sol\":2339:2377  PermissionGranted(studentId, employer) */\n      0x6e0403ef2b13328247bf9260ad8dd9c18fb5a18b95ea25de817ca991da05929b\n        /* \"contracts/CredentialVerification.sol\":2357:2366  studentId */\n      dup3\n        /* \"contracts/CredentialVerification.sol\":2368:2376  employer */\n      dup3\n        /* \"contracts/CredentialVerification.sol\":2339:2377  PermissionGranted(studentId, employer) */\n      mload(0x40)\n      tag_58\n      swap3\n      swap2\n      swap1\n      tag_59\n      jump\t// in\n    tag_58:\n      mload(0x40)\n      dup1\n      swap2\n      sub\n      swap1\n      log1\n        /* \"contracts/CredentialVerification.sol\":2204:2385  function grantPermission(uint256 studentId, address employer) public {... */\n      pop\n      pop\n      jump\t// out\n        /* \"contracts/CredentialVerification.sol\":991:1054  mapping(uint256 => mapping(address => bool)) public permissions */\n    tag_20:\n      mstore(0x20, 0x02)\n      dup2\n      0x00\n      mstore\n      mstore(0x20, keccak256(0x00, 0x40))\n      dup1\n      0x00\n      mstore\n      keccak256(0x00, 0x40)\n      0x00\n      swap2\n      pop\n      swap2\n      pop\n      swap1\n      sload\n      swap1\n      0x0100\n      exp\n      swap1\n      div\n      0xff\n      and\n      dup2\n      jump\t// out\n        /* \"contracts/CredentialVerification.sol\":2487:2667  function denyPermission(uint256 studentId, address employer) public {... */\n    tag_25:\n        /* \"contracts/CredentialVerification.sol\":2601:2606  false */\n      0x00\n        /* \"contracts/CredentialVerification.sol\":2566:2577  permissions */\n      0x02\n        /* \"contracts/CredentialVerification.sol\":2566:2588  permissions[studentId] */\n      0x00\n        /* \"contracts/CredentialVerification.sol\":2578:2587  studentId */\n      dup5\n        /* \"contracts/CredentialVerification.sol\":2566:2588  permissions[studentId] */\n      dup2\n      mstore\n      0x20\n      add\n      swap1\n      dup2\n      mstore\n      0x20\n      add\n      0x00\n      keccak256\n        /* \"contracts/CredentialVerification.sol\":2566:2598  permissions[studentId][employer] */\n      0x00\n        /* \"contracts/CredentialVerification.sol\":2589:2597  employer */\n      dup4\n        /* \"contracts/CredentialVerification.sol\":2566:2598  permissions[studentId][employer] */\n      0xffffffffffffffffffffffffffffffffffffffff\n      and\n      0xffffffffffffffffffffffffffffffffffffffff\n      and\n      dup2\n      mstore\n      0x20\n      add\n      swap1\n      dup2\n      mstore\n      0x20\n      add\n      0x00\n      keccak256\n      0x00\n        /* \"contracts/CredentialVerification.sol\":2566:2606  permissions[studentId][employer] = false */\n      0x0100\n      exp\n      dup2\n      sload\n      dup2\n      0xff\n      mul\n      not\n      and\n      swap1\n      dup4\n      iszero\n      iszero\n      mul\n      or\n      swap1\n      sstore\n      pop\n        /* \"contracts/CredentialVerification.sol\":2622:2659  PermissionDenied(studentId, employer) */\n      0x03dbb2fd6c5a10fc7f258798ab1c05cdbf809152d53996b123435a736f234694\n        /* \"contracts/CredentialVerification.sol\":2639:2648  studentId */\n      dup3\n        /* \"contracts/CredentialVerification.sol\":2650:2658  employer */\n      dup3\n        /* \"contracts/CredentialVerification.sol\":2622:2659  PermissionDenied(studentId, employer) */\n      mload(0x40)\n      tag_61\n      swap3\n      swap2\n      swap1\n      tag_59\n      jump\t// in\n    tag_61:\n      mload(0x40)\n      dup1\n      swap2\n      sub\n      swap1\n      log1\n        /* \"contracts/CredentialVerification.sol\":2487:2667  function denyPermission(uint256 studentId, address employer) public {... */\n      pop\n      pop\n      jump\t// out\n        /* \"contracts/CredentialVerification.sol\":1977:2109  function requestPermission(uint256 studentId) public onlyEmployer {... */\n    tag_29:\n        /* \"contracts/CredentialVerification.sol\":1549:1559  isEmployer */\n      0x01\n        /* \"contracts/CredentialVerification.sol\":1549:1571  isEmployer[msg.sender] */\n      0x00\n        /* \"contracts/CredentialVerification.sol\":1560:1570  msg.sender */\n      caller\n        /* \"contracts/CredentialVerification.sol\":1549:1571  isEmployer[msg.sender] */\n      0xffffffffffffffffffffffffffffffffffffffff\n      and\n      0xffffffffffffffffffffffffffffffffffffffff\n      and\n      dup2\n      mstore\n      0x20\n      add\n      swap1\n      dup2\n      mstore\n      0x20\n      add\n      0x00\n      keccak256\n      0x00\n      swap1\n      sload\n      swap1\n      0x0100\n      exp\n      swap1\n      div\n      0xff\n      and\n        /* \"contracts/CredentialVerification.sol\":1541:1612  require(isEmployer[msg.sender], \"Caller is not an authorised employer\") */\n      tag_63\n      jumpi\n      mload(0x40)\n      0x08c379a000000000000000000000000000000000000000000000000000000000\n      dup2\n      mstore\n      0x04\n      add\n      tag_64\n      swap1\n      tag_65\n      jump\t// in\n    tag_64:\n      mload(0x40)\n      dup1\n      swap2\n      sub\n      swap1\n      revert\n    tag_63:\n        /* \"contracts/CredentialVerification.sol\":2059:2101  PermissionRequested(studentId, msg.sender) */\n      0x539186f88413c222585ff95ba62e32a55eb0153d0265293bfe5b2c324935a0a4\n        /* \"contracts/CredentialVerification.sol\":2079:2088  studentId */\n      dup2\n        /* \"contracts/CredentialVerification.sol\":2090:2100  msg.sender */\n      caller\n        /* \"contracts/CredentialVerification.sol\":2059:2101  PermissionRequested(studentId, msg.sender) */\n      mload(0x40)\n      tag_67\n      swap3\n      swap2\n      swap1\n      tag_59\n      jump\t// in\n    tag_67:\n      mload(0x40)\n      dup1\n      swap2\n      sub\n      swap1\n      log1\n        /* \"contracts/CredentialVerification.sol\":1977:2109  function requestPermission(uint256 studentId) public onlyEmployer {... */\n      pop\n      jump\t// out\n        /* \"contracts/CredentialVerification.sol\":746:788  mapping(address => bool) public isEmployer */\n    tag_33:\n      mstore(0x20, 0x01)\n      dup1\n      0x00\n      mstore\n      keccak256(0x00, 0x40)\n      0x00\n      swap2\n      pop\n      sload\n      swap1\n      0x0100\n      exp\n      swap1\n      div\n      0xff\n      and\n      dup2\n      jump\t// out\n        /* \"contracts/CredentialVerification.sol\":3617:3974  function registerCredential(uint256 studentId, string memory studentName, string memory institution, string memory qualification, string memory dateIssued, string memory additionalData, bytes32 signature) public {... */\n    tag_38:\n        /* \"contracts/CredentialVerification.sol\":3865:3966  Credential(studentId, studentName, institution, qualification, dateIssued, additionalData, signature) */\n      mload(0x40)\n      dup1\n      0xe0\n      add\n      0x40\n      mstore\n      dup1\n        /* \"contracts/CredentialVerification.sol\":3876:3885  studentId */\n      dup9\n        /* \"contracts/CredentialVerification.sol\":3865:3966  Credential(studentId, studentName, institution, qualification, dateIssued, additionalData, signature) */\n      dup2\n      mstore\n      0x20\n      add\n        /* \"contracts/CredentialVerification.sol\":3887:3898  studentName */\n      dup8\n        /* \"contracts/CredentialVerification.sol\":3865:3966  Credential(studentId, studentName, institution, qualification, dateIssued, additionalData, signature) */\n      dup2\n      mstore\n      0x20\n      add\n        /* \"contracts/CredentialVerification.sol\":3900:3911  institution */\n      dup7\n        /* \"contracts/CredentialVerification.sol\":3865:3966  Credential(studentId, studentName, institution, qualification, dateIssued, additionalData, signature) */\n      dup2\n      mstore\n      0x20\n      add\n        /* \"contracts/CredentialVerification.sol\":3913:3926  qualification */\n      dup6\n        /* \"contracts/CredentialVerification.sol\":3865:3966  Credential(studentId, studentName, institution, qualification, dateIssued, additionalData, signature) */\n      dup2\n      mstore\n      0x20\n      add\n        /* \"contracts/CredentialVerification.sol\":3928:3938  dateIssued */\n      dup5\n        /* \"contracts/CredentialVerification.sol\":3865:3966  Credential(studentId, studentName, institution, qualification, dateIssued, additionalData, signature) */\n      dup2\n      mstore\n      0x20\n      add\n        /* \"contracts/CredentialVerification.sol\":3940:3954  additionalData */\n      dup4\n        /* \"contracts/CredentialVerification.sol\":3865:3966  Credential(studentId, studentName, institution, qualification, dateIssued, additionalData, signature) */\n      dup2\n      mstore\n      0x20\n      add\n        /* \"contracts/CredentialVerification.sol\":3956:3965  signature */\n      dup3\n        /* \"contracts/CredentialVerification.sol\":3865:3966  Credential(studentId, studentName, institution, qualification, dateIssued, additionalData, signature) */\n      dup2\n      mstore\n      pop\n        /* \"contracts/CredentialVerification.sol\":3840:3851  credentials */\n      0x00\n        /* \"contracts/CredentialVerification.sol\":3840:3862  credentials[studentId] */\n      dup1\n        /* \"contracts/CredentialVerification.sol\":3852:3861  studentId */\n      dup10\n        /* \"contracts/CredentialVerification.sol\":3840:3862  credentials[studentId] */\n      dup2\n      mstore\n      0x20\n      add\n      swap1\n      dup2\n      mstore\n      0x20\n      add\n      0x00\n      keccak256\n        /* \"contracts/CredentialVerification.sol\":3840:3966  credentials[studentId] = Credential(studentId, studentName, institution, qualification, dateIssued, additionalData, signature) */\n      0x00\n      dup3\n      add\n      mload\n      dup2\n      0x00\n      add\n      sstore\n      0x20\n      dup3\n      add\n      mload\n      dup2\n      0x01\n      add\n      swap1\n      dup2\n      tag_69\n      swap2\n      swap1\n      tag_70\n      jump\t// in\n    tag_69:\n      pop\n      0x40\n      dup3\n      add\n      mload\n      dup2\n      0x02\n      add\n      swap1\n      dup2\n      tag_71\n      swap2\n      swap1\n      tag_70\n      jump\t// in\n    tag_71:\n      pop\n      0x60\n      dup3\n      add\n      mload\n      dup2\n      0x03\n      add\n      swap1\n      dup2\n      tag_72\n      swap2\n      swap1\n      tag_70\n      jump\t// in\n    tag_72:\n      pop\n      0x80\n      dup3\n      add\n      mload\n      dup2\n      0x04\n      add\n      swap1\n      dup2\n      tag_73\n      swap2\n      swap1\n      tag_70\n      jump\t// in\n    tag_73:\n      pop\n      0xa0\n      dup3\n      add\n      mload\n      dup2\n      0x05\n      add\n      swap1\n      dup2\n      tag_74\n      swap2\n      swap1\n      tag_70\n      jump\t// in\n    tag_74:\n      pop\n      0xc0\n      dup3\n      add\n      mload\n      dup2\n      0x06\n      add\n      sstore\n      swap1\n      pop\n      pop\n        /* \"contracts/CredentialVerification.sol\":3617:3974  function registerCredential(uint256 studentId, string memory studentName, string memory institution, string memory qualification, string memory dateIssued, string memory additionalData, bytes32 signature) public {... */\n      pop\n      pop\n      pop\n      pop\n      pop\n      pop\n      pop\n      jump\t// out\n        /* \"contracts/CredentialVerification.sol\":1790:1882  function addEmployer(address employer) public {... */\n    tag_41:\n        /* \"contracts/CredentialVerification.sol\":1870:1874  true */\n      0x01\n        /* \"contracts/CredentialVerification.sol\":1847:1857  isEmployer */\n      dup1\n        /* \"contracts/CredentialVerification.sol\":1847:1867  isEmployer[employer] */\n      0x00\n        /* \"contracts/CredentialVerification.sol\":1858:1866  employer */\n      dup4\n        /* \"contracts/CredentialVerification.sol\":1847:1867  isEmployer[employer] */\n      0xffffffffffffffffffffffffffffffffffffffff\n      and\n      0xffffffffffffffffffffffffffffffffffffffff\n      and\n      dup2\n      mstore\n      0x20\n      add\n      swap1\n      dup2\n      mstore\n      0x20\n      add\n      0x00\n      keccak256\n      0x00\n        /* \"contracts/CredentialVerification.sol\":1847:1874  isEmployer[employer] = true */\n      0x0100\n      exp\n      dup2\n      sload\n      dup2\n      0xff\n      mul\n      not\n      and\n      swap1\n      dup4\n      iszero\n      iszero\n      mul\n      or\n      swap1\n      sstore\n      pop\n        /* \"contracts/CredentialVerification.sol\":1790:1882  function addEmployer(address employer) public {... */\n      pop\n      jump\t// out\n        /* \"contracts/CredentialVerification.sol\":2771:3075  function readCredential(uint256 studentId) public view onlyEmployer returns (string memory) {... */\n    tag_44:\n        /* \"contracts/CredentialVerification.sol\":2848:2861  string memory */\n      0x60\n        /* \"contracts/CredentialVerification.sol\":1549:1559  isEmployer */\n      0x01\n        /* \"contracts/CredentialVerification.sol\":1549:1571  isEmployer[msg.sender] */\n      0x00\n        /* \"contracts/CredentialVerification.sol\":1560:1570  msg.sender */\n      caller\n        /* \"contracts/CredentialVerification.sol\":1549:1571  isEmployer[msg.sender] */\n      0xffffffffffffffffffffffffffffffffffffffff\n      and\n      0xffffffffffffffffffffffffffffffffffffffff\n      and\n      dup2\n      mstore\n      0x20\n      add\n      swap1\n      dup2\n      mstore\n      0x20\n      add\n      0x00\n      keccak256\n      0x00\n      swap1\n      sload\n      swap1\n      0x0100\n      exp\n      swap1\n      div\n      0xff\n      and\n        /* \"contracts/CredentialVerification.sol\":1541:1612  require(isEmployer[msg.sender], \"Caller is not an authorised employer\") */\n      tag_77\n      jumpi\n      mload(0x40)\n      0x08c379a000000000000000000000000000000000000000000000000000000000\n      dup2\n      mstore\n      0x04\n      add\n      tag_78\n      swap1\n      tag_65\n      jump\t// in\n    tag_78:\n      mload(0x40)\n      dup1\n      swap2\n      sub\n      swap1\n      revert\n    tag_77:\n        /* \"contracts/CredentialVerification.sol\":2882:2893  permissions */\n      0x02\n        /* \"contracts/CredentialVerification.sol\":2882:2904  permissions[studentId] */\n      0x00\n        /* \"contracts/CredentialVerification.sol\":2894:2903  studentId */\n      dup4\n        /* \"contracts/CredentialVerification.sol\":2882:2904  permissions[studentId] */\n      dup2\n      mstore\n      0x20\n      add\n      swap1\n      dup2\n      mstore\n      0x20\n      add\n      0x00\n      keccak256\n        /* \"contracts/CredentialVerification.sol\":2882:2916  permissions[studentId][msg.sender] */\n      0x00\n        /* \"contracts/CredentialVerification.sol\":2905:2915  msg.sender */\n      caller\n        /* \"contracts/CredentialVerification.sol\":2882:2916  permissions[studentId][msg.sender] */\n      0xffffffffffffffffffffffffffffffffffffffff\n      and\n      0xffffffffffffffffffffffffffffffffffffffff\n      and\n      dup2\n      mstore\n      0x20\n      add\n      swap1\n      dup2\n      mstore\n      0x20\n      add\n      0x00\n      keccak256\n      0x00\n      swap1\n      sload\n      swap1\n      0x0100\n      exp\n      swap1\n      div\n      0xff\n      and\n        /* \"contracts/CredentialVerification.sol\":2874:2958  require(permissions[studentId][msg.sender], \"Permission not granted by the student\") */\n      tag_80\n      jumpi\n      mload(0x40)\n      0x08c379a000000000000000000000000000000000000000000000000000000000\n      dup2\n      mstore\n      0x04\n      add\n      tag_81\n      swap1\n      tag_82\n      jump\t// in\n    tag_81:\n      mload(0x40)\n      dup1\n      swap2\n      sub\n      swap1\n      revert\n    tag_80:\n        /* \"contracts/CredentialVerification.sol\":2969:2991  Credential memory cred */\n      0x00\n        /* \"contracts/CredentialVerification.sol\":2994:3005  credentials */\n      dup1\n        /* \"contracts/CredentialVerification.sol\":2994:3016  credentials[studentId] */\n      0x00\n        /* \"contracts/CredentialVerification.sol\":3006:3015  studentId */\n      dup5\n        /* \"contracts/CredentialVerification.sol\":2994:3016  credentials[studentId] */\n      dup2\n      mstore\n      0x20\n      add\n      swap1\n      dup2\n      mstore\n      0x20\n      add\n      0x00\n      keccak256\n        /* \"contracts/CredentialVerification.sol\":2969:3016  Credential memory cred = credentials[studentId] */\n      mload(0x40)\n      dup1\n      0xe0\n      add\n      0x40\n      mstore\n      swap1\n      dup2\n      0x00\n      dup3\n      add\n      sload\n      dup2\n      mstore\n      0x20\n      add\n      0x01\n      dup3\n      add\n      dup1\n      sload\n      tag_83\n      swap1\n      tag_84\n      jump\t// in\n    tag_83:\n      dup1\n      0x1f\n      add\n      0x20\n      dup1\n      swap2\n      div\n      mul\n      0x20\n      add\n      mload(0x40)\n      swap1\n      dup2\n      add\n      0x40\n      mstore\n      dup1\n      swap3\n      swap2\n      swap1\n      dup2\n      dup2\n      mstore\n      0x20\n      add\n      dup3\n      dup1\n      sload\n      tag_85\n      swap1\n      tag_84\n      jump\t// in\n    tag_85:\n      dup1\n      iszero\n      tag_86\n      jumpi\n      dup1\n      0x1f\n      lt\n      tag_87\n      jumpi\n      0x0100\n      dup1\n      dup4\n      sload\n      div\n      mul\n      dup4\n      mstore\n      swap2\n      0x20\n      add\n      swap2\n      jump(tag_86)\n    tag_87:\n      dup3\n      add\n      swap2\n      swap1\n      0x00\n      mstore\n      keccak256(0x00, 0x20)\n      swap1\n    tag_88:\n      dup2\n      sload\n      dup2\n      mstore\n      swap1\n      0x01\n      add\n      swap1\n      0x20\n      add\n      dup1\n      dup4\n      gt\n      tag_88\n      jumpi\n      dup3\n      swap1\n      sub\n      0x1f\n      and\n      dup3\n      add\n      swap2\n    tag_86:\n      pop\n      pop\n      pop\n      pop\n      pop\n      dup2\n      mstore\n      0x20\n      add\n      0x02\n      dup3\n      add\n      dup1\n      sload\n      tag_89\n      swap1\n      tag_84\n      jump\t// in\n    tag_89:\n      dup1\n      0x1f\n      add\n      0x20\n      dup1\n      swap2\n      div\n      mul\n      0x20\n      add\n      mload(0x40)\n      swap1\n      dup2\n      add\n      0x40\n      mstore\n      dup1\n      swap3\n      swap2\n      swap1\n      dup2\n      dup2\n      mstore\n      0x20\n      add\n      dup3\n      dup1\n      sload\n      tag_90\n      swap1\n      tag_84\n      jump\t// in\n    tag_90:\n      dup1\n      iszero\n      tag_91\n      jumpi\n      dup1\n      0x1f\n      lt\n      tag_92\n      jumpi\n      0x0100\n      dup1\n      dup4\n      sload\n      div\n      mul\n      dup4\n      mstore\n      swap2\n      0x20\n      add\n      swap2\n      jump(tag_91)\n    tag_92:\n      dup3\n      add\n      swap2\n      swap1\n      0x00\n      mstore\n      keccak256(0x00, 0x20)\n      swap1\n    tag_93:\n      dup2\n      sload\n      dup2\n      mstore\n      swap1\n      0x01\n      add\n      swap1\n      0x20\n      add\n      dup1\n      dup4\n      gt\n      tag_93\n      jumpi\n      dup3\n      swap1\n      sub\n      0x1f\n      and\n      dup3\n      add\n      swap2\n    tag_91:\n      pop\n      pop\n      pop\n      pop\n      pop\n      dup2\n      mstore\n      0x20\n      add\n      0x03\n      dup3\n      add\n      dup1\n      sload\n      tag_94\n      swap1\n      tag_84\n      jump\t// in\n    tag_94:\n      dup1\n      0x1f\n      add\n      0x20\n      dup1\n      swap2\n      div\n      mul\n      0x20\n      add\n      mload(0x40)\n      swap1\n      dup2\n      add\n      0x40\n      mstore\n      dup1\n      swap3\n      swap2\n      swap1\n      dup2\n      dup2\n      mstore\n      0x20\n      add\n      dup3\n      dup1\n      sload\n      tag_95\n      swap1\n      tag_84\n      jump\t// in\n    tag_95:\n      dup1\n      iszero\n      tag_96\n      jumpi\n      dup1\n      0x1f\n      lt\n      tag_97\n      jumpi\n      0x0100\n      dup1\n      dup4\n      sload\n      div\n      mul\n      dup4\n      mstore\n      swap2\n      0x20\n      add\n      swap2\n      jump(tag_96)\n    tag_97:\n      dup3\n      add\n      swap2\n      swap1\n      0x00\n      mstore\n      keccak256(0x00, 0x20)\n      swap1\n    tag_98:\n      dup2\n      sload\n      dup2\n      mstore\n      swap1\n      0x01\n      add\n      swap1\n      0x20\n      add\n      dup1\n      dup4\n      gt\n      tag_98\n      jumpi\n      dup3\n      swap1\n      sub\n      0x1f\n      and\n      dup3\n      add\n      swap2\n    tag_96:\n      pop\n      pop\n      pop\n      pop\n      pop\n      dup2\n      mstore\n      0x20\n      add\n      0x04\n      dup3\n      add\n      dup1\n      sload\n      tag_99\n      swap1\n      tag_84\n      jump\t// in\n    tag_99:\n      dup1\n      0x1f\n      add\n      0x20\n      dup1\n      swap2\n      div\n      mul\n      0x20\n      add\n      mload(0x40)\n      swap1\n      dup2\n      add\n      0x40\n      mstore\n      dup1\n      swap3\n      swap2\n      swap1\n      dup2\n      dup2\n      mstore\n      0x20\n      add\n      dup3\n      dup1\n      sload\n      tag_100\n      swap1\n      tag_84\n      jump\t// in\n    tag_100:\n      dup1\n      iszero\n      tag_101\n      jumpi\n      dup1\n      0x1f\n      lt\n      tag_102\n      jumpi\n      0x0100\n      dup1\n      dup4\n      sload\n      div\n      mul\n      dup4\n      mstore\n      swap2\n      0x20\n      add\n      swap2\n      jump(tag_101)\n    tag_102:\n      dup3\n      add\n      swap2\n      swap1\n      0x00\n      mstore\n      keccak256(0x00, 0x20)\n      swap1\n    tag_103:\n      dup2\n      sload\n      dup2\n      mstore\n      swap1\n      0x01\n      add\n      swap1\n      0x20\n      add\n      dup1\n      dup4\n      gt\n      tag_103\n      jumpi\n      dup3\n      swap1\n      sub\n      0x1f\n      and\n      dup3\n      add\n      swap2\n    tag_101:\n      pop\n      pop\n      pop\n      pop\n      pop\n      dup2\n      mstore\n      0x20\n      add\n      0x05\n      dup3\n      add\n      dup1\n      sload\n      tag_104\n      swap1\n      tag_84\n      jump\t// in\n    tag_104:\n      dup1\n      0x1f\n      add\n      0x20\n      dup1\n      swap2\n      div\n      mul\n      0x20\n      add\n      mload(0x40)\n      swap1\n      dup2\n      add\n      0x40\n      mstore\n      dup1\n      swap3\n      swap2\n      swap1\n      dup2\n      dup2\n      mstore\n      0x20\n      add\n      dup3\n      dup1\n      sload\n      tag_105\n      swap1\n      tag_84\n      jump\t// in\n    tag_105:\n      dup1\n      iszero\n      tag_106\n      jumpi\n      dup1\n      0x1f\n      lt\n      tag_107\n      jumpi\n      0x0100\n      dup1\n      dup4\n      sload\n      div\n      mul\n      dup4\n      mstore\n      swap2\n      0x20\n      add\n      swap2\n      jump(tag_106)\n    tag_107:\n      dup3\n      add\n      swap2\n      swap1\n      0x00\n      mstore\n      keccak256(0x00, 0x20)\n      swap1\n    tag_108:\n      dup2\n      sload\n      dup2\n      mstore\n      swap1\n      0x01\n      add\n      swap1\n      0x20\n      add\n      dup1\n      dup4\n      gt\n      tag_108\n      jumpi\n      dup3\n      swap1\n      sub\n      0x1f\n      and\n      dup3\n      add\n      swap2\n    tag_106:\n      pop\n      pop\n      pop\n      pop\n      pop\n      dup2\n      mstore\n      0x20\n      add\n      0x06\n      dup3\n      add\n      sload\n      dup2\n      mstore\n      pop\n      pop\n      swap1\n      pop\n        /* \"contracts/CredentialVerification.sol\":3034:3067  generateVerificationMessage(cred) */\n      tag_109\n        /* \"contracts/CredentialVerification.sol\":3062:3066  cred */\n      dup2\n        /* \"contracts/CredentialVerification.sol\":3034:3061  generateVerificationMessage */\n      tag_110\n        /* \"contracts/CredentialVerification.sol\":3034:3067  generateVerificationMessage(cred) */\n      jump\t// in\n    tag_109:\n        /* \"contracts/CredentialVerification.sol\":3027:3067  return generateVerificationMessage(cred) */\n      swap2\n      pop\n      pop\n        /* \"contracts/CredentialVerification.sol\":2771:3075  function readCredential(uint256 studentId) public view onlyEmployer returns (string memory) {... */\n      swap2\n      swap1\n      pop\n      jump\t// out\n        /* \"contracts/CredentialVerification.sol\":3184:3540  function verifyCredentials(uint256 studentId, bytes32 credentialHash) public view onlyEmployer returns (bool) {... */\n    tag_50:\n        /* \"contracts/CredentialVerification.sol\":3288:3292  bool */\n      0x00\n        /* \"contracts/CredentialVerification.sol\":1549:1559  isEmployer */\n      0x01\n        /* \"contracts/CredentialVerification.sol\":1549:1571  isEmployer[msg.sender] */\n      0x00\n        /* \"contracts/CredentialVerification.sol\":1560:1570  msg.sender */\n      caller\n        /* \"contracts/CredentialVerification.sol\":1549:1571  isEmployer[msg.sender] */\n      0xffffffffffffffffffffffffffffffffffffffff\n      and\n      0xffffffffffffffffffffffffffffffffffffffff\n      and\n      dup2\n      mstore\n      0x20\n      add\n      swap1\n      dup2\n      mstore\n      0x20\n      add\n      0x00\n      keccak256\n      0x00\n      swap1\n      sload\n      swap1\n      0x0100\n      exp\n      swap1\n      div\n      0xff\n      and\n        /* \"contracts/CredentialVerification.sol\":1541:1612  require(isEmployer[msg.sender], \"Caller is not an authorised employer\") */\n      tag_112\n      jumpi\n      mload(0x40)\n      0x08c379a000000000000000000000000000000000000000000000000000000000\n      dup2\n      mstore\n      0x04\n      add\n      tag_113\n      swap1\n      tag_65\n      jump\t// in\n    tag_113:\n      mload(0x40)\n      dup1\n      swap2\n      sub\n      swap1\n      revert\n    tag_112:\n        /* \"contracts/CredentialVerification.sol\":3313:3324  permissions */\n      0x02\n        /* \"contracts/CredentialVerification.sol\":3313:3335  permissions[studentId] */\n      0x00\n        /* \"contracts/CredentialVerification.sol\":3325:3334  studentId */\n      dup5\n        /* \"contracts/CredentialVerification.sol\":3313:3335  permissions[studentId] */\n      dup2\n      mstore\n      0x20\n      add\n      swap1\n      dup2\n      mstore\n      0x20\n      add\n      0x00\n      keccak256\n        /* \"contracts/CredentialVerification.sol\":3313:3347  permissions[studentId][msg.sender] */\n      0x00\n        /* \"contracts/CredentialVerification.sol\":3336:3346  msg.sender */\n      caller\n        /* \"contracts/CredentialVerification.sol\":3313:3347  permissions[studentId][msg.sender] */\n      0xffffffffffffffffffffffffffffffffffffffff\n      and\n      0xffffffffffffffffffffffffffffffffffffffff\n      and\n      dup2\n      mstore\n      0x20\n      add\n      swap1\n      dup2\n      mstore\n      0x20\n      add\n      0x00\n      keccak256\n      0x00\n      swap1\n      sload\n      swap1\n      0x0100\n      exp\n      swap1\n      div\n      0xff\n      and\n        /* \"contracts/CredentialVerification.sol\":3305:3422  require(permissions[studentId][msg.sender], \"Employer does not have permission to verify this student's credentials\") */\n      tag_115\n      jumpi\n      mload(0x40)\n      0x08c379a000000000000000000000000000000000000000000000000000000000\n      dup2\n      mstore\n      0x04\n      add\n      tag_116\n      swap1\n      tag_117\n      jump\t// in\n    tag_116:\n      mload(0x40)\n      dup1\n      swap2\n      sub\n      swap1\n      revert\n    tag_115:\n        /* \"contracts/CredentialVerification.sol\":3433:3455  Credential memory cred */\n      0x00\n        /* \"contracts/CredentialVerification.sol\":3458:3469  credentials */\n      dup1\n        /* \"contracts/CredentialVerification.sol\":3458:3480  credentials[studentId] */\n      0x00\n        /* \"contracts/CredentialVerification.sol\":3470:3479  studentId */\n      dup6\n        /* \"contracts/CredentialVerification.sol\":3458:3480  credentials[studentId] */\n      dup2\n      mstore\n      0x20\n      add\n      swap1\n      dup2\n      mstore\n      0x20\n      add\n      0x00\n      keccak256\n        /* \"contracts/CredentialVerification.sol\":3433:3480  Credential memory cred = credentials[studentId] */\n      mload(0x40)\n      dup1\n      0xe0\n      add\n      0x40\n      mstore\n      swap1\n      dup2\n      0x00\n      dup3\n      add\n      sload\n      dup2\n      mstore\n      0x20\n      add\n      0x01\n      dup3\n      add\n      dup1\n      sload\n      tag_118\n      swap1\n      tag_84\n      jump\t// in\n    tag_118:\n      dup1\n      0x1f\n      add\n      0x20\n      dup1\n      swap2\n      div\n      mul\n      0x20\n      add\n      mload(0x40)\n      swap1\n      dup2\n      add\n      0x40\n      mstore\n      dup1\n      swap3\n      swap2\n      swap1\n      dup2\n      dup2\n      mstore\n      0x20\n      add\n      dup3\n      dup1\n      sload\n      tag_119\n      swap1\n      tag_84\n      jump\t// in\n    tag_119:\n      dup1\n      iszero\n      tag_120\n      jumpi\n      dup1\n      0x1f\n      lt\n      tag_121\n      jumpi\n      0x0100\n      dup1\n      dup4\n      sload\n      div\n      mul\n      dup4\n      mstore\n      swap2\n      0x20\n      add\n      swap2\n      jump(tag_120)\n    tag_121:\n      dup3\n      add\n      swap2\n      swap1\n      0x00\n      mstore\n      keccak256(0x00, 0x20)\n      swap1\n    tag_122:\n      dup2\n      sload\n      dup2\n      mstore\n      swap1\n      0x01\n      add\n      swap1\n      0x20\n      add\n      dup1\n      dup4\n      gt\n      tag_122\n      jumpi\n      dup3\n      swap1\n      sub\n      0x1f\n      and\n      dup3\n      add\n      swap2\n    tag_120:\n      pop\n      pop\n      pop\n      pop\n      pop\n      dup2\n      mstore\n      0x20\n      add\n      0x02\n      dup3\n      add\n      dup1\n      sload\n      tag_123\n      swap1\n      tag_84\n      jump\t// in\n    tag_123:\n      dup1\n      0x1f\n      add\n      0x20\n      dup1\n      swap2\n      div\n      mul\n      0x20\n      add\n      mload(0x40)\n      swap1\n      dup2\n      add\n      0x40\n      mstore\n      dup1\n      swap3\n      swap2\n      swap1\n      dup2\n      dup2\n      mstore\n      0x20\n      add\n      dup3\n      dup1\n      sload\n      tag_124\n      swap1\n      tag_84\n      jump\t// in\n    tag_124:\n      dup1\n      iszero\n      tag_125\n      jumpi\n      dup1\n      0x1f\n      lt\n      tag_126\n      jumpi\n      0x0100\n      dup1\n      dup4\n      sload\n      div\n      mul\n      dup4\n      mstore\n      swap2\n      0x20\n      add\n      swap2\n      jump(tag_125)\n    tag_126:\n      dup3\n      add\n      swap2\n      swap1\n      0x00\n      mstore\n      keccak256(0x00, 0x20)\n      swap1\n    tag_127:\n      dup2\n      sload\n      dup2\n      mstore\n      swap1\n      0x01\n      add\n      swap1\n      0x20\n      add\n      dup1\n      dup4\n      gt\n      tag_127\n      jumpi\n      dup3\n      swap1\n      sub\n      0x1f\n      and\n      dup3\n      add\n      swap2\n    tag_125:\n      pop\n      pop\n      pop\n      pop\n      pop\n      dup2\n      mstore\n      0x20\n      add\n      0x03\n      dup3\n      add\n      dup1\n      sload\n      tag_128\n      swap1\n      tag_84\n      jump\t// in\n    tag_128:\n      dup1\n      0x1f\n      add\n      0x20\n      dup1\n      swap2\n      div\n      mul\n      0x20\n      add\n      mload(0x40)\n      swap1\n      dup2\n      add\n      0x40\n      mstore\n      dup1\n      swap3\n      swap2\n      swap1\n      dup2\n      dup2\n      mstore\n      0x20\n      add\n      dup3\n      dup1\n      sload\n      tag_129\n      swap1\n      tag_84\n      jump\t// in\n    tag_129:\n      dup1\n      iszero\n      tag_130\n      jumpi\n      dup1\n      0x1f\n      lt\n      tag_131\n      jumpi\n      0x0100\n      dup1\n      dup4\n      sload\n      div\n      mul\n      dup4\n      mstore\n      swap2\n      0x20\n      add\n      swap2\n      jump(tag_130)\n    tag_131:\n      dup3\n      add\n      swap2\n      swap1\n      0x00\n      mstore\n      keccak256(0x00, 0x20)\n      swap1\n    tag_132:\n      dup2\n      sload\n      dup2\n      mstore\n      swap1\n      0x01\n      add\n      swap1\n      0x20\n      add\n      dup1\n      dup4\n      gt\n      tag_132\n      jumpi\n      dup3\n      swap1\n      sub\n      0x1f\n      and\n      dup3\n      add\n      swap2\n    tag_130:\n      pop\n      pop\n      pop\n      pop\n      pop\n      dup2\n      mstore\n      0x20\n      add\n      0x04\n      dup3\n      add\n      dup1\n      sload\n      tag_133\n      swap1\n      tag_84\n      jump\t// in\n    tag_133:\n      dup1\n      0x1f\n      add\n      0x20\n      dup1\n      swap2\n      div\n      mul\n      0x20\n      add\n      mload(0x40)\n      swap1\n      dup2\n      add\n      0x40\n      mstore\n      dup1\n      swap3\n      swap2\n      swap1\n      dup2\n      dup2\n      mstore\n      0x20\n      add\n      dup3\n      dup1\n      sload\n      tag_134\n      swap1\n      tag_84\n      jump\t// in\n    tag_134:\n      dup1\n      iszero\n      tag_135\n      jumpi\n      dup1\n      0x1f\n      lt\n      tag_136\n      jumpi\n      0x0100\n      dup1\n      dup4\n      sload\n      div\n      mul\n      dup4\n      mstore\n      swap2\n      0x20\n      add\n      swap2\n      jump(tag_135)\n    tag_136:\n      dup3\n      add\n      swap2\n      swap1\n      0x00\n      mstore\n      keccak256(0x00, 0x20)\n      swap1\n    tag_137:\n      dup2\n      sload\n      dup2\n      mstore\n      swap1\n      0x01\n      add\n      swap1\n      0x20\n      add\n      dup1\n      dup4\n      gt\n      tag_137\n      jumpi\n      dup3\n      swap1\n      sub\n      0x1f\n      and\n      dup3\n      add\n      swap2\n    tag_135:\n      pop\n      pop\n      pop\n      pop\n      pop\n      dup2\n      mstore\n      0x20\n      add\n      0x05\n      dup3\n      add\n      dup1\n      sload\n      tag_138\n      swap1\n      tag_84\n      jump\t// in\n    tag_138:\n      dup1\n      0x1f\n      add\n      0x20\n      dup1\n      swap2\n      div\n      mul\n      0x20\n      add\n      mload(0x40)\n      swap1\n      dup2\n      add\n      0x40\n      mstore\n      dup1\n      swap3\n      swap2\n      swap1\n      dup2\n      dup2\n      mstore\n      0x20\n      add\n      dup3\n      dup1\n      sload\n      tag_139\n      swap1\n      tag_84\n      jump\t// in\n    tag_139:\n      dup1\n      iszero\n      tag_140\n      jumpi\n      dup1\n      0x1f\n      lt\n      tag_141\n      jumpi\n      0x0100\n      dup1\n      dup4\n      sload\n      div\n      mul\n      dup4\n      mstore\n      swap2\n      0x20\n      add\n      swap2\n      jump(tag_140)\n    tag_141:\n      dup3\n      add\n      swap2\n      swap1\n      0x00\n      mstore\n      keccak256(0x00, 0x20)\n      swap1\n    tag_142:\n      dup2\n      sload\n      dup2\n      mstore\n      swap1\n      0x01\n      add\n      swap1\n      0x20\n      add\n      dup1\n      dup4\n      gt\n      tag_142\n      jumpi\n      dup3\n      swap1\n      sub\n      0x1f\n      and\n      dup3\n      add\n      swap2\n    tag_140:\n      pop\n      pop\n      pop\n      pop\n      pop\n      dup2\n      mstore\n      0x20\n      add\n      0x06\n      dup3\n      add\n      sload\n      dup2\n      mstore\n      pop\n      pop\n      swap1\n      pop\n        /* \"contracts/CredentialVerification.sol\":3517:3531  credentialHash */\n      dup3\n        /* \"contracts/CredentialVerification.sol\":3499:3503  cred */\n      dup2\n        /* \"contracts/CredentialVerification.sol\":3499:3513  cred.signature */\n      0xc0\n      add\n      mload\n        /* \"contracts/CredentialVerification.sol\":3499:3531  cred.signature == credentialHash */\n      eq\n        /* \"contracts/CredentialVerification.sol\":3491:3532  return (cred.signature == credentialHash) */\n      swap2\n      pop\n      pop\n        /* \"contracts/CredentialVerification.sol\":3184:3540  function verifyCredentials(uint256 studentId, bytes32 credentialHash) public view onlyEmployer returns (bool) {... */\n      swap3\n      swap2\n      pop\n      pop\n      jump\t// out\n        /* \"contracts/CredentialVerification.sol\":617:666  mapping(uint256 => Credential) public credentials */\n    tag_54:\n      mstore(0x20, 0x00)\n      dup1\n      0x00\n      mstore\n      keccak256(0x00, 0x40)\n      0x00\n      swap2\n      pop\n      swap1\n      pop\n      dup1\n      0x00\n      add\n      sload\n      swap1\n      dup1\n      0x01\n      add\n      dup1\n      sload\n      tag_143\n      swap1\n      tag_84\n      jump\t// in\n    tag_143:\n      dup1\n      0x1f\n      add\n      0x20\n      dup1\n      swap2\n      div\n      mul\n      0x20\n      add\n      mload(0x40)\n      swap1\n      dup2\n      add\n      0x40\n      mstore\n      dup1\n      swap3\n      swap2\n      swap1\n      dup2\n      dup2\n      mstore\n      0x20\n      add\n      dup3\n      dup1\n      sload\n      tag_144\n      swap1\n      tag_84\n      jump\t// in\n    tag_144:\n      dup1\n      iszero\n      tag_145\n      jumpi\n      dup1\n      0x1f\n      lt\n      tag_146\n      jumpi\n      0x0100\n      dup1\n      dup4\n      sload\n      div\n      mul\n      dup4\n      mstore\n      swap2\n      0x20\n      add\n      swap2\n      jump(tag_145)\n    tag_146:\n      dup3\n      add\n      swap2\n      swap1\n      0x00\n      mstore\n      keccak256(0x00, 0x20)\n      swap1\n    tag_147:\n      dup2\n      sload\n      dup2\n      mstore\n      swap1\n      0x01\n      add\n      swap1\n      0x20\n      add\n      dup1\n      dup4\n      gt\n      tag_147\n      jumpi\n      dup3\n      swap1\n      sub\n      0x1f\n      and\n      dup3\n      add\n      swap2\n    tag_145:\n      pop\n      pop\n      pop\n      pop\n      pop\n      swap1\n      dup1\n      0x02\n      add\n      dup1\n      sload\n      tag_148\n      swap1\n      tag_84\n      jump\t// in\n    tag_148:\n      dup1\n      0x1f\n      add\n      0x20\n      dup1\n      swap2\n      div\n      mul\n      0x20\n      add\n      mload(0x40)\n      swap1\n      dup2\n      add\n      0x40\n      mstore\n      dup1\n      swap3\n      swap2\n      swap1\n      dup2\n      dup2\n      mstore\n      0x20\n      add\n      dup3\n      dup1\n      sload\n      tag_149\n      swap1\n      tag_84\n      jump\t// in\n    tag_149:\n      dup1\n      iszero\n      tag_150\n      jumpi\n      dup1\n      0x1f\n      lt\n      tag_151\n      jumpi\n      0x0100\n      dup1\n      dup4\n      sload\n      div\n      mul\n      dup4\n      mstore\n      swap2\n      0x20\n      add\n      swap2\n      jump(tag_150)\n    tag_151:\n      dup3\n      add\n      swap2\n      swap1\n      0x00\n      mstore\n      keccak256(0x00, 0x20)\n      swap1\n    tag_152:\n      dup2\n      sload\n      dup2\n      mstore\n      swap1\n      0x01\n      add\n      swap1\n      0x20\n      add\n      dup1\n      dup4\n      gt\n      tag_152\n      jumpi\n      dup3\n      swap1\n      sub\n      0x1f\n      and\n      dup3\n      add\n      swap2\n    tag_150:\n      pop\n      pop\n      pop\n      pop\n      pop\n      swap1\n      dup1\n      0x03\n      add\n      dup1\n      sload\n      tag_153\n      swap1\n      tag_84\n      jump\t// in\n    tag_153:\n      dup1\n      0x1f\n      add\n      0x20\n      dup1\n      swap2\n      div\n      mul\n      0x20\n      add\n      mload(0x40)\n      swap1\n      dup2\n      add\n      0x40\n      mstore\n      dup1\n      swap3\n      swap2\n      swap1\n      dup2\n      dup2\n      mstore\n      0x20\n      add\n      dup3\n      dup1\n      sload\n      tag_154\n      swap1\n      tag_84\n      jump\t// in\n    tag_154:\n      dup1\n      iszero\n      tag_155\n      jumpi\n      dup1\n      0x1f\n      lt\n      tag_156\n      jumpi\n      0x0100\n      dup1\n      dup4\n      sload\n      div\n      mul\n      dup4\n      mstore\n      swap2\n      0x20\n      add\n      swap2\n      jump(tag_155)\n    tag_156:\n      dup3\n      add\n      swap2\n      swap1\n      0x00\n      mstore\n      keccak256(0x00, 0x20)\n      swap1\n    tag_157:\n      dup2\n      sload\n      dup2\n      mstore\n      swap1\n      0x01\n      add\n      swap1\n      0x20\n      add\n      dup1\n      dup4\n      gt\n      tag_157\n      jumpi\n      dup3\n      swap1\n      sub\n      0x1f\n      and\n      dup3\n      add\n      swap2\n    tag_155:\n      pop\n      pop\n      pop\n      pop\n      pop\n      swap1\n      dup1\n      0x04\n      add\n      dup1\n      sload\n      tag_158\n      swap1\n      tag_84\n      jump\t// in\n    tag_158:\n      dup1\n      0x1f\n      add\n      0x20\n      dup1\n      swap2\n      div\n      mul\n      0x20\n      add\n      mload(0x40)\n      swap1\n      dup2\n      add\n      0x40\n      mstore\n      dup1\n      swap3\n      swap2\n      swap1\n      dup2\n      dup2\n      mstore\n      0x20\n      add\n      dup3\n      dup1\n      sload\n      tag_159\n      swap1\n      tag_84\n      jump\t// in\n    tag_159:\n      dup1\n      iszero\n      tag_160\n      jumpi\n      dup1\n      0x1f\n      lt\n      tag_161\n      jumpi\n      0x0100\n      dup1\n      dup4\n      sload\n      div\n      mul\n      dup4\n      mstore\n      swap2\n      0x20\n      add\n      swap2\n      jump(tag_160)\n    tag_161:\n      dup3\n      add\n      swap2\n      swap1\n      0x00\n      mstore\n      keccak256(0x00, 0x20)\n      swap1\n    tag_162:\n      dup2\n      sload\n      dup2\n      mstore\n      swap1\n      0x01\n      add\n      swap1\n      0x20\n      add\n      dup1\n      dup4\n      gt\n      tag_162\n      jumpi\n      dup3\n      swap1\n      sub\n      0x1f\n      and\n      dup3\n      add\n      swap2\n    tag_160:\n      pop\n      pop\n      pop\n      pop\n      pop\n      swap1\n      dup1\n      0x05\n      add\n      dup1\n      sload\n      tag_163\n      swap1\n      tag_84\n      jump\t// in\n    tag_163:\n      dup1\n      0x1f\n      add\n      0x20\n      dup1\n      swap2\n      div\n      mul\n      0x20\n      add\n      mload(0x40)\n      swap1\n      dup2\n      add\n      0x40\n      mstore\n      dup1\n      swap3\n      swap2\n      swap1\n      dup2\n      dup2\n      mstore\n      0x20\n      add\n      dup3\n      dup1\n      sload\n      tag_164\n      swap1\n      tag_84\n      jump\t// in\n    tag_164:\n      dup1\n      iszero\n      tag_165\n      jumpi\n      dup1\n      0x1f\n      lt\n      tag_166\n      jumpi\n      0x0100\n      dup1\n      dup4\n      sload\n      div\n      mul\n      dup4\n      mstore\n      swap2\n      0x20\n      add\n      swap2\n      jump(tag_165)\n    tag_166:\n      dup3\n      add\n      swap2\n      swap1\n      0x00\n      mstore\n      keccak256(0x00, 0x20)\n      swap1\n    tag_167:\n      dup2\n      sload\n      dup2\n      mstore\n      swap1\n      0x01\n      add\n      swap1\n      0x20\n      add\n      dup1\n      dup4\n      gt\n      tag_167\n      jumpi\n      dup3\n      swap1\n      sub\n      0x1f\n      and\n      dup3\n      add\n      swap2\n    tag_165:\n      pop\n      pop\n      pop\n      pop\n      pop\n      swap1\n      dup1\n      0x06\n      add\n      sload\n      swap1\n      pop\n      dup8\n      jump\t// out\n        /* \"contracts/CredentialVerification.sol\":4080:4463  function generateVerificationMessage(Credential memory credential) private pure returns (string memory) {... */\n    tag_110:\n        /* \"contracts/CredentialVerification.sol\":4169:4182  string memory */\n      0x60\n        /* \"contracts/CredentialVerification.sol\":4250:4260  credential */\n      dup2\n        /* \"contracts/CredentialVerification.sol\":4250:4272  credential.studentName */\n      0x20\n      add\n      mload\n        /* \"contracts/CredentialVerification.sol\":4306:4316  credential */\n      dup3\n        /* \"contracts/CredentialVerification.sol\":4306:4328  credential.institution */\n      0x40\n      add\n      mload\n        /* \"contracts/CredentialVerification.sol\":4364:4374  credential */\n      dup4\n        /* \"contracts/CredentialVerification.sol\":4364:4388  credential.qualification */\n      0x60\n      add\n      mload\n        /* \"contracts/CredentialVerification.sol\":4422:4432  credential */\n      dup5\n        /* \"contracts/CredentialVerification.sol\":4422:4443  credential.dateIssued */\n      0x80\n      add\n      mload\n        /* \"contracts/CredentialVerification.sol\":4209:4454  abi.encodePacked(... */\n      add(0x20, mload(0x40))\n      tag_169\n      swap5\n      swap4\n      swap3\n      swap2\n      swap1\n      tag_170\n      jump\t// in\n    tag_169:\n      mload(0x40)\n      0x20\n      dup2\n      dup4\n      sub\n      sub\n      dup2\n      mstore\n      swap1\n      0x40\n      mstore\n        /* \"contracts/CredentialVerification.sol\":4195:4455  return string(abi.encodePacked(... */\n      swap1\n      pop\n        /* \"contracts/CredentialVerification.sol\":4080:4463  function generateVerificationMessage(Credential memory credential) private pure returns (string memory) {... */\n      swap2\n      swap1\n      pop\n      jump\t// out\n        /* \"#utility.yul\":7:82   */\n    tag_171:\n        /* \"#utility.yul\":40:46   */\n      0x00\n        /* \"#utility.yul\":73:75   */\n      0x40\n        /* \"#utility.yul\":67:76   */\n      mload\n        /* \"#utility.yul\":57:76   */\n      swap1\n      pop\n        /* \"#utility.yul\":7:82   */\n      swap1\n      jump\t// out\n        /* \"#utility.yul\":88:205   */\n    tag_172:\n        /* \"#utility.yul\":197:198   */\n      0x00\n        /* \"#utility.yul\":194:195   */\n      dup1\n        /* \"#utility.yul\":187:199   */\n      revert\n        /* \"#utility.yul\":211:328   */\n    tag_173:\n        /* \"#utility.yul\":320:321   */\n      0x00\n        /* \"#utility.yul\":317:318   */\n      dup1\n        /* \"#utility.yul\":310:322   */\n      revert\n        /* \"#utility.yul\":334:411   */\n    tag_174:\n        /* \"#utility.yul\":371:378   */\n      0x00\n        /* \"#utility.yul\":400:405   */\n      dup2\n        /* \"#utility.yul\":389:405   */\n      swap1\n      pop\n        /* \"#utility.yul\":334:411   */\n      swap2\n      swap1\n      pop\n      jump\t// out\n        /* \"#utility.yul\":417:539   */\n    tag_175:\n        /* \"#utility.yul\":490:514   */\n      tag_241\n        /* \"#utility.yul\":508:513   */\n      dup2\n        /* \"#utility.yul\":490:514   */\n      tag_174\n      jump\t// in\n    tag_241:\n        /* \"#utility.yul\":483:488   */\n      dup2\n        /* \"#utility.yul\":480:515   */\n      eq\n        /* \"#utility.yul\":470:533   */\n      tag_242\n      jumpi\n        /* \"#utility.yul\":529:530   */\n      0x00\n        /* \"#utility.yul\":526:527   */\n      dup1\n        /* \"#utility.yul\":519:531   */\n      revert\n        /* \"#utility.yul\":470:533   */\n    tag_242:\n        /* \"#utility.yul\":417:539   */\n      pop\n      jump\t// out\n        /* \"#utility.yul\":545:684   */\n    tag_176:\n        /* \"#utility.yul\":591:596   */\n      0x00\n        /* \"#utility.yul\":629:635   */\n      dup2\n        /* \"#utility.yul\":616:636   */\n      calldataload\n        /* \"#utility.yul\":607:636   */\n      swap1\n      pop\n        /* \"#utility.yul\":645:678   */\n      tag_244\n        /* \"#utility.yul\":672:677   */\n      dup2\n        /* \"#utility.yul\":645:678   */\n      tag_175\n      jump\t// in\n    tag_244:\n        /* \"#utility.yul\":545:684   */\n      swap3\n      swap2\n      pop\n      pop\n      jump\t// out\n        /* \"#utility.yul\":690:816   */\n    tag_177:\n        /* \"#utility.yul\":727:734   */\n      0x00\n        /* \"#utility.yul\":767:809   */\n      0xffffffffffffffffffffffffffffffffffffffff\n        /* \"#utility.yul\":760:765   */\n      dup3\n        /* \"#utility.yul\":756:810   */\n      and\n        /* \"#utility.yul\":745:810   */\n      swap1\n      pop\n        /* \"#utility.yul\":690:816   */\n      swap2\n      swap1\n      pop\n      jump\t// out\n        /* \"#utility.yul\":822:918   */\n    tag_178:\n        /* \"#utility.yul\":859:866   */\n      0x00\n        /* \"#utility.yul\":888:912   */\n      tag_247\n        /* \"#utility.yul\":906:911   */\n      dup3\n        /* \"#utility.yul\":888:912   */\n      tag_177\n      jump\t// in\n    tag_247:\n        /* \"#utility.yul\":877:912   */\n      swap1\n      pop\n        /* \"#utility.yul\":822:918   */\n      swap2\n      swap1\n      pop\n      jump\t// out\n        /* \"#utility.yul\":924:1046   */\n    tag_179:\n        /* \"#utility.yul\":997:1021   */\n      tag_249\n        /* \"#utility.yul\":1015:1020   */\n      dup2\n        /* \"#utility.yul\":997:1021   */\n      tag_178\n      jump\t// in\n    tag_249:\n        /* \"#utility.yul\":990:995   */\n      dup2\n        /* \"#utility.yul\":987:1022   */\n      eq\n        /* \"#utility.yul\":977:1040   */\n      tag_250\n      jumpi\n        /* \"#utility.yul\":1036:1037   */\n      0x00\n        /* \"#utility.yul\":1033:1034   */\n      dup1\n        /* \"#utility.yul\":1026:1038   */\n      revert\n        /* \"#utility.yul\":977:1040   */\n    tag_250:\n        /* \"#utility.yul\":924:1046   */\n      pop\n      jump\t// out\n        /* \"#utility.yul\":1052:1191   */\n    tag_180:\n        /* \"#utility.yul\":1098:1103   */\n      0x00\n        /* \"#utility.yul\":1136:1142   */\n      dup2\n        /* \"#utility.yul\":1123:1143   */\n      calldataload\n        /* \"#utility.yul\":1114:1143   */\n      swap1\n      pop\n        /* \"#utility.yul\":1152:1185   */\n      tag_252\n        /* \"#utility.yul\":1179:1184   */\n      dup2\n        /* \"#utility.yul\":1152:1185   */\n      tag_179\n      jump\t// in\n    tag_252:\n        /* \"#utility.yul\":1052:1191   */\n      swap3\n      swap2\n      pop\n      pop\n      jump\t// out\n        /* \"#utility.yul\":1197:1671   */\n    tag_16:\n        /* \"#utility.yul\":1265:1271   */\n      0x00\n        /* \"#utility.yul\":1273:1279   */\n      dup1\n        /* \"#utility.yul\":1322:1324   */\n      0x40\n        /* \"#utility.yul\":1310:1319   */\n      dup4\n        /* \"#utility.yul\":1301:1308   */\n      dup6\n        /* \"#utility.yul\":1297:1320   */\n      sub\n        /* \"#utility.yul\":1293:1325   */\n      slt\n        /* \"#utility.yul\":1290:1409   */\n      iszero\n      tag_254\n      jumpi\n        /* \"#utility.yul\":1328:1407   */\n      tag_255\n      tag_172\n      jump\t// in\n    tag_255:\n        /* \"#utility.yul\":1290:1409   */\n    tag_254:\n        /* \"#utility.yul\":1448:1449   */\n      0x00\n        /* \"#utility.yul\":1473:1526   */\n      tag_256\n        /* \"#utility.yul\":1518:1525   */\n      dup6\n        /* \"#utility.yul\":1509:1515   */\n      dup3\n        /* \"#utility.yul\":1498:1507   */\n      dup7\n        /* \"#utility.yul\":1494:1516   */\n      add\n        /* \"#utility.yul\":1473:1526   */\n      tag_176\n      jump\t// in\n    tag_256:\n        /* \"#utility.yul\":1463:1526   */\n      swap3\n      pop\n        /* \"#utility.yul\":1419:1536   */\n      pop\n        /* \"#utility.yul\":1575:1577   */\n      0x20\n        /* \"#utility.yul\":1601:1654   */\n      tag_257\n        /* \"#utility.yul\":1646:1653   */\n      dup6\n        /* \"#utility.yul\":1637:1643   */\n      dup3\n        /* \"#utility.yul\":1626:1635   */\n      dup7\n        /* \"#utility.yul\":1622:1644   */\n      add\n        /* \"#utility.yul\":1601:1654   */\n      tag_180\n      jump\t// in\n    tag_257:\n        /* \"#utility.yul\":1591:1654   */\n      swap2\n      pop\n        /* \"#utility.yul\":1546:1664   */\n      pop\n        /* \"#utility.yul\":1197:1671   */\n      swap3\n      pop\n      swap3\n      swap1\n      pop\n      jump\t// out\n        /* \"#utility.yul\":1677:1767   */\n    tag_181:\n        /* \"#utility.yul\":1711:1718   */\n      0x00\n        /* \"#utility.yul\":1754:1759   */\n      dup2\n        /* \"#utility.yul\":1747:1760   */\n      iszero\n        /* \"#utility.yul\":1740:1761   */\n      iszero\n        /* \"#utility.yul\":1729:1761   */\n      swap1\n      pop\n        /* \"#utility.yul\":1677:1767   */\n      swap2\n      swap1\n      pop\n      jump\t// out\n        /* \"#utility.yul\":1773:1882   */\n    tag_182:\n        /* \"#utility.yul\":1854:1875   */\n      tag_260\n        /* \"#utility.yul\":1869:1874   */\n      dup2\n        /* \"#utility.yul\":1854:1875   */\n      tag_181\n      jump\t// in\n    tag_260:\n        /* \"#utility.yul\":1849:1852   */\n      dup3\n        /* \"#utility.yul\":1842:1876   */\n      mstore\n        /* \"#utility.yul\":1773:1882   */\n      pop\n      pop\n      jump\t// out\n        /* \"#utility.yul\":1888:2098   */\n    tag_22:\n        /* \"#utility.yul\":1975:1979   */\n      0x00\n        /* \"#utility.yul\":2013:2015   */\n      0x20\n        /* \"#utility.yul\":2002:2011   */\n      dup3\n        /* \"#utility.yul\":1998:2016   */\n      add\n        /* \"#utility.yul\":1990:2016   */\n      swap1\n      pop\n        /* \"#utility.yul\":2026:2091   */\n      tag_262\n        /* \"#utility.yul\":2088:2089   */\n      0x00\n        /* \"#utility.yul\":2077:2086   */\n      dup4\n        /* \"#utility.yul\":2073:2090   */\n      add\n        /* \"#utility.yul\":2064:2070   */\n      dup5\n        /* \"#utility.yul\":2026:2091   */\n      tag_182\n      jump\t// in\n    tag_262:\n        /* \"#utility.yul\":1888:2098   */\n      swap3\n      swap2\n      pop\n      pop\n      jump\t// out\n        /* \"#utility.yul\":2104:2433   */\n    tag_28:\n        /* \"#utility.yul\":2163:2169   */\n      0x00\n        /* \"#utility.yul\":2212:2214   */\n      0x20\n        /* \"#utility.yul\":2200:2209   */\n      dup3\n        /* \"#utility.yul\":2191:2198   */\n      dup5\n        /* \"#utility.yul\":2187:2210   */\n      sub\n        /* \"#utility.yul\":2183:2215   */\n      slt\n        /* \"#utility.yul\":2180:2299   */\n      iszero\n      tag_264\n      jumpi\n        /* \"#utility.yul\":2218:2297   */\n      tag_265\n      tag_172\n      jump\t// in\n    tag_265:\n        /* \"#utility.yul\":2180:2299   */\n    tag_264:\n        /* \"#utility.yul\":2338:2339   */\n      0x00\n        /* \"#utility.yul\":2363:2416   */\n      tag_266\n        /* \"#utility.yul\":2408:2415   */\n      dup5\n        /* \"#utility.yul\":2399:2405   */\n      dup3\n        /* \"#utility.yul\":2388:2397   */\n      dup6\n        /* \"#utility.yul\":2384:2406   */\n      add\n        /* \"#utility.yul\":2363:2416   */\n      tag_176\n      jump\t// in\n    tag_266:\n        /* \"#utility.yul\":2353:2416   */\n      swap2\n      pop\n        /* \"#utility.yul\":2309:2426   */\n      pop\n        /* \"#utility.yul\":2104:2433   */\n      swap3\n      swap2\n      pop\n      pop\n      jump\t// out\n        /* \"#utility.yul\":2439:2768   */\n    tag_32:\n        /* \"#utility.yul\":2498:2504   */\n      0x00\n        /* \"#utility.yul\":2547:2549   */\n      0x20\n        /* \"#utility.yul\":2535:2544   */\n      dup3\n        /* \"#utility.yul\":2526:2533   */\n      dup5\n        /* \"#utility.yul\":2522:2545   */\n      sub\n        /* \"#utility.yul\":2518:2550   */\n      slt\n        /* \"#utility.yul\":2515:2634   */\n      iszero\n      tag_268\n      jumpi\n        /* \"#utility.yul\":2553:2632   */\n      tag_269\n      tag_172\n      jump\t// in\n    tag_269:\n        /* \"#utility.yul\":2515:2634   */\n    tag_268:\n        /* \"#utility.yul\":2673:2674   */\n      0x00\n        /* \"#utility.yul\":2698:2751   */\n      tag_270\n        /* \"#utility.yul\":2743:2750   */\n      dup5\n        /* \"#utility.yul\":2734:2740   */\n      dup3\n        /* \"#utility.yul\":2723:2732   */\n      dup6\n        /* \"#utility.yul\":2719:2741   */\n      add\n        /* \"#utility.yul\":2698:2751   */\n      tag_180\n      jump\t// in\n    tag_270:\n        /* \"#utility.yul\":2688:2751   */\n      swap2\n      pop\n        /* \"#utility.yul\":2644:2761   */\n      pop\n        /* \"#utility.yul\":2439:2768   */\n      swap3\n      swap2\n      pop\n      pop\n      jump\t// out\n        /* \"#utility.yul\":2774:2891   */\n    tag_183:\n        /* \"#utility.yul\":2883:2884   */\n      0x00\n        /* \"#utility.yul\":2880:2881   */\n      dup1\n        /* \"#utility.yul\":2873:2885   */\n      revert\n        /* \"#utility.yul\":2897:3014   */\n    tag_184:\n        /* \"#utility.yul\":3006:3007   */\n      0x00\n        /* \"#utility.yul\":3003:3004   */\n      dup1\n        /* \"#utility.yul\":2996:3008   */\n      revert\n        /* \"#utility.yul\":3020:3122   */\n    tag_185:\n        /* \"#utility.yul\":3061:3067   */\n      0x00\n        /* \"#utility.yul\":3112:3114   */\n      0x1f\n        /* \"#utility.yul\":3108:3115   */\n      not\n        /* \"#utility.yul\":3103:3105   */\n      0x1f\n        /* \"#utility.yul\":3096:3101   */\n      dup4\n        /* \"#utility.yul\":3092:3106   */\n      add\n        /* \"#utility.yul\":3088:3116   */\n      and\n        /* \"#utility.yul\":3078:3116   */\n      swap1\n      pop\n        /* \"#utility.yul\":3020:3122   */\n      swap2\n      swap1\n      pop\n      jump\t// out\n        /* \"#utility.yul\":3128:3308   */\n    tag_186:\n        /* \"#utility.yul\":3176:3253   */\n      0x4e487b7100000000000000000000000000000000000000000000000000000000\n        /* \"#utility.yul\":3173:3174   */\n      0x00\n        /* \"#utility.yul\":3166:3254   */\n      mstore\n        /* \"#utility.yul\":3273:3277   */\n      0x41\n        /* \"#utility.yul\":3270:3271   */\n      0x04\n        /* \"#utility.yul\":3263:3278   */\n      mstore\n        /* \"#utility.yul\":3297:3301   */\n      0x24\n        /* \"#utility.yul\":3294:3295   */\n      0x00\n        /* \"#utility.yul\":3287:3302   */\n      revert\n        /* \"#utility.yul\":3314:3595   */\n    tag_187:\n        /* \"#utility.yul\":3397:3424   */\n      tag_276\n        /* \"#utility.yul\":3419:3423   */\n      dup3\n        /* \"#utility.yul\":3397:3424   */\n      tag_185\n      jump\t// in\n    tag_276:\n        /* \"#utility.yul\":3389:3395   */\n      dup2\n        /* \"#utility.yul\":3385:3425   */\n      add\n        /* \"#utility.yul\":3527:3533   */\n      dup2\n        /* \"#utility.yul\":3515:3525   */\n      dup2\n        /* \"#utility.yul\":3512:3534   */\n      lt\n        /* \"#utility.yul\":3491:3509   */\n      0xffffffffffffffff\n        /* \"#utility.yul\":3479:3489   */\n      dup3\n        /* \"#utility.yul\":3476:3510   */\n      gt\n        /* \"#utility.yul\":3473:3535   */\n      or\n        /* \"#utility.yul\":3470:3558   */\n      iszero\n      tag_277\n      jumpi\n        /* \"#utility.yul\":3538:3556   */\n      tag_278\n      tag_186\n      jump\t// in\n    tag_278:\n        /* \"#utility.yul\":3470:3558   */\n    tag_277:\n        /* \"#utility.yul\":3578:3588   */\n      dup1\n        /* \"#utility.yul\":3574:3576   */\n      0x40\n        /* \"#utility.yul\":3567:3589   */\n      mstore\n        /* \"#utility.yul\":3357:3595   */\n      pop\n        /* \"#utility.yul\":3314:3595   */\n      pop\n      pop\n      jump\t// out\n        /* \"#utility.yul\":3601:3730   */\n    tag_188:\n        /* \"#utility.yul\":3635:3641   */\n      0x00\n        /* \"#utility.yul\":3662:3682   */\n      tag_280\n      tag_171\n      jump\t// in\n    tag_280:\n        /* \"#utility.yul\":3652:3682   */\n      swap1\n      pop\n        /* \"#utility.yul\":3691:3724   */\n      tag_281\n        /* \"#utility.yul\":3719:3723   */\n      dup3\n        /* \"#utility.yul\":3711:3717   */\n      dup3\n        /* \"#utility.yul\":3691:3724   */\n      tag_187\n      jump\t// in\n    tag_281:\n        /* \"#utility.yul\":3601:3730   */\n      swap2\n      swap1\n      pop\n      jump\t// out\n        /* \"#utility.yul\":3736:4044   */\n    tag_189:\n        /* \"#utility.yul\":3798:3802   */\n      0x00\n        /* \"#utility.yul\":3888:3906   */\n      0xffffffffffffffff\n        /* \"#utility.yul\":3880:3886   */\n      dup3\n        /* \"#utility.yul\":3877:3907   */\n      gt\n        /* \"#utility.yul\":3874:3930   */\n      iszero\n      tag_283\n      jumpi\n        /* \"#utility.yul\":3910:3928   */\n      tag_284\n      tag_186\n      jump\t// in\n    tag_284:\n        /* \"#utility.yul\":3874:3930   */\n    tag_283:\n        /* \"#utility.yul\":3948:3977   */\n      tag_285\n        /* \"#utility.yul\":3970:3976   */\n      dup3\n        /* \"#utility.yul\":3948:3977   */\n      tag_185\n      jump\t// in\n    tag_285:\n        /* \"#utility.yul\":3940:3977   */\n      swap1\n      pop\n        /* \"#utility.yul\":4032:4036   */\n      0x20\n        /* \"#utility.yul\":4026:4030   */\n      dup2\n        /* \"#utility.yul\":4022:4037   */\n      add\n        /* \"#utility.yul\":4014:4037   */\n      swap1\n      pop\n        /* \"#utility.yul\":3736:4044   */\n      swap2\n      swap1\n      pop\n      jump\t// out\n        /* \"#utility.yul\":4050:4196   */\n    tag_190:\n        /* \"#utility.yul\":4147:4153   */\n      dup3\n        /* \"#utility.yul\":4142:4145   */\n      dup2\n        /* \"#utility.yul\":4137:4140   */\n      dup4\n        /* \"#utility.yul\":4124:4154   */\n      calldatacopy\n        /* \"#utility.yul\":4188:4189   */\n      0x00\n        /* \"#utility.yul\":4179:4185   */\n      dup4\n        /* \"#utility.yul\":4174:4177   */\n      dup4\n        /* \"#utility.yul\":4170:4186   */\n      add\n        /* \"#utility.yul\":4163:4190   */\n      mstore\n        /* \"#utility.yul\":4050:4196   */\n      pop\n      pop\n      pop\n      jump\t// out\n        /* \"#utility.yul\":4202:4627   */\n    tag_191:\n        /* \"#utility.yul\":4280:4285   */\n      0x00\n        /* \"#utility.yul\":4305:4371   */\n      tag_288\n        /* \"#utility.yul\":4321:4370   */\n      tag_289\n        /* \"#utility.yul\":4363:4369   */\n      dup5\n        /* \"#utility.yul\":4321:4370   */\n      tag_189\n      jump\t// in\n    tag_289:\n        /* \"#utility.yul\":4305:4371   */\n      tag_188\n      jump\t// in\n    tag_288:\n        /* \"#utility.yul\":4296:4371   */\n      swap1\n      pop\n        /* \"#utility.yul\":4394:4400   */\n      dup3\n        /* \"#utility.yul\":4387:4392   */\n      dup2\n        /* \"#utility.yul\":4380:4401   */\n      mstore\n        /* \"#utility.yul\":4432:4436   */\n      0x20\n        /* \"#utility.yul\":4425:4430   */\n      dup2\n        /* \"#utility.yul\":4421:4437   */\n      add\n        /* \"#utility.yul\":4470:4473   */\n      dup5\n        /* \"#utility.yul\":4461:4467   */\n      dup5\n        /* \"#utility.yul\":4456:4459   */\n      dup5\n        /* \"#utility.yul\":4452:4468   */\n      add\n        /* \"#utility.yul\":4449:4474   */\n      gt\n        /* \"#utility.yul\":4446:4558   */\n      iszero\n      tag_290\n      jumpi\n        /* \"#utility.yul\":4477:4556   */\n      tag_291\n      tag_184\n      jump\t// in\n    tag_291:\n        /* \"#utility.yul\":4446:4558   */\n    tag_290:\n        /* \"#utility.yul\":4567:4621   */\n      tag_292\n        /* \"#utility.yul\":4614:4620   */\n      dup5\n        /* \"#utility.yul\":4609:4612   */\n      dup3\n        /* \"#utility.yul\":4604:4607   */\n      dup6\n        /* \"#utility.yul\":4567:4621   */\n      tag_190\n      jump\t// in\n    tag_292:\n        /* \"#utility.yul\":4286:4627   */\n      pop\n        /* \"#utility.yul\":4202:4627   */\n      swap4\n      swap3\n      pop\n      pop\n      pop\n      jump\t// out\n        /* \"#utility.yul\":4647:4987   */\n    tag_192:\n        /* \"#utility.yul\":4703:4708   */\n      0x00\n        /* \"#utility.yul\":4752:4755   */\n      dup3\n        /* \"#utility.yul\":4745:4749   */\n      0x1f\n        /* \"#utility.yul\":4737:4743   */\n      dup4\n        /* \"#utility.yul\":4733:4750   */\n      add\n        /* \"#utility.yul\":4729:4756   */\n      slt\n        /* \"#utility.yul\":4719:4841   */\n      tag_294\n      jumpi\n        /* \"#utility.yul\":4760:4839   */\n      tag_295\n      tag_183\n      jump\t// in\n    tag_295:\n        /* \"#utility.yul\":4719:4841   */\n    tag_294:\n        /* \"#utility.yul\":4877:4883   */\n      dup2\n        /* \"#utility.yul\":4864:4884   */\n      calldataload\n        /* \"#utility.yul\":4902:4981   */\n      tag_296\n        /* \"#utility.yul\":4977:4980   */\n      dup5\n        /* \"#utility.yul\":4969:4975   */\n      dup3\n        /* \"#utility.yul\":4962:4966   */\n      0x20\n        /* \"#utility.yul\":4954:4960   */\n      dup7\n        /* \"#utility.yul\":4950:4967   */\n      add\n        /* \"#utility.yul\":4902:4981   */\n      tag_191\n      jump\t// in\n    tag_296:\n        /* \"#utility.yul\":4893:4981   */\n      swap2\n      pop\n        /* \"#utility.yul\":4709:4987   */\n      pop\n        /* \"#utility.yul\":4647:4987   */\n      swap3\n      swap2\n      pop\n      pop\n      jump\t// out\n        /* \"#utility.yul\":4993:5070   */\n    tag_193:\n        /* \"#utility.yul\":5030:5037   */\n      0x00\n        /* \"#utility.yul\":5059:5064   */\n      dup2\n        /* \"#utility.yul\":5048:5064   */\n      swap1\n      pop\n        /* \"#utility.yul\":4993:5070   */\n      swap2\n      swap1\n      pop\n      jump\t// out\n        /* \"#utility.yul\":5076:5198   */\n    tag_194:\n        /* \"#utility.yul\":5149:5173   */\n      tag_299\n        /* \"#utility.yul\":5167:5172   */\n      dup2\n        /* \"#utility.yul\":5149:5173   */\n      tag_193\n      jump\t// in\n    tag_299:\n        /* \"#utility.yul\":5142:5147   */\n      dup2\n        /* \"#utility.yul\":5139:5174   */\n      eq\n        /* \"#utility.yul\":5129:5192   */\n      tag_300\n      jumpi\n        /* \"#utility.yul\":5188:5189   */\n      0x00\n        /* \"#utility.yul\":5185:5186   */\n      dup1\n        /* \"#utility.yul\":5178:5190   */\n      revert\n        /* \"#utility.yul\":5129:5192   */\n    tag_300:\n        /* \"#utility.yul\":5076:5198   */\n      pop\n      jump\t// out\n        /* \"#utility.yul\":5204:5343   */\n    tag_195:\n        /* \"#utility.yul\":5250:5255   */\n      0x00\n        /* \"#utility.yul\":5288:5294   */\n      dup2\n        /* \"#utility.yul\":5275:5295   */\n      calldataload\n        /* \"#utility.yul\":5266:5295   */\n      swap1\n      pop\n        /* \"#utility.yul\":5304:5337   */\n      tag_302\n        /* \"#utility.yul\":5331:5336   */\n      dup2\n        /* \"#utility.yul\":5304:5337   */\n      tag_194\n      jump\t// in\n    tag_302:\n        /* \"#utility.yul\":5204:5343   */\n      swap3\n      swap2\n      pop\n      pop\n      jump\t// out\n        /* \"#utility.yul\":5349:7452   */\n    tag_37:\n        /* \"#utility.yul\":5512:5518   */\n      0x00\n        /* \"#utility.yul\":5520:5526   */\n      dup1\n        /* \"#utility.yul\":5528:5534   */\n      0x00\n        /* \"#utility.yul\":5536:5542   */\n      dup1\n        /* \"#utility.yul\":5544:5550   */\n      0x00\n        /* \"#utility.yul\":5552:5558   */\n      dup1\n        /* \"#utility.yul\":5560:5566   */\n      0x00\n        /* \"#utility.yul\":5609:5612   */\n      0xe0\n        /* \"#utility.yul\":5597:5606   */\n      dup9\n        /* \"#utility.yul\":5588:5595   */\n      dup11\n        /* \"#utility.yul\":5584:5607   */\n      sub\n        /* \"#utility.yul\":5580:5613   */\n      slt\n        /* \"#utility.yul\":5577:5697   */\n      iszero\n      tag_304\n      jumpi\n        /* \"#utility.yul\":5616:5695   */\n      tag_305\n      tag_172\n      jump\t// in\n    tag_305:\n        /* \"#utility.yul\":5577:5697   */\n    tag_304:\n        /* \"#utility.yul\":5736:5737   */\n      0x00\n        /* \"#utility.yul\":5761:5814   */\n      tag_306\n        /* \"#utility.yul\":5806:5813   */\n      dup11\n        /* \"#utility.yul\":5797:5803   */\n      dup3\n        /* \"#utility.yul\":5786:5795   */\n      dup12\n        /* \"#utility.yul\":5782:5804   */\n      add\n        /* \"#utility.yul\":5761:5814   */\n      tag_176\n      jump\t// in\n    tag_306:\n        /* \"#utility.yul\":5751:5814   */\n      swap8\n      pop\n        /* \"#utility.yul\":5707:5824   */\n      pop\n        /* \"#utility.yul\":5891:5893   */\n      0x20\n        /* \"#utility.yul\":5880:5889   */\n      dup9\n        /* \"#utility.yul\":5876:5894   */\n      add\n        /* \"#utility.yul\":5863:5895   */\n      calldataload\n        /* \"#utility.yul\":5922:5940   */\n      0xffffffffffffffff\n        /* \"#utility.yul\":5914:5920   */\n      dup2\n        /* \"#utility.yul\":5911:5941   */\n      gt\n        /* \"#utility.yul\":5908:6025   */\n      iszero\n      tag_307\n      jumpi\n        /* \"#utility.yul\":5944:6023   */\n      tag_308\n      tag_173\n      jump\t// in\n    tag_308:\n        /* \"#utility.yul\":5908:6025   */\n    tag_307:\n        /* \"#utility.yul\":6049:6112   */\n      tag_309\n        /* \"#utility.yul\":6104:6111   */\n      dup11\n        /* \"#utility.yul\":6095:6101   */\n      dup3\n        /* \"#utility.yul\":6084:6093   */\n      dup12\n        /* \"#utility.yul\":6080:6102   */\n      add\n        /* \"#utility.yul\":6049:6112   */\n      tag_192\n      jump\t// in\n    tag_309:\n        /* \"#utility.yul\":6039:6112   */\n      swap7\n      pop\n        /* \"#utility.yul\":5834:6122   */\n      pop\n        /* \"#utility.yul\":6189:6191   */\n      0x40\n        /* \"#utility.yul\":6178:6187   */\n      dup9\n        /* \"#utility.yul\":6174:6192   */\n      add\n        /* \"#utility.yul\":6161:6193   */\n      calldataload\n        /* \"#utility.yul\":6220:6238   */\n      0xffffffffffffffff\n        /* \"#utility.yul\":6212:6218   */\n      dup2\n        /* \"#utility.yul\":6209:6239   */\n      gt\n        /* \"#utility.yul\":6206:6323   */\n      iszero\n      tag_310\n      jumpi\n        /* \"#utility.yul\":6242:6321   */\n      tag_311\n      tag_173\n      jump\t// in\n    tag_311:\n        /* \"#utility.yul\":6206:6323   */\n    tag_310:\n        /* \"#utility.yul\":6347:6410   */\n      tag_312\n        /* \"#utility.yul\":6402:6409   */\n      dup11\n        /* \"#utility.yul\":6393:6399   */\n      dup3\n        /* \"#utility.yul\":6382:6391   */\n      dup12\n        /* \"#utility.yul\":6378:6400   */\n      add\n        /* \"#utility.yul\":6347:6410   */\n      tag_192\n      jump\t// in\n    tag_312:\n        /* \"#utility.yul\":6337:6410   */\n      swap6\n      pop\n        /* \"#utility.yul\":6132:6420   */\n      pop\n        /* \"#utility.yul\":6487:6489   */\n      0x60\n        /* \"#utility.yul\":6476:6485   */\n      dup9\n        /* \"#utility.yul\":6472:6490   */\n      add\n        /* \"#utility.yul\":6459:6491   */\n      calldataload\n        /* \"#utility.yul\":6518:6536   */\n      0xffffffffffffffff\n        /* \"#utility.yul\":6510:6516   */\n      dup2\n        /* \"#utility.yul\":6507:6537   */\n      gt\n        /* \"#utility.yul\":6504:6621   */\n      iszero\n      tag_313\n      jumpi\n        /* \"#utility.yul\":6540:6619   */\n      tag_314\n      tag_173\n      jump\t// in\n    tag_314:\n        /* \"#utility.yul\":6504:6621   */\n    tag_313:\n        /* \"#utility.yul\":6645:6708   */\n      tag_315\n        /* \"#utility.yul\":6700:6707   */\n      dup11\n        /* \"#utility.yul\":6691:6697   */\n      dup3\n        /* \"#utility.yul\":6680:6689   */\n      dup12\n        /* \"#utility.yul\":6676:6698   */\n      add\n        /* \"#utility.yul\":6645:6708   */\n      tag_192\n      jump\t// in\n    tag_315:\n        /* \"#utility.yul\":6635:6708   */\n      swap5\n      pop\n        /* \"#utility.yul\":6430:6718   */\n      pop\n        /* \"#utility.yul\":6785:6788   */\n      0x80\n        /* \"#utility.yul\":6774:6783   */\n      dup9\n        /* \"#utility.yul\":6770:6789   */\n      add\n        /* \"#utility.yul\":6757:6790   */\n      calldataload\n        /* \"#utility.yul\":6817:6835   */\n      0xffffffffffffffff\n        /* \"#utility.yul\":6809:6815   */\n      dup2\n        /* \"#utility.yul\":6806:6836   */\n      gt\n        /* \"#utility.yul\":6803:6920   */\n      iszero\n      tag_316\n      jumpi\n        /* \"#utility.yul\":6839:6918   */\n      tag_317\n      tag_173\n      jump\t// in\n    tag_317:\n        /* \"#utility.yul\":6803:6920   */\n    tag_316:\n        /* \"#utility.yul\":6944:7007   */\n      tag_318\n        /* \"#utility.yul\":6999:7006   */\n      dup11\n        /* \"#utility.yul\":6990:6996   */\n      dup3\n        /* \"#utility.yul\":6979:6988   */\n      dup12\n        /* \"#utility.yul\":6975:6997   */\n      add\n        /* \"#utility.yul\":6944:7007   */\n      tag_192\n      jump\t// in\n    tag_318:\n        /* \"#utility.yul\":6934:7007   */\n      swap4\n      pop\n        /* \"#utility.yul\":6728:7017   */\n      pop\n        /* \"#utility.yul\":7084:7087   */\n      0xa0\n        /* \"#utility.yul\":7073:7082   */\n      dup9\n        /* \"#utility.yul\":7069:7088   */\n      add\n        /* \"#utility.yul\":7056:7089   */\n      calldataload\n        /* \"#utility.yul\":7116:7134   */\n      0xffffffffffffffff\n        /* \"#utility.yul\":7108:7114   */\n      dup2\n        /* \"#utility.yul\":7105:7135   */\n      gt\n        /* \"#utility.yul\":7102:7219   */\n      iszero\n      tag_319\n      jumpi\n        /* \"#utility.yul\":7138:7217   */\n      tag_320\n      tag_173\n      jump\t// in\n    tag_320:\n        /* \"#utility.yul\":7102:7219   */\n    tag_319:\n        /* \"#utility.yul\":7243:7306   */\n      tag_321\n        /* \"#utility.yul\":7298:7305   */\n      dup11\n        /* \"#utility.yul\":7289:7295   */\n      dup3\n        /* \"#utility.yul\":7278:7287   */\n      dup12\n        /* \"#utility.yul\":7274:7296   */\n      add\n        /* \"#utility.yul\":7243:7306   */\n      tag_192\n      jump\t// in\n    tag_321:\n        /* \"#utility.yul\":7233:7306   */\n      swap3\n      pop\n        /* \"#utility.yul\":7027:7316   */\n      pop\n        /* \"#utility.yul\":7355:7358   */\n      0xc0\n        /* \"#utility.yul\":7382:7435   */\n      tag_322\n        /* \"#utility.yul\":7427:7434   */\n      dup11\n        /* \"#utility.yul\":7418:7424   */\n      dup3\n        /* \"#utility.yul\":7407:7416   */\n      dup12\n        /* \"#utility.yul\":7403:7425   */\n      add\n        /* \"#utility.yul\":7382:7435   */\n      tag_195\n      jump\t// in\n    tag_322:\n        /* \"#utility.yul\":7372:7435   */\n      swap2\n      pop\n        /* \"#utility.yul\":7326:7445   */\n      pop\n        /* \"#utility.yul\":5349:7452   */\n      swap3\n      swap6\n      swap9\n      swap2\n      swap5\n      swap8\n      pop\n      swap3\n      swap6\n      pop\n      jump\t// out\n        /* \"#utility.yul\":7458:7557   */\n    tag_196:\n        /* \"#utility.yul\":7510:7516   */\n      0x00\n        /* \"#utility.yul\":7544:7549   */\n      dup2\n        /* \"#utility.yul\":7538:7550   */\n      mload\n        /* \"#utility.yul\":7528:7550   */\n      swap1\n      pop\n        /* \"#utility.yul\":7458:7557   */\n      swap2\n      swap1\n      pop\n      jump\t// out\n        /* \"#utility.yul\":7563:7732   */\n    tag_197:\n        /* \"#utility.yul\":7647:7658   */\n      0x00\n        /* \"#utility.yul\":7681:7687   */\n      dup3\n        /* \"#utility.yul\":7676:7679   */\n      dup3\n        /* \"#utility.yul\":7669:7688   */\n      mstore\n        /* \"#utility.yul\":7721:7725   */\n      0x20\n        /* \"#utility.yul\":7716:7719   */\n      dup3\n        /* \"#utility.yul\":7712:7726   */\n      add\n        /* \"#utility.yul\":7697:7726   */\n      swap1\n      pop\n        /* \"#utility.yul\":7563:7732   */\n      swap3\n      swap2\n      pop\n      pop\n      jump\t// out\n        /* \"#utility.yul\":7738:7984   */\n    tag_198:\n        /* \"#utility.yul\":7819:7820   */\n      0x00\n        /* \"#utility.yul\":7829:7942   */\n    tag_326:\n        /* \"#utility.yul\":7843:7849   */\n      dup4\n        /* \"#utility.yul\":7840:7841   */\n      dup2\n        /* \"#utility.yul\":7837:7850   */\n      lt\n        /* \"#utility.yul\":7829:7942   */\n      iszero\n      tag_328\n      jumpi\n        /* \"#utility.yul\":7928:7929   */\n      dup1\n        /* \"#utility.yul\":7923:7926   */\n      dup3\n        /* \"#utility.yul\":7919:7930   */\n      add\n        /* \"#utility.yul\":7913:7931   */\n      mload\n        /* \"#utility.yul\":7909:7910   */\n      dup2\n        /* \"#utility.yul\":7904:7907   */\n      dup5\n        /* \"#utility.yul\":7900:7911   */\n      add\n        /* \"#utility.yul\":7893:7932   */\n      mstore\n        /* \"#utility.yul\":7865:7867   */\n      0x20\n        /* \"#utility.yul\":7862:7863   */\n      dup2\n        /* \"#utility.yul\":7858:7868   */\n      add\n        /* \"#utility.yul\":7853:7868   */\n      swap1\n      pop\n        /* \"#utility.yul\":7829:7942   */\n      jump(tag_326)\n    tag_328:\n        /* \"#utility.yul\":7976:7977   */\n      0x00\n        /* \"#utility.yul\":7967:7973   */\n      dup5\n        /* \"#utility.yul\":7962:7965   */\n      dup5\n        /* \"#utility.yul\":7958:7974   */\n      add\n        /* \"#utility.yul\":7951:7978   */\n      mstore\n        /* \"#utility.yul\":7800:7984   */\n      pop\n        /* \"#utility.yul\":7738:7984   */\n      pop\n      pop\n      pop\n      jump\t// out\n        /* \"#utility.yul\":7990:8367   */\n    tag_199:\n        /* \"#utility.yul\":8078:8081   */\n      0x00\n        /* \"#utility.yul\":8106:8145   */\n      tag_330\n        /* \"#utility.yul\":8139:8144   */\n      dup3\n        /* \"#utility.yul\":8106:8145   */\n      tag_196\n      jump\t// in\n    tag_330:\n        /* \"#utility.yul\":8161:8232   */\n      tag_331\n        /* \"#utility.yul\":8225:8231   */\n      dup2\n        /* \"#utility.yul\":8220:8223   */\n      dup6\n        /* \"#utility.yul\":8161:8232   */\n      tag_197\n      jump\t// in\n    tag_331:\n        /* \"#utility.yul\":8154:8232   */\n      swap4\n      pop\n        /* \"#utility.yul\":8241:8306   */\n      tag_332\n        /* \"#utility.yul\":8299:8305   */\n      dup2\n        /* \"#utility.yul\":8294:8297   */\n      dup6\n        /* \"#utility.yul\":8287:8291   */\n      0x20\n        /* \"#utility.yul\":8280:8285   */\n      dup7\n        /* \"#utility.yul\":8276:8292   */\n      add\n        /* \"#utility.yul\":8241:8306   */\n      tag_198\n      jump\t// in\n    tag_332:\n        /* \"#utility.yul\":8331:8360   */\n      tag_333\n        /* \"#utility.yul\":8353:8359   */\n      dup2\n        /* \"#utility.yul\":8331:8360   */\n      tag_185\n      jump\t// in\n    tag_333:\n        /* \"#utility.yul\":8326:8329   */\n      dup5\n        /* \"#utility.yul\":8322:8361   */\n      add\n        /* \"#utility.yul\":8315:8361   */\n      swap2\n      pop\n        /* \"#utility.yul\":8082:8367   */\n      pop\n        /* \"#utility.yul\":7990:8367   */\n      swap3\n      swap2\n      pop\n      pop\n      jump\t// out\n        /* \"#utility.yul\":8373:8686   */\n    tag_46:\n        /* \"#utility.yul\":8486:8490   */\n      0x00\n        /* \"#utility.yul\":8524:8526   */\n      0x20\n        /* \"#utility.yul\":8513:8522   */\n      dup3\n        /* \"#utility.yul\":8509:8527   */\n      add\n        /* \"#utility.yul\":8501:8527   */\n      swap1\n      pop\n        /* \"#utility.yul\":8573:8582   */\n      dup2\n        /* \"#utility.yul\":8567:8571   */\n      dup2\n        /* \"#utility.yul\":8563:8583   */\n      sub\n        /* \"#utility.yul\":8559:8560   */\n      0x00\n        /* \"#utility.yul\":8548:8557   */\n      dup4\n        /* \"#utility.yul\":8544:8561   */\n      add\n        /* \"#utility.yul\":8537:8584   */\n      mstore\n        /* \"#utility.yul\":8601:8679   */\n      tag_335\n        /* \"#utility.yul\":8674:8678   */\n      dup2\n        /* \"#utility.yul\":8665:8671   */\n      dup5\n        /* \"#utility.yul\":8601:8679   */\n      tag_199\n      jump\t// in\n    tag_335:\n        /* \"#utility.yul\":8593:8679   */\n      swap1\n      pop\n        /* \"#utility.yul\":8373:8686   */\n      swap3\n      swap2\n      pop\n      pop\n      jump\t// out\n        /* \"#utility.yul\":8692:9166   */\n    tag_49:\n        /* \"#utility.yul\":8760:8766   */\n      0x00\n        /* \"#utility.yul\":8768:8774   */\n      dup1\n        /* \"#utility.yul\":8817:8819   */\n      0x40\n        /* \"#utility.yul\":8805:8814   */\n      dup4\n        /* \"#utility.yul\":8796:8803   */\n      dup6\n        /* \"#utility.yul\":8792:8815   */\n      sub\n        /* \"#utility.yul\":8788:8820   */\n      slt\n        /* \"#utility.yul\":8785:8904   */\n      iszero\n      tag_337\n      jumpi\n        /* \"#utility.yul\":8823:8902   */\n      tag_338\n      tag_172\n      jump\t// in\n    tag_338:\n        /* \"#utility.yul\":8785:8904   */\n    tag_337:\n        /* \"#utility.yul\":8943:8944   */\n      0x00\n        /* \"#utility.yul\":8968:9021   */\n      tag_339\n        /* \"#utility.yul\":9013:9020   */\n      dup6\n        /* \"#utility.yul\":9004:9010   */\n      dup3\n        /* \"#utility.yul\":8993:9002   */\n      dup7\n        /* \"#utility.yul\":8989:9011   */\n      add\n        /* \"#utility.yul\":8968:9021   */\n      tag_176\n      jump\t// in\n    tag_339:\n        /* \"#utility.yul\":8958:9021   */\n      swap3\n      pop\n        /* \"#utility.yul\":8914:9031   */\n      pop\n        /* \"#utility.yul\":9070:9072   */\n      0x20\n        /* \"#utility.yul\":9096:9149   */\n      tag_340\n        /* \"#utility.yul\":9141:9148   */\n      dup6\n        /* \"#utility.yul\":9132:9138   */\n      dup3\n        /* \"#utility.yul\":9121:9130   */\n      dup7\n        /* \"#utility.yul\":9117:9139   */\n      add\n        /* \"#utility.yul\":9096:9149   */\n      tag_195\n      jump\t// in\n    tag_340:\n        /* \"#utility.yul\":9086:9149   */\n      swap2\n      pop\n        /* \"#utility.yul\":9041:9159   */\n      pop\n        /* \"#utility.yul\":8692:9166   */\n      swap3\n      pop\n      swap3\n      swap1\n      pop\n      jump\t// out\n        /* \"#utility.yul\":9172:9290   */\n    tag_200:\n        /* \"#utility.yul\":9259:9283   */\n      tag_342\n        /* \"#utility.yul\":9277:9282   */\n      dup2\n        /* \"#utility.yul\":9259:9283   */\n      tag_174\n      jump\t// in\n    tag_342:\n        /* \"#utility.yul\":9254:9257   */\n      dup3\n        /* \"#utility.yul\":9247:9284   */\n      mstore\n        /* \"#utility.yul\":9172:9290   */\n      pop\n      pop\n      jump\t// out\n        /* \"#utility.yul\":9296:9414   */\n    tag_201:\n        /* \"#utility.yul\":9383:9407   */\n      tag_344\n        /* \"#utility.yul\":9401:9406   */\n      dup2\n        /* \"#utility.yul\":9383:9407   */\n      tag_193\n      jump\t// in\n    tag_344:\n        /* \"#utility.yul\":9378:9381   */\n      dup3\n        /* \"#utility.yul\":9371:9408   */\n      mstore\n        /* \"#utility.yul\":9296:9414   */\n      pop\n      pop\n      jump\t// out\n        /* \"#utility.yul\":9420:10761   */\n    tag_56:\n        /* \"#utility.yul\":9781:9785   */\n      0x00\n        /* \"#utility.yul\":9819:9822   */\n      0xe0\n        /* \"#utility.yul\":9808:9817   */\n      dup3\n        /* \"#utility.yul\":9804:9823   */\n      add\n        /* \"#utility.yul\":9796:9823   */\n      swap1\n      pop\n        /* \"#utility.yul\":9833:9904   */\n      tag_346\n        /* \"#utility.yul\":9901:9902   */\n      0x00\n        /* \"#utility.yul\":9890:9899   */\n      dup4\n        /* \"#utility.yul\":9886:9903   */\n      add\n        /* \"#utility.yul\":9877:9883   */\n      dup11\n        /* \"#utility.yul\":9833:9904   */\n      tag_200\n      jump\t// in\n    tag_346:\n        /* \"#utility.yul\":9951:9960   */\n      dup2\n        /* \"#utility.yul\":9945:9949   */\n      dup2\n        /* \"#utility.yul\":9941:9961   */\n      sub\n        /* \"#utility.yul\":9936:9938   */\n      0x20\n        /* \"#utility.yul\":9925:9934   */\n      dup4\n        /* \"#utility.yul\":9921:9939   */\n      add\n        /* \"#utility.yul\":9914:9962   */\n      mstore\n        /* \"#utility.yul\":9979:10057   */\n      tag_347\n        /* \"#utility.yul\":10052:10056   */\n      dup2\n        /* \"#utility.yul\":10043:10049   */\n      dup10\n        /* \"#utility.yul\":9979:10057   */\n      tag_199\n      jump\t// in\n    tag_347:\n        /* \"#utility.yul\":9971:10057   */\n      swap1\n      pop\n        /* \"#utility.yul\":10104:10113   */\n      dup2\n        /* \"#utility.yul\":10098:10102   */\n      dup2\n        /* \"#utility.yul\":10094:10114   */\n      sub\n        /* \"#utility.yul\":10089:10091   */\n      0x40\n        /* \"#utility.yul\":10078:10087   */\n      dup4\n        /* \"#utility.yul\":10074:10092   */\n      add\n        /* \"#utility.yul\":10067:10115   */\n      mstore\n        /* \"#utility.yul\":10132:10210   */\n      tag_348\n        /* \"#utility.yul\":10205:10209   */\n      dup2\n        /* \"#utility.yul\":10196:10202   */\n      dup9\n        /* \"#utility.yul\":10132:10210   */\n      tag_199\n      jump\t// in\n    tag_348:\n        /* \"#utility.yul\":10124:10210   */\n      swap1\n      pop\n        /* \"#utility.yul\":10257:10266   */\n      dup2\n        /* \"#utility.yul\":10251:10255   */\n      dup2\n        /* \"#utility.yul\":10247:10267   */\n      sub\n        /* \"#utility.yul\":10242:10244   */\n      0x60\n        /* \"#utility.yul\":10231:10240   */\n      dup4\n        /* \"#utility.yul\":10227:10245   */\n      add\n        /* \"#utility.yul\":10220:10268   */\n      mstore\n        /* \"#utility.yul\":10285:10363   */\n      tag_349\n        /* \"#utility.yul\":10358:10362   */\n      dup2\n        /* \"#utility.yul\":10349:10355   */\n      dup8\n        /* \"#utility.yul\":10285:10363   */\n      tag_199\n      jump\t// in\n    tag_349:\n        /* \"#utility.yul\":10277:10363   */\n      swap1\n      pop\n        /* \"#utility.yul\":10411:10420   */\n      dup2\n        /* \"#utility.yul\":10405:10409   */\n      dup2\n        /* \"#utility.yul\":10401:10421   */\n      sub\n        /* \"#utility.yul\":10395:10398   */\n      0x80\n        /* \"#utility.yul\":10384:10393   */\n      dup4\n        /* \"#utility.yul\":10380:10399   */\n      add\n        /* \"#utility.yul\":10373:10422   */\n      mstore\n        /* \"#utility.yul\":10439:10517   */\n      tag_350\n        /* \"#utility.yul\":10512:10516   */\n      dup2\n        /* \"#utility.yul\":10503:10509   */\n      dup7\n        /* \"#utility.yul\":10439:10517   */\n      tag_199\n      jump\t// in\n    tag_350:\n        /* \"#utility.yul\":10431:10517   */\n      swap1\n      pop\n        /* \"#utility.yul\":10565:10574   */\n      dup2\n        /* \"#utility.yul\":10559:10563   */\n      dup2\n        /* \"#utility.yul\":10555:10575   */\n      sub\n        /* \"#utility.yul\":10549:10552   */\n      0xa0\n        /* \"#utility.yul\":10538:10547   */\n      dup4\n        /* \"#utility.yul\":10534:10553   */\n      add\n        /* \"#utility.yul\":10527:10576   */\n      mstore\n        /* \"#utility.yul\":10593:10671   */\n      tag_351\n        /* \"#utility.yul\":10666:10670   */\n      dup2\n        /* \"#utility.yul\":10657:10663   */\n      dup6\n        /* \"#utility.yul\":10593:10671   */\n      tag_199\n      jump\t// in\n    tag_351:\n        /* \"#utility.yul\":10585:10671   */\n      swap1\n      pop\n        /* \"#utility.yul\":10681:10754   */\n      tag_352\n        /* \"#utility.yul\":10749:10752   */\n      0xc0\n        /* \"#utility.yul\":10738:10747   */\n      dup4\n        /* \"#utility.yul\":10734:10753   */\n      add\n        /* \"#utility.yul\":10725:10731   */\n      dup5\n        /* \"#utility.yul\":10681:10754   */\n      tag_201\n      jump\t// in\n    tag_352:\n        /* \"#utility.yul\":9420:10761   */\n      swap9\n      swap8\n      pop\n      pop\n      pop\n      pop\n      pop\n      pop\n      pop\n      pop\n      jump\t// out\n        /* \"#utility.yul\":10767:10885   */\n    tag_202:\n        /* \"#utility.yul\":10854:10878   */\n      tag_354\n        /* \"#utility.yul\":10872:10877   */\n      dup2\n        /* \"#utility.yul\":10854:10878   */\n      tag_178\n      jump\t// in\n    tag_354:\n        /* \"#utility.yul\":10849:10852   */\n      dup3\n        /* \"#utility.yul\":10842:10879   */\n      mstore\n        /* \"#utility.yul\":10767:10885   */\n      pop\n      pop\n      jump\t// out\n        /* \"#utility.yul\":10891:11223   */\n    tag_59:\n        /* \"#utility.yul\":11012:11016   */\n      0x00\n        /* \"#utility.yul\":11050:11052   */\n      0x40\n        /* \"#utility.yul\":11039:11048   */\n      dup3\n        /* \"#utility.yul\":11035:11053   */\n      add\n        /* \"#utility.yul\":11027:11053   */\n      swap1\n      pop\n        /* \"#utility.yul\":11063:11134   */\n      tag_356\n        /* \"#utility.yul\":11131:11132   */\n      0x00\n        /* \"#utility.yul\":11120:11129   */\n      dup4\n        /* \"#utility.yul\":11116:11133   */\n      add\n        /* \"#utility.yul\":11107:11113   */\n      dup6\n        /* \"#utility.yul\":11063:11134   */\n      tag_200\n      jump\t// in\n    tag_356:\n        /* \"#utility.yul\":11144:11216   */\n      tag_357\n        /* \"#utility.yul\":11212:11214   */\n      0x20\n        /* \"#utility.yul\":11201:11210   */\n      dup4\n        /* \"#utility.yul\":11197:11215   */\n      add\n        /* \"#utility.yul\":11188:11194   */\n      dup5\n        /* \"#utility.yul\":11144:11216   */\n      tag_202\n      jump\t// in\n    tag_357:\n        /* \"#utility.yul\":10891:11223   */\n      swap4\n      swap3\n      pop\n      pop\n      pop\n      jump\t// out\n        /* \"#utility.yul\":11229:11452   */\n    tag_203:\n        /* \"#utility.yul\":11369:11403   */\n      0x43616c6c6572206973206e6f7420616e20617574686f726973656420656d706c\n        /* \"#utility.yul\":11365:11366   */\n      0x00\n        /* \"#utility.yul\":11357:11363   */\n      dup3\n        /* \"#utility.yul\":11353:11367   */\n      add\n        /* \"#utility.yul\":11346:11404   */\n      mstore\n        /* \"#utility.yul\":11438:11444   */\n      0x6f79657200000000000000000000000000000000000000000000000000000000\n        /* \"#utility.yul\":11433:11435   */\n      0x20\n        /* \"#utility.yul\":11425:11431   */\n      dup3\n        /* \"#utility.yul\":11421:11436   */\n      add\n        /* \"#utility.yul\":11414:11445   */\n      mstore\n        /* \"#utility.yul\":11229:11452   */\n      pop\n      jump\t// out\n        /* \"#utility.yul\":11458:11824   */\n    tag_204:\n        /* \"#utility.yul\":11600:11603   */\n      0x00\n        /* \"#utility.yul\":11621:11688   */\n      tag_360\n        /* \"#utility.yul\":11685:11687   */\n      0x24\n        /* \"#utility.yul\":11680:11683   */\n      dup4\n        /* \"#utility.yul\":11621:11688   */\n      tag_197\n      jump\t// in\n    tag_360:\n        /* \"#utility.yul\":11614:11688   */\n      swap2\n      pop\n        /* \"#utility.yul\":11697:11790   */\n      tag_361\n        /* \"#utility.yul\":11786:11789   */\n      dup3\n        /* \"#utility.yul\":11697:11790   */\n      tag_203\n      jump\t// in\n    tag_361:\n        /* \"#utility.yul\":11815:11817   */\n      0x40\n        /* \"#utility.yul\":11810:11813   */\n      dup3\n        /* \"#utility.yul\":11806:11818   */\n      add\n        /* \"#utility.yul\":11799:11818   */\n      swap1\n      pop\n        /* \"#utility.yul\":11458:11824   */\n      swap2\n      swap1\n      pop\n      jump\t// out\n        /* \"#utility.yul\":11830:12249   */\n    tag_65:\n        /* \"#utility.yul\":11996:12000   */\n      0x00\n        /* \"#utility.yul\":12034:12036   */\n      0x20\n        /* \"#utility.yul\":12023:12032   */\n      dup3\n        /* \"#utility.yul\":12019:12037   */\n      add\n        /* \"#utility.yul\":12011:12037   */\n      swap1\n      pop\n        /* \"#utility.yul\":12083:12092   */\n      dup2\n        /* \"#utility.yul\":12077:12081   */\n      dup2\n        /* \"#utility.yul\":12073:12093   */\n      sub\n        /* \"#utility.yul\":12069:12070   */\n      0x00\n        /* \"#utility.yul\":12058:12067   */\n      dup4\n        /* \"#utility.yul\":12054:12071   */\n      add\n        /* \"#utility.yul\":12047:12094   */\n      mstore\n        /* \"#utility.yul\":12111:12242   */\n      tag_363\n        /* \"#utility.yul\":12237:12241   */\n      dup2\n        /* \"#utility.yul\":12111:12242   */\n      tag_204\n      jump\t// in\n    tag_363:\n        /* \"#utility.yul\":12103:12242   */\n      swap1\n      pop\n        /* \"#utility.yul\":11830:12249   */\n      swap2\n      swap1\n      pop\n      jump\t// out\n        /* \"#utility.yul\":12255:12435   */\n    tag_205:\n        /* \"#utility.yul\":12303:12380   */\n      0x4e487b7100000000000000000000000000000000000000000000000000000000\n        /* \"#utility.yul\":12300:12301   */\n      0x00\n        /* \"#utility.yul\":12293:12381   */\n      mstore\n        /* \"#utility.yul\":12400:12404   */\n      0x22\n        /* \"#utility.yul\":12397:12398   */\n      0x04\n        /* \"#utility.yul\":12390:12405   */\n      mstore\n        /* \"#utility.yul\":12424:12428   */\n      0x24\n        /* \"#utility.yul\":12421:12422   */\n      0x00\n        /* \"#utility.yul\":12414:12429   */\n      revert\n        /* \"#utility.yul\":12441:12761   */\n    tag_84:\n        /* \"#utility.yul\":12485:12491   */\n      0x00\n        /* \"#utility.yul\":12522:12523   */\n      0x02\n        /* \"#utility.yul\":12516:12520   */\n      dup3\n        /* \"#utility.yul\":12512:12524   */\n      div\n        /* \"#utility.yul\":12502:12524   */\n      swap1\n      pop\n        /* \"#utility.yul\":12569:12570   */\n      0x01\n        /* \"#utility.yul\":12563:12567   */\n      dup3\n        /* \"#utility.yul\":12559:12571   */\n      and\n        /* \"#utility.yul\":12590:12608   */\n      dup1\n        /* \"#utility.yul\":12580:12661   */\n      tag_366\n      jumpi\n        /* \"#utility.yul\":12646:12650   */\n      0x7f\n        /* \"#utility.yul\":12638:12644   */\n      dup3\n        /* \"#utility.yul\":12634:12651   */\n      and\n        /* \"#utility.yul\":12624:12651   */\n      swap2\n      pop\n        /* \"#utility.yul\":12580:12661   */\n    tag_366:\n        /* \"#utility.yul\":12708:12710   */\n      0x20\n        /* \"#utility.yul\":12700:12706   */\n      dup3\n        /* \"#utility.yul\":12697:12711   */\n      lt\n        /* \"#utility.yul\":12677:12695   */\n      dup2\n        /* \"#utility.yul\":12674:12712   */\n      sub\n        /* \"#utility.yul\":12671:12755   */\n      tag_367\n      jumpi\n        /* \"#utility.yul\":12727:12745   */\n      tag_368\n      tag_205\n      jump\t// in\n    tag_368:\n        /* \"#utility.yul\":12671:12755   */\n    tag_367:\n        /* \"#utility.yul\":12492:12761   */\n      pop\n        /* \"#utility.yul\":12441:12761   */\n      swap2\n      swap1\n      pop\n      jump\t// out\n        /* \"#utility.yul\":12767:12908   */\n    tag_206:\n        /* \"#utility.yul\":12816:12820   */\n      0x00\n        /* \"#utility.yul\":12839:12842   */\n      dup2\n        /* \"#utility.yul\":12831:12842   */\n      swap1\n      pop\n        /* \"#utility.yul\":12862:12865   */\n      dup2\n        /* \"#utility.yul\":12859:12860   */\n      0x00\n        /* \"#utility.yul\":12852:12866   */\n      mstore\n        /* \"#utility.yul\":12896:12900   */\n      0x20\n        /* \"#utility.yul\":12893:12894   */\n      0x00\n        /* \"#utility.yul\":12883:12901   */\n      keccak256\n        /* \"#utility.yul\":12875:12901   */\n      swap1\n      pop\n        /* \"#utility.yul\":12767:12908   */\n      swap2\n      swap1\n      pop\n      jump\t// out\n        /* \"#utility.yul\":12914:13007   */\n    tag_207:\n        /* \"#utility.yul\":12951:12957   */\n      0x00\n        /* \"#utility.yul\":12998:13000   */\n      0x20\n        /* \"#utility.yul\":12993:12995   */\n      0x1f\n        /* \"#utility.yul\":12986:12991   */\n      dup4\n        /* \"#utility.yul\":12982:12996   */\n      add\n        /* \"#utility.yul\":12978:13001   */\n      div\n        /* \"#utility.yul\":12968:13001   */\n      swap1\n      pop\n        /* \"#utility.yul\":12914:13007   */\n      swap2\n      swap1\n      pop\n      jump\t// out\n        /* \"#utility.yul\":13013:13120   */\n    tag_208:\n        /* \"#utility.yul\":13057:13065   */\n      0x00\n        /* \"#utility.yul\":13107:13112   */\n      dup3\n        /* \"#utility.yul\":13101:13105   */\n      dup3\n        /* \"#utility.yul\":13097:13113   */\n      shl\n        /* \"#utility.yul\":13076:13113   */\n      swap1\n      pop\n        /* \"#utility.yul\":13013:13120   */\n      swap3\n      swap2\n      pop\n      pop\n      jump\t// out\n        /* \"#utility.yul\":13126:13519   */\n    tag_209:\n        /* \"#utility.yul\":13195:13201   */\n      0x00\n        /* \"#utility.yul\":13245:13246   */\n      0x08\n        /* \"#utility.yul\":13233:13243   */\n      dup4\n        /* \"#utility.yul\":13229:13247   */\n      mul\n        /* \"#utility.yul\":13268:13365   */\n      tag_373\n        /* \"#utility.yul\":13298:13364   */\n      0xffffffffffffffffffffffffffffffffffffffffffffffffffffffffffffffff\n        /* \"#utility.yul\":13287:13296   */\n      dup3\n        /* \"#utility.yul\":13268:13365   */\n      tag_208\n      jump\t// in\n    tag_373:\n        /* \"#utility.yul\":13386:13425   */\n      tag_374\n        /* \"#utility.yul\":13416:13424   */\n      dup7\n        /* \"#utility.yul\":13405:13414   */\n      dup4\n        /* \"#utility.yul\":13386:13425   */\n      tag_208\n      jump\t// in\n    tag_374:\n        /* \"#utility.yul\":13374:13425   */\n      swap6\n      pop\n        /* \"#utility.yul\":13458:13462   */\n      dup1\n        /* \"#utility.yul\":13454:13463   */\n      not\n        /* \"#utility.yul\":13447:13452   */\n      dup5\n        /* \"#utility.yul\":13443:13464   */\n      and\n        /* \"#utility.yul\":13434:13464   */\n      swap4\n      pop\n        /* \"#utility.yul\":13507:13511   */\n      dup1\n        /* \"#utility.yul\":13497:13505   */\n      dup7\n        /* \"#utility.yul\":13493:13512   */\n      and\n        /* \"#utility.yul\":13486:13491   */\n      dup5\n        /* \"#utility.yul\":13483:13513   */\n      or\n        /* \"#utility.yul\":13473:13513   */\n      swap3\n      pop\n        /* \"#utility.yul\":13202:13519   */\n      pop\n      pop\n        /* \"#utility.yul\":13126:13519   */\n      swap4\n      swap3\n      pop\n      pop\n      pop\n      jump\t// out\n        /* \"#utility.yul\":13525:13585   */\n    tag_210:\n        /* \"#utility.yul\":13553:13556   */\n      0x00\n        /* \"#utility.yul\":13574:13579   */\n      dup2\n        /* \"#utility.yul\":13567:13579   */\n      swap1\n      pop\n        /* \"#utility.yul\":13525:13585   */\n      swap2\n      swap1\n      pop\n      jump\t// out\n        /* \"#utility.yul\":13591:13733   */\n    tag_211:\n        /* \"#utility.yul\":13641:13650   */\n      0x00\n        /* \"#utility.yul\":13674:13727   */\n      tag_377\n        /* \"#utility.yul\":13692:13726   */\n      tag_378\n        /* \"#utility.yul\":13701:13725   */\n      tag_379\n        /* \"#utility.yul\":13719:13724   */\n      dup5\n        /* \"#utility.yul\":13701:13725   */\n      tag_174\n      jump\t// in\n    tag_379:\n        /* \"#utility.yul\":13692:13726   */\n      tag_210\n      jump\t// in\n    tag_378:\n        /* \"#utility.yul\":13674:13727   */\n      tag_174\n      jump\t// in\n    tag_377:\n        /* \"#utility.yul\":13661:13727   */\n      swap1\n      pop\n        /* \"#utility.yul\":13591:13733   */\n      swap2\n      swap1\n      pop\n      jump\t// out\n        /* \"#utility.yul\":13739:13814   */\n    tag_212:\n        /* \"#utility.yul\":13782:13785   */\n      0x00\n        /* \"#utility.yul\":13803:13808   */\n      dup2\n        /* \"#utility.yul\":13796:13808   */\n      swap1\n      pop\n        /* \"#utility.yul\":13739:13814   */\n      swap2\n      swap1\n      pop\n      jump\t// out\n        /* \"#utility.yul\":13820:14089   */\n    tag_213:\n        /* \"#utility.yul\":13930:13969   */\n      tag_382\n        /* \"#utility.yul\":13961:13968   */\n      dup4\n        /* \"#utility.yul\":13930:13969   */\n      tag_211\n      jump\t// in\n    tag_382:\n        /* \"#utility.yul\":13991:14082   */\n      tag_383\n        /* \"#utility.yul\":14040:14081   */\n      tag_384\n        /* \"#utility.yul\":14064:14080   */\n      dup3\n        /* \"#utility.yul\":14040:14081   */\n      tag_212\n      jump\t// in\n    tag_384:\n        /* \"#utility.yul\":14032:14038   */\n      dup5\n        /* \"#utility.yul\":14025:14029   */\n      dup5\n        /* \"#utility.yul\":14019:14030   */\n      sload\n        /* \"#utility.yul\":13991:14082   */\n      tag_209\n      jump\t// in\n    tag_383:\n        /* \"#utility.yul\":13985:13989   */\n      dup3\n        /* \"#utility.yul\":13978:14083   */\n      sstore\n        /* \"#utility.yul\":13896:14089   */\n      pop\n        /* \"#utility.yul\":13820:14089   */\n      pop\n      pop\n      pop\n      jump\t// out\n        /* \"#utility.yul\":14095:14168   */\n    tag_214:\n        /* \"#utility.yul\":14140:14143   */\n      0x00\n        /* \"#utility.yul\":14095:14168   */\n      swap1\n      jump\t// out\n        /* \"#utility.yul\":14174:14363   */\n    tag_215:\n        /* \"#utility.yul\":14251:14283   */\n      tag_387\n      tag_214\n      jump\t// in\n    tag_387:\n        /* \"#utility.yul\":14292:14357   */\n      tag_388\n        /* \"#utility.yul\":14350:14356   */\n      dup2\n        /* \"#utility.yul\":14342:14348   */\n      dup5\n        /* \"#utility.yul\":14336:14340   */\n      dup5\n        /* \"#utility.yul\":14292:14357   */\n      tag_213\n      jump\t// in\n    tag_388:\n        /* \"#utility.yul\":14227:14363   */\n      pop\n        /* \"#utility.yul\":14174:14363   */\n      pop\n      pop\n      jump\t// out\n        /* \"#utility.yul\":14369:14555   */\n    tag_216:\n        /* \"#utility.yul\":14429:14549   */\n    tag_390:\n        /* \"#utility.yul\":14446:14449   */\n      dup2\n        /* \"#utility.yul\":14439:14444   */\n      dup2\n        /* \"#utility.yul\":14436:14450   */\n      lt\n        /* \"#utility.yul\":14429:14549   */\n      iszero\n      tag_392\n      jumpi\n        /* \"#utility.yul\":14500:14539   */\n      tag_393\n        /* \"#utility.yul\":14537:14538   */\n      0x00\n        /* \"#utility.yul\":14530:14535   */\n      dup3\n        /* \"#utility.yul\":14500:14539   */\n      tag_215\n      jump\t// in\n    tag_393:\n        /* \"#utility.yul\":14473:14474   */\n      0x01\n        /* \"#utility.yul\":14466:14471   */\n      dup2\n        /* \"#utility.yul\":14462:14475   */\n      add\n        /* \"#utility.yul\":14453:14475   */\n      swap1\n      pop\n        /* \"#utility.yul\":14429:14549   */\n      jump(tag_390)\n    tag_392:\n        /* \"#utility.yul\":14369:14555   */\n      pop\n      pop\n      jump\t// out\n        /* \"#utility.yul\":14561:15104   */\n    tag_217:\n        /* \"#utility.yul\":14662:14664   */\n      0x1f\n        /* \"#utility.yul\":14657:14660   */\n      dup3\n        /* \"#utility.yul\":14654:14665   */\n      gt\n        /* \"#utility.yul\":14651:15097   */\n      iszero\n      tag_395\n      jumpi\n        /* \"#utility.yul\":14696:14734   */\n      tag_396\n        /* \"#utility.yul\":14728:14733   */\n      dup2\n        /* \"#utility.yul\":14696:14734   */\n      tag_206\n      jump\t// in\n    tag_396:\n        /* \"#utility.yul\":14780:14809   */\n      tag_397\n        /* \"#utility.yul\":14798:14808   */\n      dup5\n        /* \"#utility.yul\":14780:14809   */\n      tag_207\n      jump\t// in\n    tag_397:\n        /* \"#utility.yul\":14770:14778   */\n      dup2\n        /* \"#utility.yul\":14766:14810   */\n      add\n        /* \"#utility.yul\":14963:14965   */\n      0x20\n        /* \"#utility.yul\":14951:14961   */\n      dup6\n        /* \"#utility.yul\":14948:14966   */\n      lt\n        /* \"#utility.yul\":14945:14994   */\n      iszero\n      tag_398\n      jumpi\n        /* \"#utility.yul\":14984:14992   */\n      dup2\n        /* \"#utility.yul\":14969:14992   */\n      swap1\n      pop\n        /* \"#utility.yul\":14945:14994   */\n    tag_398:\n        /* \"#utility.yul\":15007:15087   */\n      tag_399\n        /* \"#utility.yul\":15063:15085   */\n      tag_400\n        /* \"#utility.yul\":15081:15084   */\n      dup6\n        /* \"#utility.yul\":15063:15085   */\n      tag_207\n      jump\t// in\n    tag_400:\n        /* \"#utility.yul\":15053:15061   */\n      dup4\n        /* \"#utility.yul\":15049:15086   */\n      add\n        /* \"#utility.yul\":15036:15047   */\n      dup3\n        /* \"#utility.yul\":15007:15087   */\n      tag_216\n      jump\t// in\n    tag_399:\n        /* \"#utility.yul\":14666:15097   */\n      pop\n      pop\n        /* \"#utility.yul\":14651:15097   */\n    tag_395:\n        /* \"#utility.yul\":14561:15104   */\n      pop\n      pop\n      pop\n      jump\t// out\n        /* \"#utility.yul\":15110:15227   */\n    tag_218:\n        /* \"#utility.yul\":15164:15172   */\n      0x00\n        /* \"#utility.yul\":15214:15219   */\n      dup3\n        /* \"#utility.yul\":15208:15212   */\n      dup3\n        /* \"#utility.yul\":15204:15220   */\n      shr\n        /* \"#utility.yul\":15183:15220   */\n      swap1\n      pop\n        /* \"#utility.yul\":15110:15227   */\n      swap3\n      swap2\n      pop\n      pop\n      jump\t// out\n        /* \"#utility.yul\":15233:15402   */\n    tag_219:\n        /* \"#utility.yul\":15277:15283   */\n      0x00\n        /* \"#utility.yul\":15310:15361   */\n      tag_403\n        /* \"#utility.yul\":15358:15359   */\n      0x00\n        /* \"#utility.yul\":15354:15360   */\n      not\n        /* \"#utility.yul\":15346:15351   */\n      dup5\n        /* \"#utility.yul\":15343:15344   */\n      0x08\n        /* \"#utility.yul\":15339:15352   */\n      mul\n        /* \"#utility.yul\":15310:15361   */\n      tag_218\n      jump\t// in\n    tag_403:\n        /* \"#utility.yul\":15306:15362   */\n      not\n        /* \"#utility.yul\":15391:15395   */\n      dup1\n        /* \"#utility.yul\":15385:15389   */\n      dup4\n        /* \"#utility.yul\":15381:15396   */\n      and\n        /* \"#utility.yul\":15371:15396   */\n      swap2\n      pop\n        /* \"#utility.yul\":15284:15402   */\n      pop\n        /* \"#utility.yul\":15233:15402   */\n      swap3\n      swap2\n      pop\n      pop\n      jump\t// out\n        /* \"#utility.yul\":15407:15702   */\n    tag_220:\n        /* \"#utility.yul\":15483:15487   */\n      0x00\n        /* \"#utility.yul\":15629:15658   */\n      tag_405\n        /* \"#utility.yul\":15654:15657   */\n      dup4\n        /* \"#utility.yul\":15648:15652   */\n      dup4\n        /* \"#utility.yul\":15629:15658   */\n      tag_219\n      jump\t// in\n    tag_405:\n        /* \"#utility.yul\":15621:15658   */\n      swap2\n      pop\n        /* \"#utility.yul\":15691:15694   */\n      dup3\n        /* \"#utility.yul\":15688:15689   */\n      0x02\n        /* \"#utility.yul\":15684:15695   */\n      mul\n        /* \"#utility.yul\":15678:15682   */\n      dup3\n        /* \"#utility.yul\":15675:15696   */\n      or\n        /* \"#utility.yul\":15667:15696   */\n      swap1\n      pop\n        /* \"#utility.yul\":15407:15702   */\n      swap3\n      swap2\n      pop\n      pop\n      jump\t// out\n        /* \"#utility.yul\":15707:17102   */\n    tag_70:\n        /* \"#utility.yul\":15824:15861   */\n      tag_407\n        /* \"#utility.yul\":15857:15860   */\n      dup3\n        /* \"#utility.yul\":15824:15861   */\n      tag_196\n      jump\t// in\n    tag_407:\n        /* \"#utility.yul\":15926:15944   */\n      0xffffffffffffffff\n        /* \"#utility.yul\":15918:15924   */\n      dup2\n        /* \"#utility.yul\":15915:15945   */\n      gt\n        /* \"#utility.yul\":15912:15968   */\n      iszero\n      tag_408\n      jumpi\n        /* \"#utility.yul\":15948:15966   */\n      tag_409\n      tag_186\n      jump\t// in\n    tag_409:\n        /* \"#utility.yul\":15912:15968   */\n    tag_408:\n        /* \"#utility.yul\":15992:16030   */\n      tag_410\n        /* \"#utility.yul\":16024:16028   */\n      dup3\n        /* \"#utility.yul\":16018:16029   */\n      sload\n        /* \"#utility.yul\":15992:16030   */\n      tag_84\n      jump\t// in\n    tag_410:\n        /* \"#utility.yul\":16077:16144   */\n      tag_411\n        /* \"#utility.yul\":16137:16143   */\n      dup3\n        /* \"#utility.yul\":16129:16135   */\n      dup3\n        /* \"#utility.yul\":16123:16127   */\n      dup6\n        /* \"#utility.yul\":16077:16144   */\n      tag_217\n      jump\t// in\n    tag_411:\n        /* \"#utility.yul\":16171:16172   */\n      0x00\n        /* \"#utility.yul\":16195:16199   */\n      0x20\n        /* \"#utility.yul\":16182:16199   */\n      swap1\n      pop\n        /* \"#utility.yul\":16227:16229   */\n      0x1f\n        /* \"#utility.yul\":16219:16225   */\n      dup4\n        /* \"#utility.yul\":16216:16230   */\n      gt\n        /* \"#utility.yul\":16244:16245   */\n      0x01\n        /* \"#utility.yul\":16239:16857   */\n      dup2\n      eq\n      tag_413\n      jumpi\n        /* \"#utility.yul\":16901:16902   */\n      0x00\n        /* \"#utility.yul\":16918:16924   */\n      dup5\n        /* \"#utility.yul\":16915:16992   */\n      iszero\n      tag_414\n      jumpi\n        /* \"#utility.yul\":16967:16976   */\n      dup3\n        /* \"#utility.yul\":16962:16965   */\n      dup8\n        /* \"#utility.yul\":16958:16977   */\n      add\n        /* \"#utility.yul\":16952:16978   */\n      mload\n        /* \"#utility.yul\":16943:16978   */\n      swap1\n      pop\n        /* \"#utility.yul\":16915:16992   */\n    tag_414:\n        /* \"#utility.yul\":17018:17085   */\n      tag_415\n        /* \"#utility.yul\":17078:17084   */\n      dup6\n        /* \"#utility.yul\":17071:17076   */\n      dup3\n        /* \"#utility.yul\":17018:17085   */\n      tag_220\n      jump\t// in\n    tag_415:\n        /* \"#utility.yul\":17012:17016   */\n      dup7\n        /* \"#utility.yul\":17005:17086   */\n      sstore\n        /* \"#utility.yul\":16874:17096   */\n      pop\n        /* \"#utility.yul\":16209:17096   */\n      jump(tag_412)\n        /* \"#utility.yul\":16239:16857   */\n    tag_413:\n        /* \"#utility.yul\":16291:16295   */\n      0x1f\n        /* \"#utility.yul\":16287:16296   */\n      not\n        /* \"#utility.yul\":16279:16285   */\n      dup5\n        /* \"#utility.yul\":16275:16297   */\n      and\n        /* \"#utility.yul\":16325:16362   */\n      tag_416\n        /* \"#utility.yul\":16357:16361   */\n      dup7\n        /* \"#utility.yul\":16325:16362   */\n      tag_206\n      jump\t// in\n    tag_416:\n        /* \"#utility.yul\":16384:16385   */\n      0x00\n        /* \"#utility.yul\":16398:16606   */\n    tag_417:\n        /* \"#utility.yul\":16412:16419   */\n      dup3\n        /* \"#utility.yul\":16409:16410   */\n      dup2\n        /* \"#utility.yul\":16406:16420   */\n      lt\n        /* \"#utility.yul\":16398:16606   */\n      iszero\n      tag_419\n      jumpi\n        /* \"#utility.yul\":16491:16500   */\n      dup5\n        /* \"#utility.yul\":16486:16489   */\n      dup10\n        /* \"#utility.yul\":16482:16501   */\n      add\n        /* \"#utility.yul\":16476:16502   */\n      mload\n        /* \"#utility.yul\":16468:16474   */\n      dup3\n        /* \"#utility.yul\":16461:16503   */\n      sstore\n        /* \"#utility.yul\":16542:16543   */\n      0x01\n        /* \"#utility.yul\":16534:16540   */\n      dup3\n        /* \"#utility.yul\":16530:16544   */\n      add\n        /* \"#utility.yul\":16520:16544   */\n      swap2\n      pop\n        /* \"#utility.yul\":16589:16591   */\n      0x20\n        /* \"#utility.yul\":16578:16587   */\n      dup6\n        /* \"#utility.yul\":16574:16592   */\n      add\n        /* \"#utility.yul\":16561:16592   */\n      swap5\n      pop\n        /* \"#utility.yul\":16435:16439   */\n      0x20\n        /* \"#utility.yul\":16432:16433   */\n      dup2\n        /* \"#utility.yul\":16428:16440   */\n      add\n        /* \"#utility.yul\":16423:16440   */\n      swap1\n      pop\n        /* \"#utility.yul\":16398:16606   */\n      jump(tag_417)\n    tag_419:\n        /* \"#utility.yul\":16634:16640   */\n      dup7\n        /* \"#utility.yul\":16625:16632   */\n      dup4\n        /* \"#utility.yul\":16622:16641   */\n      lt\n        /* \"#utility.yul\":16619:16798   */\n      iszero\n      tag_420\n      jumpi\n        /* \"#utility.yul\":16692:16701   */\n      dup5\n        /* \"#utility.yul\":16687:16690   */\n      dup10\n        /* \"#utility.yul\":16683:16702   */\n      add\n        /* \"#utility.yul\":16677:16703   */\n      mload\n        /* \"#utility.yul\":16735:16783   */\n      tag_421\n        /* \"#utility.yul\":16777:16781   */\n      0x1f\n        /* \"#utility.yul\":16769:16775   */\n      dup10\n        /* \"#utility.yul\":16765:16782   */\n      and\n        /* \"#utility.yul\":16754:16763   */\n      dup3\n        /* \"#utility.yul\":16735:16783   */\n      tag_219\n      jump\t// in\n    tag_421:\n        /* \"#utility.yul\":16727:16733   */\n      dup4\n        /* \"#utility.yul\":16720:16784   */\n      sstore\n        /* \"#utility.yul\":16642:16798   */\n      pop\n        /* \"#utility.yul\":16619:16798   */\n    tag_420:\n        /* \"#utility.yul\":16844:16845   */\n      0x01\n        /* \"#utility.yul\":16840:16841   */\n      0x02\n        /* \"#utility.yul\":16832:16838   */\n      dup9\n        /* \"#utility.yul\":16828:16842   */\n      mul\n        /* \"#utility.yul\":16824:16846   */\n      add\n        /* \"#utility.yul\":16818:16822   */\n      dup9\n        /* \"#utility.yul\":16811:16847   */\n      sstore\n        /* \"#utility.yul\":16246:16857   */\n      pop\n      pop\n      pop\n        /* \"#utility.yul\":16209:17096   */\n    tag_412:\n      pop\n        /* \"#utility.yul\":15799:17102   */\n      pop\n      pop\n      pop\n        /* \"#utility.yul\":15707:17102   */\n      pop\n      pop\n      jump\t// out\n        /* \"#utility.yul\":17108:17332   */\n    tag_221:\n        /* \"#utility.yul\":17248:17282   */\n      0x5065726d697373696f6e206e6f74206772616e74656420627920746865207374\n        /* \"#utility.yul\":17244:17245   */\n      0x00\n        /* \"#utility.yul\":17236:17242   */\n      dup3\n        /* \"#utility.yul\":17232:17246   */\n      add\n        /* \"#utility.yul\":17225:17283   */\n      mstore\n        /* \"#utility.yul\":17317:17324   */\n      0x7564656e74000000000000000000000000000000000000000000000000000000\n        /* \"#utility.yul\":17312:17314   */\n      0x20\n        /* \"#utility.yul\":17304:17310   */\n      dup3\n        /* \"#utility.yul\":17300:17315   */\n      add\n        /* \"#utility.yul\":17293:17325   */\n      mstore\n        /* \"#utility.yul\":17108:17332   */\n      pop\n      jump\t// out\n        /* \"#utility.yul\":17338:17704   */\n    tag_222:\n        /* \"#utility.yul\":17480:17483   */\n      0x00\n        /* \"#utility.yul\":17501:17568   */\n      tag_424\n        /* \"#utility.yul\":17565:17567   */\n      0x25\n        /* \"#utility.yul\":17560:17563   */\n      dup4\n        /* \"#utility.yul\":17501:17568   */\n      tag_197\n      jump\t// in\n    tag_424:\n        /* \"#utility.yul\":17494:17568   */\n      swap2\n      pop\n        /* \"#utility.yul\":17577:17670   */\n      tag_425\n        /* \"#utility.yul\":17666:17669   */\n      dup3\n        /* \"#utility.yul\":17577:17670   */\n      tag_221\n      jump\t// in\n    tag_425:\n        /* \"#utility.yul\":17695:17697   */\n      0x40\n        /* \"#utility.yul\":17690:17693   */\n      dup3\n        /* \"#utility.yul\":17686:17698   */\n      add\n        /* \"#utility.yul\":17679:17698   */\n      swap1\n      pop\n        /* \"#utility.yul\":17338:17704   */\n      swap2\n      swap1\n      pop\n      jump\t// out\n        /* \"#utility.yul\":17710:18129   */\n    tag_82:\n        /* \"#utility.yul\":17876:17880   */\n      0x00\n        /* \"#utility.yul\":17914:17916   */\n      0x20\n        /* \"#utility.yul\":17903:17912   */\n      dup3\n        /* \"#utility.yul\":17899:17917   */\n      add\n        /* \"#utility.yul\":17891:17917   */\n      swap1\n      pop\n        /* \"#utility.yul\":17963:17972   */\n      dup2\n        /* \"#utility.yul\":17957:17961   */\n      dup2\n        /* \"#utility.yul\":17953:17973   */\n      sub\n        /* \"#utility.yul\":17949:17950   */\n      0x00\n        /* \"#utility.yul\":17938:17947   */\n      dup4\n        /* \"#utility.yul\":17934:17951   */\n      add\n        /* \"#utility.yul\":17927:17974   */\n      mstore\n        /* \"#utility.yul\":17991:18122   */\n      tag_427\n        /* \"#utility.yul\":18117:18121   */\n      dup2\n        /* \"#utility.yul\":17991:18122   */\n      tag_222\n      jump\t// in\n    tag_427:\n        /* \"#utility.yul\":17983:18122   */\n      swap1\n      pop\n        /* \"#utility.yul\":17710:18129   */\n      swap2\n      swap1\n      pop\n      jump\t// out\n        /* \"#utility.yul\":18135:18429   */\n    tag_223:\n        /* \"#utility.yul\":18275:18309   */\n      0x456d706c6f79657220646f6573206e6f742068617665207065726d697373696f\n        /* \"#utility.yul\":18271:18272   */\n      0x00\n        /* \"#utility.yul\":18263:18269   */\n      dup3\n        /* \"#utility.yul\":18259:18273   */\n      add\n        /* \"#utility.yul\":18252:18310   */\n      mstore\n        /* \"#utility.yul\":18344:18378   */\n      0x6e20746f2076657269667920746869732073747564656e742773206372656465\n        /* \"#utility.yul\":18339:18341   */\n      0x20\n        /* \"#utility.yul\":18331:18337   */\n      dup3\n        /* \"#utility.yul\":18327:18342   */\n      add\n        /* \"#utility.yul\":18320:18379   */\n      mstore\n        /* \"#utility.yul\":18413:18421   */\n      0x6e7469616c730000000000000000000000000000000000000000000000000000\n        /* \"#utility.yul\":18408:18410   */\n      0x40\n        /* \"#utility.yul\":18400:18406   */\n      dup3\n        /* \"#utility.yul\":18396:18411   */\n      add\n        /* \"#utility.yul\":18389:18422   */\n      mstore\n        /* \"#utility.yul\":18135:18429   */\n      pop\n      jump\t// out\n        /* \"#utility.yul\":18435:18801   */\n    tag_224:\n        /* \"#utility.yul\":18577:18580   */\n      0x00\n        /* \"#utility.yul\":18598:18665   */\n      tag_430\n        /* \"#utility.yul\":18662:18664   */\n      0x46\n        /* \"#utility.yul\":18657:18660   */\n      dup4\n        /* \"#utility.yul\":18598:18665   */\n      tag_197\n      jump\t// in\n    tag_430:\n        /* \"#utility.yul\":18591:18665   */\n      swap2\n      pop\n        /* \"#utility.yul\":18674:18767   */\n      tag_431\n        /* \"#utility.yul\":18763:18766   */\n      dup3\n        /* \"#utility.yul\":18674:18767   */\n      tag_223\n      jump\t// in\n    tag_431:\n        /* \"#utility.yul\":18792:18794   */\n      0x60\n        /* \"#utility.yul\":18787:18790   */\n      dup3\n        /* \"#utility.yul\":18783:18795   */\n      add\n        /* \"#utility.yul\":18776:18795   */\n      swap1\n      pop\n        /* \"#utility.yul\":18435:18801   */\n      swap2\n      swap1\n      pop\n      jump\t// out\n        /* \"#utility.yul\":18807:19226   */\n    tag_117:\n        /* \"#utility.yul\":18973:18977   */\n      0x00\n        /* \"#utility.yul\":19011:19013   */\n      0x20\n        /* \"#utility.yul\":19000:19009   */\n      dup3\n        /* \"#utility.yul\":18996:19014   */\n      add\n        /* \"#utility.yul\":18988:19014   */\n      swap1\n      pop\n        /* \"#utility.yul\":19060:19069   */\n      dup2\n        /* \"#utility.yul\":19054:19058   */\n      dup2\n        /* \"#utility.yul\":19050:19070   */\n      sub\n        /* \"#utility.yul\":19046:19047   */\n      0x00\n        /* \"#utility.yul\":19035:19044   */\n      dup4\n        /* \"#utility.yul\":19031:19048   */\n      add\n        /* \"#utility.yul\":19024:19071   */\n      mstore\n        /* \"#utility.yul\":19088:19219   */\n      tag_433\n        /* \"#utility.yul\":19214:19218   */\n      dup2\n        /* \"#utility.yul\":19088:19219   */\n      tag_224\n      jump\t// in\n    tag_433:\n        /* \"#utility.yul\":19080:19219   */\n      swap1\n      pop\n        /* \"#utility.yul\":18807:19226   */\n      swap2\n      swap1\n      pop\n      jump\t// out\n        /* \"#utility.yul\":19232:19380   */\n    tag_225:\n        /* \"#utility.yul\":19334:19345   */\n      0x00\n        /* \"#utility.yul\":19371:19374   */\n      dup2\n        /* \"#utility.yul\":19356:19374   */\n      swap1\n      pop\n        /* \"#utility.yul\":19232:19380   */\n      swap3\n      swap2\n      pop\n      pop\n      jump\t// out\n        /* \"#utility.yul\":19386:19542   */\n    tag_226:\n        /* \"#utility.yul\":19526:19534   */\n      0x4e616d653a200000000000000000000000000000000000000000000000000000\n        /* \"#utility.yul\":19522:19523   */\n      0x00\n        /* \"#utility.yul\":19514:19520   */\n      dup3\n        /* \"#utility.yul\":19510:19524   */\n      add\n        /* \"#utility.yul\":19503:19535   */\n      mstore\n        /* \"#utility.yul\":19386:19542   */\n      pop\n      jump\t// out\n        /* \"#utility.yul\":19548:19948   */\n    tag_227:\n        /* \"#utility.yul\":19708:19711   */\n      0x00\n        /* \"#utility.yul\":19729:19813   */\n      tag_437\n        /* \"#utility.yul\":19811:19812   */\n      0x06\n        /* \"#utility.yul\":19806:19809   */\n      dup4\n        /* \"#utility.yul\":19729:19813   */\n      tag_225\n      jump\t// in\n    tag_437:\n        /* \"#utility.yul\":19722:19813   */\n      swap2\n      pop\n        /* \"#utility.yul\":19822:19915   */\n      tag_438\n        /* \"#utility.yul\":19911:19914   */\n      dup3\n        /* \"#utility.yul\":19822:19915   */\n      tag_226\n      jump\t// in\n    tag_438:\n        /* \"#utility.yul\":19940:19941   */\n      0x06\n        /* \"#utility.yul\":19935:19938   */\n      dup3\n        /* \"#utility.yul\":19931:19942   */\n      add\n        /* \"#utility.yul\":19924:19942   */\n      swap1\n      pop\n        /* \"#utility.yul\":19548:19948   */\n      swap2\n      swap1\n      pop\n      jump\t// out\n        /* \"#utility.yul\":19954:20344   */\n    tag_228:\n        /* \"#utility.yul\":20060:20063   */\n      0x00\n        /* \"#utility.yul\":20088:20127   */\n      tag_440\n        /* \"#utility.yul\":20121:20126   */\n      dup3\n        /* \"#utility.yul\":20088:20127   */\n      tag_196\n      jump\t// in\n    tag_440:\n        /* \"#utility.yul\":20143:20232   */\n      tag_441\n        /* \"#utility.yul\":20225:20231   */\n      dup2\n        /* \"#utility.yul\":20220:20223   */\n      dup6\n        /* \"#utility.yul\":20143:20232   */\n      tag_225\n      jump\t// in\n    tag_441:\n        /* \"#utility.yul\":20136:20232   */\n      swap4\n      pop\n        /* \"#utility.yul\":20241:20306   */\n      tag_442\n        /* \"#utility.yul\":20299:20305   */\n      dup2\n        /* \"#utility.yul\":20294:20297   */\n      dup6\n        /* \"#utility.yul\":20287:20291   */\n      0x20\n        /* \"#utility.yul\":20280:20285   */\n      dup7\n        /* \"#utility.yul\":20276:20292   */\n      add\n        /* \"#utility.yul\":20241:20306   */\n      tag_198\n      jump\t// in\n    tag_442:\n        /* \"#utility.yul\":20331:20337   */\n      dup1\n        /* \"#utility.yul\":20326:20329   */\n      dup5\n        /* \"#utility.yul\":20322:20338   */\n      add\n        /* \"#utility.yul\":20315:20338   */\n      swap2\n      pop\n        /* \"#utility.yul\":20064:20344   */\n      pop\n        /* \"#utility.yul\":19954:20344   */\n      swap3\n      swap2\n      pop\n      pop\n      jump\t// out\n        /* \"#utility.yul\":20350:20515   */\n    tag_229:\n        /* \"#utility.yul\":20490:20507   */\n      0x2c20496e737469747574696f6e3a200000000000000000000000000000000000\n        /* \"#utility.yul\":20486:20487   */\n      0x00\n        /* \"#utility.yul\":20478:20484   */\n      dup3\n        /* \"#utility.yul\":20474:20488   */\n      add\n        /* \"#utility.yul\":20467:20508   */\n      mstore\n        /* \"#utility.yul\":20350:20515   */\n      pop\n      jump\t// out\n        /* \"#utility.yul\":20521:20923   */\n    tag_230:\n        /* \"#utility.yul\":20681:20684   */\n      0x00\n        /* \"#utility.yul\":20702:20787   */\n      tag_445\n        /* \"#utility.yul\":20784:20786   */\n      0x0f\n        /* \"#utility.yul\":20779:20782   */\n      dup4\n        /* \"#utility.yul\":20702:20787   */\n      tag_225\n      jump\t// in\n    tag_445:\n        /* \"#utility.yul\":20695:20787   */\n      swap2\n      pop\n        /* \"#utility.yul\":20796:20889   */\n      tag_446\n        /* \"#utility.yul\":20885:20888   */\n      dup3\n        /* \"#utility.yul\":20796:20889   */\n      tag_229\n      jump\t// in\n    tag_446:\n        /* \"#utility.yul\":20914:20916   */\n      0x0f\n        /* \"#utility.yul\":20909:20912   */\n      dup3\n        /* \"#utility.yul\":20905:20917   */\n      add\n        /* \"#utility.yul\":20898:20917   */\n      swap1\n      pop\n        /* \"#utility.yul\":20521:20923   */\n      swap2\n      swap1\n      pop\n      jump\t// out\n        /* \"#utility.yul\":20929:21096   */\n    tag_231:\n        /* \"#utility.yul\":21069:21088   */\n      0x2c205175616c696669636174696f6e3a20000000000000000000000000000000\n        /* \"#utility.yul\":21065:21066   */\n      0x00\n        /* \"#utility.yul\":21057:21063   */\n      dup3\n        /* \"#utility.yul\":21053:21067   */\n      add\n        /* \"#utility.yul\":21046:21089   */\n      mstore\n        /* \"#utility.yul\":20929:21096   */\n      pop\n      jump\t// out\n        /* \"#utility.yul\":21102:21504   */\n    tag_232:\n        /* \"#utility.yul\":21262:21265   */\n      0x00\n        /* \"#utility.yul\":21283:21368   */\n      tag_449\n        /* \"#utility.yul\":21365:21367   */\n      0x11\n        /* \"#utility.yul\":21360:21363   */\n      dup4\n        /* \"#utility.yul\":21283:21368   */\n      tag_225\n      jump\t// in\n    tag_449:\n        /* \"#utility.yul\":21276:21368   */\n      swap2\n      pop\n        /* \"#utility.yul\":21377:21470   */\n      tag_450\n        /* \"#utility.yul\":21466:21469   */\n      dup3\n        /* \"#utility.yul\":21377:21470   */\n      tag_231\n      jump\t// in\n    tag_450:\n        /* \"#utility.yul\":21495:21497   */\n      0x11\n        /* \"#utility.yul\":21490:21493   */\n      dup3\n        /* \"#utility.yul\":21486:21498   */\n      add\n        /* \"#utility.yul\":21479:21498   */\n      swap1\n      pop\n        /* \"#utility.yul\":21102:21504   */\n      swap2\n      swap1\n      pop\n      jump\t// out\n        /* \"#utility.yul\":21510:21675   */\n    tag_233:\n        /* \"#utility.yul\":21650:21667   */\n      0x2c2044617465204973737565643a200000000000000000000000000000000000\n        /* \"#utility.yul\":21646:21647   */\n      0x00\n        /* \"#utility.yul\":21638:21644   */\n      dup3\n        /* \"#utility.yul\":21634:21648   */\n      add\n        /* \"#utility.yul\":21627:21668   */\n      mstore\n        /* \"#utility.yul\":21510:21675   */\n      pop\n      jump\t// out\n        /* \"#utility.yul\":21681:22083   */\n    tag_234:\n        /* \"#utility.yul\":21841:21844   */\n      0x00\n        /* \"#utility.yul\":21862:21947   */\n      tag_453\n        /* \"#utility.yul\":21944:21946   */\n      0x0f\n        /* \"#utility.yul\":21939:21942   */\n      dup4\n        /* \"#utility.yul\":21862:21947   */\n      tag_225\n      jump\t// in\n    tag_453:\n        /* \"#utility.yul\":21855:21947   */\n      swap2\n      pop\n        /* \"#utility.yul\":21956:22049   */\n      tag_454\n        /* \"#utility.yul\":22045:22048   */\n      dup3\n        /* \"#utility.yul\":21956:22049   */\n      tag_233\n      jump\t// in\n    tag_454:\n        /* \"#utility.yul\":22074:22076   */\n      0x0f\n        /* \"#utility.yul\":22069:22072   */\n      dup3\n        /* \"#utility.yul\":22065:22077   */\n      add\n        /* \"#utility.yul\":22058:22077   */\n      swap1\n      pop\n        /* \"#utility.yul\":21681:22083   */\n      swap2\n      swap1\n      pop\n      jump\t// out\n        /* \"#utility.yul\":22089:23908   */\n    tag_170:\n        /* \"#utility.yul\":22769:22772   */\n      0x00\n        /* \"#utility.yul\":22791:22939   */\n      tag_456\n        /* \"#utility.yul\":22935:22938   */\n      dup3\n        /* \"#utility.yul\":22791:22939   */\n      tag_227\n      jump\t// in\n    tag_456:\n        /* \"#utility.yul\":22784:22939   */\n      swap2\n      pop\n        /* \"#utility.yul\":22956:23051   */\n      tag_457\n        /* \"#utility.yul\":23047:23050   */\n      dup3\n        /* \"#utility.yul\":23038:23044   */\n      dup8\n        /* \"#utility.yul\":22956:23051   */\n      tag_228\n      jump\t// in\n    tag_457:\n        /* \"#utility.yul\":22949:23051   */\n      swap2\n      pop\n        /* \"#utility.yul\":23068:23216   */\n      tag_458\n        /* \"#utility.yul\":23212:23215   */\n      dup3\n        /* \"#utility.yul\":23068:23216   */\n      tag_230\n      jump\t// in\n    tag_458:\n        /* \"#utility.yul\":23061:23216   */\n      swap2\n      pop\n        /* \"#utility.yul\":23233:23328   */\n      tag_459\n        /* \"#utility.yul\":23324:23327   */\n      dup3\n        /* \"#utility.yul\":23315:23321   */\n      dup7\n        /* \"#utility.yul\":23233:23328   */\n      tag_228\n      jump\t// in\n    tag_459:\n        /* \"#utility.yul\":23226:23328   */\n      swap2\n      pop\n        /* \"#utility.yul\":23345:23493   */\n      tag_460\n        /* \"#utility.yul\":23489:23492   */\n      dup3\n        /* \"#utility.yul\":23345:23493   */\n      tag_232\n      jump\t// in\n    tag_460:\n        /* \"#utility.yul\":23338:23493   */\n      swap2\n      pop\n        /* \"#utility.yul\":23510:23605   */\n      tag_461\n        /* \"#utility.yul\":23601:23604   */\n      dup3\n        /* \"#utility.yul\":23592:23598   */\n      dup6\n        /* \"#utility.yul\":23510:23605   */\n      tag_228\n      jump\t// in\n    tag_461:\n        /* \"#utility.yul\":23503:23605   */\n      swap2\n      pop\n        /* \"#utility.yul\":23622:23770   */\n      tag_462\n        /* \"#utility.yul\":23766:23769   */\n      dup3\n        /* \"#utility.yul\":23622:23770   */\n      tag_234\n      jump\t// in\n    tag_462:\n        /* \"#utility.yul\":23615:23770   */\n      swap2\n      pop\n        /* \"#utility.yul\":23787:23882   */\n      tag_463\n        /* \"#utility.yul\":23878:23881   */\n      dup3\n        /* \"#utility.yul\":23869:23875   */\n      dup5\n        /* \"#utility.yul\":23787:23882   */\n      tag_228\n      jump\t// in\n    tag_463:\n        /* \"#utility.yul\":23780:23882   */\n      swap2\n      pop\n        /* \"#utility.yul\":23899:23902   */\n      dup2\n        /* \"#utility.yul\":23892:23902   */\n      swap1\n      pop\n        /* \"#utility.yul\":22089:23908   */\n      swap6\n      swap5\n      pop\n      pop\n      pop\n      pop\n      pop\n      jump\t// out\n\n    auxdata: 0xa2646970667358221220382c052222c559e7a763a0bebf2c527e4f5a0f2e7d53409d86a7321ad623a8e764736f6c63430008160033\n}\n",
				"bytecode": {
					"linkReferences": {},
					"object": "608060405234801561000f575f80fd5b50611d6a8061001d5f395ff3fe608060405234801561000f575f80fd5b506004361061009c575f3560e01c806344b89e3b1161006457806344b89e3b1461015457806368b549191461017057806392522e9d1461018c57806392642daa146101bc578063e0574e3f146101ec5761009c565b80632cdb559b146100a0578063300ecdb9146100bc5780633207e1c6146100ec5780633ff36d6514610108578063417d6c9914610124575b5f80fd5b6100ba60048036038101906100b591906111b5565b610222565b005b6100d660048036038101906100d191906111b5565b6102c3565b6040516100e3919061120d565b60405180910390f35b610106600480360381019061010191906111b5565b6102ed565b005b610122600480360381019061011d9190611226565b61038d565b005b61013e60048036038101906101399190611251565b610452565b60405161014b919061120d565b60405180910390f35b61016e600480360381019061016991906113eb565b61046f565b005b61018a60048036038101906101859190611251565b61053e565b005b6101a660048036038101906101a19190611226565b610595565b6040516101b3919061158e565b60405180910390f35b6101d660048036038101906101d191906115ae565b6109ca565b6040516101e3919061120d565b60405180910390f35b61020660048036038101906102019190611226565b610dfd565b604051610219979695949392919061160a565b60405180910390f35b600160025f8481526020019081526020015f205f8373ffffffffffffffffffffffffffffffffffffffff1673ffffffffffffffffffffffffffffffffffffffff1681526020019081526020015f205f6101000a81548160ff0219169083151502179055507f6e0403ef2b13328247bf9260ad8dd9c18fb5a18b95ea25de817ca991da05929b82826040516102b79291906116a9565b60405180910390a15050565b6002602052815f5260405f20602052805f5260405f205f915091509054906101000a900460ff1681565b5f60025f8481526020019081526020015f205f8373ffffffffffffffffffffffffffffffffffffffff1673ffffffffffffffffffffffffffffffffffffffff1681526020019081526020015f205f6101000a81548160ff0219169083151502179055507f03dbb2fd6c5a10fc7f258798ab1c05cdbf809152d53996b123435a736f23469482826040516103819291906116a9565b60405180910390a15050565b60015f3373ffffffffffffffffffffffffffffffffffffffff1673ffffffffffffffffffffffffffffffffffffffff1681526020019081526020015f205f9054906101000a900460ff16610416576040517f08c379a000000000000000000000000000000000000000000000000000000000815260040161040d90611740565b60405180910390fd5b7f539186f88413c222585ff95ba62e32a55eb0153d0265293bfe5b2c324935a0a481336040516104479291906116a9565b60405180910390a150565b6001602052805f5260405f205f915054906101000a900460ff1681565b6040518060e00160405280888152602001878152602001868152602001858152602001848152602001838152602001828152505f808981526020019081526020015f205f820151815f015560208201518160010190816104cf9190611958565b5060408201518160020190816104e59190611958565b5060608201518160030190816104fb9190611958565b5060808201518160040190816105119190611958565b5060a08201518160050190816105279190611958565b5060c0820151816006015590505050505050505050565b6001805f8373ffffffffffffffffffffffffffffffffffffffff1673ffffffffffffffffffffffffffffffffffffffff1681526020019081526020015f205f6101000a81548160ff02191690831515021790555050565b606060015f3373ffffffffffffffffffffffffffffffffffffffff1673ffffffffffffffffffffffffffffffffffffffff1681526020019081526020015f205f9054906101000a900460ff16610620576040517f08c379a000000000000000000000000000000000000000000000000000000000815260040161061790611740565b60405180910390fd5b60025f8381526020019081526020015f205f3373ffffffffffffffffffffffffffffffffffffffff1673ffffffffffffffffffffffffffffffffffffffff1681526020019081526020015f205f9054906101000a900460ff166106b8576040517f08c379a00000000000000000000000000000000000000000000000000000000081526004016106af90611a97565b60405180910390fd5b5f805f8481526020019081526020015f206040518060e00160405290815f82015481526020016001820180546106ed9061178b565b80601f01602080910402602001604051908101604052809291908181526020018280546107199061178b565b80156107645780601f1061073b57610100808354040283529160200191610764565b820191905f5260205f20905b81548152906001019060200180831161074757829003601f168201915b5050505050815260200160028201805461077d9061178b565b80601f01602080910402602001604051908101604052809291908181526020018280546107a99061178b565b80156107f45780601f106107cb576101008083540402835291602001916107f4565b820191905f5260205f20905b8154815290600101906020018083116107d757829003601f168201915b5050505050815260200160038201805461080d9061178b565b80601f01602080910402602001604051908101604052809291908181526020018280546108399061178b565b80156108845780601f1061085b57610100808354040283529160200191610884565b820191905f5260205f20905b81548152906001019060200180831161086757829003601f168201915b5050505050815260200160048201805461089d9061178b565b80601f01602080910402602001604051908101604052809291908181526020018280546108c99061178b565b80156109145780601f106108eb57610100808354040283529160200191610914565b820191905f5260205f20905b8154815290600101906020018083116108f757829003601f168201915b5050505050815260200160058201805461092d9061178b565b80601f01602080910402602001604051908101604052809291908181526020018280546109599061178b565b80156109a45780601f1061097b576101008083540402835291602001916109a4565b820191905f5260205f20905b81548152906001019060200180831161098757829003601f168201915b5050505050815260200160068201548152505090506109c2816110d8565b915050919050565b5f60015f3373ffffffffffffffffffffffffffffffffffffffff1673ffffffffffffffffffffffffffffffffffffffff1681526020019081526020015f205f9054906101000a900460ff16610a54576040517f08c379a0000000000000000000000000000000000000000000000000000000008152600401610a4b90611740565b60405180910390fd5b60025f8481526020019081526020015f205f3373ffffffffffffffffffffffffffffffffffffffff1673ffffffffffffffffffffffffffffffffffffffff1681526020019081526020015f205f9054906101000a900460ff16610aec576040517f08c379a0000000000000000000000000000000000000000000000000000000008152600401610ae390611b4b565b60405180910390fd5b5f805f8581526020019081526020015f206040518060e00160405290815f8201548152602001600182018054610b219061178b565b80601f0160208091040260200160405190810160405280929190818152602001828054610b4d9061178b565b8015610b985780601f10610b6f57610100808354040283529160200191610b98565b820191905f5260205f20905b815481529060010190602001808311610b7b57829003601f168201915b50505050508152602001600282018054610bb19061178b565b80601f0160208091040260200160405190810160405280929190818152602001828054610bdd9061178b565b8015610c285780601f10610bff57610100808354040283529160200191610c28565b820191905f5260205f20905b815481529060010190602001808311610c0b57829003601f168201915b50505050508152602001600382018054610c419061178b565b80601f0160208091040260200160405190810160405280929190818152602001828054610c6d9061178b565b8015610cb85780601f10610c8f57610100808354040283529160200191610cb8565b820191905f5260205f20905b815481529060010190602001808311610c9b57829003601f168201915b50505050508152602001600482018054610cd19061178b565b80601f0160208091040260200160405190810160405280929190818152602001828054610cfd9061178b565b8015610d485780601f10610d1f57610100808354040283529160200191610d48565b820191905f5260205f20905b815481529060010190602001808311610d2b57829003601f168201915b50505050508152602001600582018054610d619061178b565b80601f0160208091040260200160405190810160405280929190818152602001828054610d8d9061178b565b8015610dd85780601f10610daf57610100808354040283529160200191610dd8565b820191905f5260205f20905b815481529060010190602001808311610dbb57829003601f168201915b505050505081526020016006820154815250509050828160c001511491505092915050565b5f602052805f5260405f205f91509050805f015490806001018054610e219061178b565b80601f0160208091040260200160405190810160405280929190818152602001828054610e4d9061178b565b8015610e985780601f10610e6f57610100808354040283529160200191610e98565b820191905f5260205f20905b815481529060010190602001808311610e7b57829003601f168201915b505050505090806002018054610ead9061178b565b80601f0160208091040260200160405190810160405280929190818152602001828054610ed99061178b565b8015610f245780601f10610efb57610100808354040283529160200191610f24565b820191905f5260205f20905b815481529060010190602001808311610f0757829003601f168201915b505050505090806003018054610f399061178b565b80601f0160208091040260200160405190810160405280929190818152602001828054610f659061178b565b8015610fb05780601f10610f8757610100808354040283529160200191610fb0565b820191905f5260205f20905b815481529060010190602001808311610f9357829003601f168201915b505050505090806004018054610fc59061178b565b80601f0160208091040260200160405190810160405280929190818152602001828054610ff19061178b565b801561103c5780601f106110135761010080835404028352916020019161103c565b820191905f5260205f20905b81548152906001019060200180831161101f57829003601f168201915b5050505050908060050180546110519061178b565b80601f016020809104026020016040519081016040528092919081815260200182805461107d9061178b565b80156110c85780601f1061109f576101008083540402835291602001916110c8565b820191905f5260205f20905b8154815290600101906020018083116110ab57829003601f168201915b5050505050908060060154905087565b606081602001518260400151836060015184608001516040516020016111019493929190611ccb565b6040516020818303038152906040529050919050565b5f604051905090565b5f80fd5b5f80fd5b5f819050919050565b61113a81611128565b8114611144575f80fd5b50565b5f8135905061115581611131565b92915050565b5f73ffffffffffffffffffffffffffffffffffffffff82169050919050565b5f6111848261115b565b9050919050565b6111948161117a565b811461119e575f80fd5b50565b5f813590506111af8161118b565b92915050565b5f80604083850312156111cb576111ca611120565b5b5f6111d885828601611147565b92505060206111e9858286016111a1565b9150509250929050565b5f8115159050919050565b611207816111f3565b82525050565b5f6020820190506112205f8301846111fe565b92915050565b5f6020828403121561123b5761123a611120565b5b5f61124884828501611147565b91505092915050565b5f6020828403121561126657611265611120565b5b5f611273848285016111a1565b91505092915050565b5f80fd5b5f80fd5b5f601f19601f8301169050919050565b7f4e487b71000000000000000000000000000000000000000000000000000000005f52604160045260245ffd5b6112ca82611284565b810181811067ffffffffffffffff821117156112e9576112e8611294565b5b80604052505050565b5f6112fb611117565b905061130782826112c1565b919050565b5f67ffffffffffffffff82111561132657611325611294565b5b61132f82611284565b9050602081019050919050565b828183375f83830152505050565b5f61135c6113578461130c565b6112f2565b90508281526020810184848401111561137857611377611280565b5b61138384828561133c565b509392505050565b5f82601f83011261139f5761139e61127c565b5b81356113af84826020860161134a565b91505092915050565b5f819050919050565b6113ca816113b8565b81146113d4575f80fd5b50565b5f813590506113e5816113c1565b92915050565b5f805f805f805f60e0888a03121561140657611405611120565b5b5f6114138a828b01611147565b975050602088013567ffffffffffffffff81111561143457611433611124565b5b6114408a828b0161138b565b965050604088013567ffffffffffffffff81111561146157611460611124565b5b61146d8a828b0161138b565b955050606088013567ffffffffffffffff81111561148e5761148d611124565b5b61149a8a828b0161138b565b945050608088013567ffffffffffffffff8111156114bb576114ba611124565b5b6114c78a828b0161138b565b93505060a088013567ffffffffffffffff8111156114e8576114e7611124565b5b6114f48a828b0161138b565b92505060c06115058a828b016113d7565b91505092959891949750929550565b5f81519050919050565b5f82825260208201905092915050565b5f5b8381101561154b578082015181840152602081019050611530565b5f8484015250505050565b5f61156082611514565b61156a818561151e565b935061157a81856020860161152e565b61158381611284565b840191505092915050565b5f6020820190508181035f8301526115a68184611556565b905092915050565b5f80604083850312156115c4576115c3611120565b5b5f6115d185828601611147565b92505060206115e2858286016113d7565b9150509250929050565b6115f581611128565b82525050565b611604816113b8565b82525050565b5f60e08201905061161d5f83018a6115ec565b818103602083015261162f8189611556565b905081810360408301526116438188611556565b905081810360608301526116578187611556565b9050818103608083015261166b8186611556565b905081810360a083015261167f8185611556565b905061168e60c08301846115fb565b98975050505050505050565b6116a38161117a565b82525050565b5f6040820190506116bc5f8301856115ec565b6116c9602083018461169a565b9392505050565b7f43616c6c6572206973206e6f7420616e20617574686f726973656420656d706c5f8201527f6f79657200000000000000000000000000000000000000000000000000000000602082015250565b5f61172a60248361151e565b9150611735826116d0565b604082019050919050565b5f6020820190508181035f8301526117578161171e565b9050919050565b7f4e487b71000000000000000000000000000000000000000000000000000000005f52602260045260245ffd5b5f60028204905060018216806117a257607f821691505b6020821081036117b5576117b461175e565b5b50919050565b5f819050815f5260205f209050919050565b5f6020601f8301049050919050565b5f82821b905092915050565b5f600883026118177fffffffffffffffffffffffffffffffffffffffffffffffffffffffffffffffff826117dc565b61182186836117dc565b95508019841693508086168417925050509392505050565b5f819050919050565b5f61185c61185761185284611128565b611839565b611128565b9050919050565b5f819050919050565b61187583611842565b61188961188182611863565b8484546117e8565b825550505050565b5f90565b61189d611891565b6118a881848461186c565b505050565b5b818110156118cb576118c05f82611895565b6001810190506118ae565b5050565b601f821115611910576118e1816117bb565b6118ea846117cd565b810160208510156118f9578190505b61190d611905856117cd565b8301826118ad565b50505b505050565b5f82821c905092915050565b5f6119305f1984600802611915565b1980831691505092915050565b5f6119488383611921565b9150826002028217905092915050565b61196182611514565b67ffffffffffffffff81111561197a57611979611294565b5b611984825461178b565b61198f8282856118cf565b5f60209050601f8311600181146119c0575f84156119ae578287015190505b6119b8858261193d565b865550611a1f565b601f1984166119ce866117bb565b5f5b828110156119f5578489015182556001820191506020850194506020810190506119d0565b86831015611a125784890151611a0e601f891682611921565b8355505b6001600288020188555050505b505050505050565b7f5065726d697373696f6e206e6f74206772616e746564206279207468652073745f8201527f7564656e74000000000000000000000000000000000000000000000000000000602082015250565b5f611a8160258361151e565b9150611a8c82611a27565b604082019050919050565b5f6020820190508181035f830152611aae81611a75565b9050919050565b7f456d706c6f79657220646f6573206e6f742068617665207065726d697373696f5f8201527f6e20746f2076657269667920746869732073747564656e74277320637265646560208201527f6e7469616c730000000000000000000000000000000000000000000000000000604082015250565b5f611b3560468361151e565b9150611b4082611ab5565b606082019050919050565b5f6020820190508181035f830152611b6281611b29565b9050919050565b5f81905092915050565b7f4e616d653a2000000000000000000000000000000000000000000000000000005f82015250565b5f611ba7600683611b69565b9150611bb282611b73565b600682019050919050565b5f611bc782611514565b611bd18185611b69565b9350611be181856020860161152e565b80840191505092915050565b7f2c20496e737469747574696f6e3a2000000000000000000000000000000000005f82015250565b5f611c21600f83611b69565b9150611c2c82611bed565b600f82019050919050565b7f2c205175616c696669636174696f6e3a200000000000000000000000000000005f82015250565b5f611c6b601183611b69565b9150611c7682611c37565b601182019050919050565b7f2c2044617465204973737565643a2000000000000000000000000000000000005f82015250565b5f611cb5600f83611b69565b9150611cc082611c81565b600f82019050919050565b5f611cd582611b9b565b9150611ce18287611bbd565b9150611cec82611c15565b9150611cf88286611bbd565b9150611d0382611c5f565b9150611d0f8285611bbd565b9150611d1a82611ca9565b9150611d268284611bbd565b91508190509594505050505056fea2646970667358221220382c052222c559e7a763a0bebf2c527e4f5a0f2e7d53409d86a7321ad623a8e764736f6c63430008160033",
					"opcodes": "PUSH1 0x80 PUSH1 0x40 MSTORE CALLVALUE DUP1 ISZERO PUSH2 0xF JUMPI PUSH0 DUP1 REVERT JUMPDEST POP PUSH2 0x1D6A DUP1 PUSH2 0x1D PUSH0 CODECOPY PUSH0 RETURN INVALID PUSH1 0x80 PUSH1 0x40 MSTORE CALLVALUE DUP1 ISZERO PUSH2 0xF JUMPI PUSH0 DUP1 REVERT JUMPDEST POP PUSH1 0x4 CALLDATASIZE LT PUSH2 0x9C JUMPI PUSH0 CALLDATALOAD PUSH1 0xE0 SHR DUP1 PUSH4 0x44B89E3B GT PUSH2 0x64 JUMPI DUP1 PUSH4 0x44B89E3B EQ PUSH2 0x154 JUMPI DUP1 PUSH4 0x68B54919 EQ PUSH2 0x170 JUMPI DUP1 PUSH4 0x92522E9D EQ PUSH2 0x18C JUMPI DUP1 PUSH4 0x92642DAA EQ PUSH2 0x1BC JUMPI DUP1 PUSH4 0xE0574E3F EQ PUSH2 0x1EC JUMPI PUSH2 0x9C JUMP JUMPDEST DUP1 PUSH4 0x2CDB559B EQ PUSH2 0xA0 JUMPI DUP1 PUSH4 0x300ECDB9 EQ PUSH2 0xBC JUMPI DUP1 PUSH4 0x3207E1C6 EQ PUSH2 0xEC JUMPI DUP1 PUSH4 0x3FF36D65 EQ PUSH2 0x108 JUMPI DUP1 PUSH4 0x417D6C99 EQ PUSH2 0x124 JUMPI JUMPDEST PUSH0 DUP1 REVERT JUMPDEST PUSH2 0xBA PUSH1 0x4 DUP1 CALLDATASIZE SUB DUP2 ADD SWAP1 PUSH2 0xB5 SWAP2 SWAP1 PUSH2 0x11B5 JUMP JUMPDEST PUSH2 0x222 JUMP JUMPDEST STOP JUMPDEST PUSH2 0xD6 PUSH1 0x4 DUP1 CALLDATASIZE SUB DUP2 ADD SWAP1 PUSH2 0xD1 SWAP2 SWAP1 PUSH2 0x11B5 JUMP JUMPDEST PUSH2 0x2C3 JUMP JUMPDEST PUSH1 0x40 MLOAD PUSH2 0xE3 SWAP2 SWAP1 PUSH2 0x120D JUMP JUMPDEST PUSH1 0x40 MLOAD DUP1 SWAP2 SUB SWAP1 RETURN JUMPDEST PUSH2 0x106 PUSH1 0x4 DUP1 CALLDATASIZE SUB DUP2 ADD SWAP1 PUSH2 0x101 SWAP2 SWAP1 PUSH2 0x11B5 JUMP JUMPDEST PUSH2 0x2ED JUMP JUMPDEST STOP JUMPDEST PUSH2 0x122 PUSH1 0x4 DUP1 CALLDATASIZE SUB DUP2 ADD SWAP1 PUSH2 0x11D SWAP2 SWAP1 PUSH2 0x1226 JUMP JUMPDEST PUSH2 0x38D JUMP JUMPDEST STOP JUMPDEST PUSH2 0x13E PUSH1 0x4 DUP1 CALLDATASIZE SUB DUP2 ADD SWAP1 PUSH2 0x139 SWAP2 SWAP1 PUSH2 0x1251 JUMP JUMPDEST PUSH2 0x452 JUMP JUMPDEST PUSH1 0x40 MLOAD PUSH2 0x14B SWAP2 SWAP1 PUSH2 0x120D JUMP JUMPDEST PUSH1 0x40 MLOAD DUP1 SWAP2 SUB SWAP1 RETURN JUMPDEST PUSH2 0x16E PUSH1 0x4 DUP1 CALLDATASIZE SUB DUP2 ADD SWAP1 PUSH2 0x169 SWAP2 SWAP1 PUSH2 0x13EB JUMP JUMPDEST PUSH2 0x46F JUMP JUMPDEST STOP JUMPDEST PUSH2 0x18A PUSH1 0x4 DUP1 CALLDATASIZE SUB DUP2 ADD SWAP1 PUSH2 0x185 SWAP2 SWAP1 PUSH2 0x1251 JUMP JUMPDEST PUSH2 0x53E JUMP JUMPDEST STOP JUMPDEST PUSH2 0x1A6 PUSH1 0x4 DUP1 CALLDATASIZE SUB DUP2 ADD SWAP1 PUSH2 0x1A1 SWAP2 SWAP1 PUSH2 0x1226 JUMP JUMPDEST PUSH2 0x595 JUMP JUMPDEST PUSH1 0x40 MLOAD PUSH2 0x1B3 SWAP2 SWAP1 PUSH2 0x158E JUMP JUMPDEST PUSH1 0x40 MLOAD DUP1 SWAP2 SUB SWAP1 RETURN JUMPDEST PUSH2 0x1D6 PUSH1 0x4 DUP1 CALLDATASIZE SUB DUP2 ADD SWAP1 PUSH2 0x1D1 SWAP2 SWAP1 PUSH2 0x15AE JUMP JUMPDEST PUSH2 0x9CA JUMP JUMPDEST PUSH1 0x40 MLOAD PUSH2 0x1E3 SWAP2 SWAP1 PUSH2 0x120D JUMP JUMPDEST PUSH1 0x40 MLOAD DUP1 SWAP2 SUB SWAP1 RETURN JUMPDEST PUSH2 0x206 PUSH1 0x4 DUP1 CALLDATASIZE SUB DUP2 ADD SWAP1 PUSH2 0x201 SWAP2 SWAP1 PUSH2 0x1226 JUMP JUMPDEST PUSH2 0xDFD JUMP JUMPDEST PUSH1 0x40 MLOAD PUSH2 0x219 SWAP8 SWAP7 SWAP6 SWAP5 SWAP4 SWAP3 SWAP2 SWAP1 PUSH2 0x160A JUMP JUMPDEST PUSH1 0x40 MLOAD DUP1 SWAP2 SUB SWAP1 RETURN JUMPDEST PUSH1 0x1 PUSH1 0x2 PUSH0 DUP5 DUP2 MSTORE PUSH1 0x20 ADD SWAP1 DUP2 MSTORE PUSH1 0x20 ADD PUSH0 KECCAK256 PUSH0 DUP4 PUSH20 0xFFFFFFFFFFFFFFFFFFFFFFFFFFFFFFFFFFFFFFFF AND PUSH20 0xFFFFFFFFFFFFFFFFFFFFFFFFFFFFFFFFFFFFFFFF AND DUP2 MSTORE PUSH1 0x20 ADD SWAP1 DUP2 MSTORE PUSH1 0x20 ADD PUSH0 KECCAK256 PUSH0 PUSH2 0x100 EXP DUP2 SLOAD DUP2 PUSH1 0xFF MUL NOT AND SWAP1 DUP4 ISZERO ISZERO MUL OR SWAP1 SSTORE POP PUSH32 0x6E0403EF2B13328247BF9260AD8DD9C18FB5A18B95EA25DE817CA991DA05929B DUP3 DUP3 PUSH1 0x40 MLOAD PUSH2 0x2B7 SWAP3 SWAP2 SWAP1 PUSH2 0x16A9 JUMP JUMPDEST PUSH1 0x40 MLOAD DUP1 SWAP2 SUB SWAP1 LOG1 POP POP JUMP JUMPDEST PUSH1 0x2 PUSH1 0x20 MSTORE DUP2 PUSH0 MSTORE PUSH1 0x40 PUSH0 KECCAK256 PUSH1 0x20 MSTORE DUP1 PUSH0 MSTORE PUSH1 0x40 PUSH0 KECCAK256 PUSH0 SWAP2 POP SWAP2 POP SWAP1 SLOAD SWAP1 PUSH2 0x100 EXP SWAP1 DIV PUSH1 0xFF AND DUP2 JUMP JUMPDEST PUSH0 PUSH1 0x2 PUSH0 DUP5 DUP2 MSTORE PUSH1 0x20 ADD SWAP1 DUP2 MSTORE PUSH1 0x20 ADD PUSH0 KECCAK256 PUSH0 DUP4 PUSH20 0xFFFFFFFFFFFFFFFFFFFFFFFFFFFFFFFFFFFFFFFF AND PUSH20 0xFFFFFFFFFFFFFFFFFFFFFFFFFFFFFFFFFFFFFFFF AND DUP2 MSTORE PUSH1 0x20 ADD SWAP1 DUP2 MSTORE PUSH1 0x20 ADD PUSH0 KECCAK256 PUSH0 PUSH2 0x100 EXP DUP2 SLOAD DUP2 PUSH1 0xFF MUL NOT AND SWAP1 DUP4 ISZERO ISZERO MUL OR SWAP1 SSTORE POP PUSH32 0x3DBB2FD6C5A10FC7F258798AB1C05CDBF809152D53996B123435A736F234694 DUP3 DUP3 PUSH1 0x40 MLOAD PUSH2 0x381 SWAP3 SWAP2 SWAP1 PUSH2 0x16A9 JUMP JUMPDEST PUSH1 0x40 MLOAD DUP1 SWAP2 SUB SWAP1 LOG1 POP POP JUMP JUMPDEST PUSH1 0x1 PUSH0 CALLER PUSH20 0xFFFFFFFFFFFFFFFFFFFFFFFFFFFFFFFFFFFFFFFF AND PUSH20 0xFFFFFFFFFFFFFFFFFFFFFFFFFFFFFFFFFFFFFFFF AND DUP2 MSTORE PUSH1 0x20 ADD SWAP1 DUP2 MSTORE PUSH1 0x20 ADD PUSH0 KECCAK256 PUSH0 SWAP1 SLOAD SWAP1 PUSH2 0x100 EXP SWAP1 DIV PUSH1 0xFF AND PUSH2 0x416 JUMPI PUSH1 0x40 MLOAD PUSH32 0x8C379A000000000000000000000000000000000000000000000000000000000 DUP2 MSTORE PUSH1 0x4 ADD PUSH2 0x40D SWAP1 PUSH2 0x1740 JUMP JUMPDEST PUSH1 0x40 MLOAD DUP1 SWAP2 SUB SWAP1 REVERT JUMPDEST PUSH32 0x539186F88413C222585FF95BA62E32A55EB0153D0265293BFE5B2C324935A0A4 DUP2 CALLER PUSH1 0x40 MLOAD PUSH2 0x447 SWAP3 SWAP2 SWAP1 PUSH2 0x16A9 JUMP JUMPDEST PUSH1 0x40 MLOAD DUP1 SWAP2 SUB SWAP1 LOG1 POP JUMP JUMPDEST PUSH1 0x1 PUSH1 0x20 MSTORE DUP1 PUSH0 MSTORE PUSH1 0x40 PUSH0 KECCAK256 PUSH0 SWAP2 POP SLOAD SWAP1 PUSH2 0x100 EXP SWAP1 DIV PUSH1 0xFF AND DUP2 JUMP JUMPDEST PUSH1 0x40 MLOAD DUP1 PUSH1 0xE0 ADD PUSH1 0x40 MSTORE DUP1 DUP9 DUP2 MSTORE PUSH1 0x20 ADD DUP8 DUP2 MSTORE PUSH1 0x20 ADD DUP7 DUP2 MSTORE PUSH1 0x20 ADD DUP6 DUP2 MSTORE PUSH1 0x20 ADD DUP5 DUP2 MSTORE PUSH1 0x20 ADD DUP4 DUP2 MSTORE PUSH1 0x20 ADD DUP3 DUP2 MSTORE POP PUSH0 DUP1 DUP10 DUP2 MSTORE PUSH1 0x20 ADD SWAP1 DUP2 MSTORE PUSH1 0x20 ADD PUSH0 KECCAK256 PUSH0 DUP3 ADD MLOAD DUP2 PUSH0 ADD SSTORE PUSH1 0x20 DUP3 ADD MLOAD DUP2 PUSH1 0x1 ADD SWAP1 DUP2 PUSH2 0x4CF SWAP2 SWAP1 PUSH2 0x1958 JUMP JUMPDEST POP PUSH1 0x40 DUP3 ADD MLOAD DUP2 PUSH1 0x2 ADD SWAP1 DUP2 PUSH2 0x4E5 SWAP2 SWAP1 PUSH2 0x1958 JUMP JUMPDEST POP PUSH1 0x60 DUP3 ADD MLOAD DUP2 PUSH1 0x3 ADD SWAP1 DUP2 PUSH2 0x4FB SWAP2 SWAP1 PUSH2 0x1958 JUMP JUMPDEST POP PUSH1 0x80 DUP3 ADD MLOAD DUP2 PUSH1 0x4 ADD SWAP1 DUP2 PUSH2 0x511 SWAP2 SWAP1 PUSH2 0x1958 JUMP JUMPDEST POP PUSH1 0xA0 DUP3 ADD MLOAD DUP2 PUSH1 0x5 ADD SWAP1 DUP2 PUSH2 0x527 SWAP2 SWAP1 PUSH2 0x1958 JUMP JUMPDEST POP PUSH1 0xC0 DUP3 ADD MLOAD DUP2 PUSH1 0x6 ADD SSTORE SWAP1 POP POP POP POP POP POP POP POP POP JUMP JUMPDEST PUSH1 0x1 DUP1 PUSH0 DUP4 PUSH20 0xFFFFFFFFFFFFFFFFFFFFFFFFFFFFFFFFFFFFFFFF AND PUSH20 0xFFFFFFFFFFFFFFFFFFFFFFFFFFFFFFFFFFFFFFFF AND DUP2 MSTORE PUSH1 0x20 ADD SWAP1 DUP2 MSTORE PUSH1 0x20 ADD PUSH0 KECCAK256 PUSH0 PUSH2 0x100 EXP DUP2 SLOAD DUP2 PUSH1 0xFF MUL NOT AND SWAP1 DUP4 ISZERO ISZERO MUL OR SWAP1 SSTORE POP POP JUMP JUMPDEST PUSH1 0x60 PUSH1 0x1 PUSH0 CALLER PUSH20 0xFFFFFFFFFFFFFFFFFFFFFFFFFFFFFFFFFFFFFFFF AND PUSH20 0xFFFFFFFFFFFFFFFFFFFFFFFFFFFFFFFFFFFFFFFF AND DUP2 MSTORE PUSH1 0x20 ADD SWAP1 DUP2 MSTORE PUSH1 0x20 ADD PUSH0 KECCAK256 PUSH0 SWAP1 SLOAD SWAP1 PUSH2 0x100 EXP SWAP1 DIV PUSH1 0xFF AND PUSH2 0x620 JUMPI PUSH1 0x40 MLOAD PUSH32 0x8C379A000000000000000000000000000000000000000000000000000000000 DUP2 MSTORE PUSH1 0x4 ADD PUSH2 0x617 SWAP1 PUSH2 0x1740 JUMP JUMPDEST PUSH1 0x40 MLOAD DUP1 SWAP2 SUB SWAP1 REVERT JUMPDEST PUSH1 0x2 PUSH0 DUP4 DUP2 MSTORE PUSH1 0x20 ADD SWAP1 DUP2 MSTORE PUSH1 0x20 ADD PUSH0 KECCAK256 PUSH0 CALLER PUSH20 0xFFFFFFFFFFFFFFFFFFFFFFFFFFFFFFFFFFFFFFFF AND PUSH20 0xFFFFFFFFFFFFFFFFFFFFFFFFFFFFFFFFFFFFFFFF AND DUP2 MSTORE PUSH1 0x20 ADD SWAP1 DUP2 MSTORE PUSH1 0x20 ADD PUSH0 KECCAK256 PUSH0 SWAP1 SLOAD SWAP1 PUSH2 0x100 EXP SWAP1 DIV PUSH1 0xFF AND PUSH2 0x6B8 JUMPI PUSH1 0x40 MLOAD PUSH32 0x8C379A000000000000000000000000000000000000000000000000000000000 DUP2 MSTORE PUSH1 0x4 ADD PUSH2 0x6AF SWAP1 PUSH2 0x1A97 JUMP JUMPDEST PUSH1 0x40 MLOAD DUP1 SWAP2 SUB SWAP1 REVERT JUMPDEST PUSH0 DUP1 PUSH0 DUP5 DUP2 MSTORE PUSH1 0x20 ADD SWAP1 DUP2 MSTORE PUSH1 0x20 ADD PUSH0 KECCAK256 PUSH1 0x40 MLOAD DUP1 PUSH1 0xE0 ADD PUSH1 0x40 MSTORE SWAP1 DUP2 PUSH0 DUP3 ADD SLOAD DUP2 MSTORE PUSH1 0x20 ADD PUSH1 0x1 DUP3 ADD DUP1 SLOAD PUSH2 0x6ED SWAP1 PUSH2 0x178B JUMP JUMPDEST DUP1 PUSH1 0x1F ADD PUSH1 0x20 DUP1 SWAP2 DIV MUL PUSH1 0x20 ADD PUSH1 0x40 MLOAD SWAP1 DUP2 ADD PUSH1 0x40 MSTORE DUP1 SWAP3 SWAP2 SWAP1 DUP2 DUP2 MSTORE PUSH1 0x20 ADD DUP3 DUP1 SLOAD PUSH2 0x719 SWAP1 PUSH2 0x178B JUMP JUMPDEST DUP1 ISZERO PUSH2 0x764 JUMPI DUP1 PUSH1 0x1F LT PUSH2 0x73B JUMPI PUSH2 0x100 DUP1 DUP4 SLOAD DIV MUL DUP4 MSTORE SWAP2 PUSH1 0x20 ADD SWAP2 PUSH2 0x764 JUMP JUMPDEST DUP3 ADD SWAP2 SWAP1 PUSH0 MSTORE PUSH1 0x20 PUSH0 KECCAK256 SWAP1 JUMPDEST DUP2 SLOAD DUP2 MSTORE SWAP1 PUSH1 0x1 ADD SWAP1 PUSH1 0x20 ADD DUP1 DUP4 GT PUSH2 0x747 JUMPI DUP3 SWAP1 SUB PUSH1 0x1F AND DUP3 ADD SWAP2 JUMPDEST POP POP POP POP POP DUP2 MSTORE PUSH1 0x20 ADD PUSH1 0x2 DUP3 ADD DUP1 SLOAD PUSH2 0x77D SWAP1 PUSH2 0x178B JUMP JUMPDEST DUP1 PUSH1 0x1F ADD PUSH1 0x20 DUP1 SWAP2 DIV MUL PUSH1 0x20 ADD PUSH1 0x40 MLOAD SWAP1 DUP2 ADD PUSH1 0x40 MSTORE DUP1 SWAP3 SWAP2 SWAP1 DUP2 DUP2 MSTORE PUSH1 0x20 ADD DUP3 DUP1 SLOAD PUSH2 0x7A9 SWAP1 PUSH2 0x178B JUMP JUMPDEST DUP1 ISZERO PUSH2 0x7F4 JUMPI DUP1 PUSH1 0x1F LT PUSH2 0x7CB JUMPI PUSH2 0x100 DUP1 DUP4 SLOAD DIV MUL DUP4 MSTORE SWAP2 PUSH1 0x20 ADD SWAP2 PUSH2 0x7F4 JUMP JUMPDEST DUP3 ADD SWAP2 SWAP1 PUSH0 MSTORE PUSH1 0x20 PUSH0 KECCAK256 SWAP1 JUMPDEST DUP2 SLOAD DUP2 MSTORE SWAP1 PUSH1 0x1 ADD SWAP1 PUSH1 0x20 ADD DUP1 DUP4 GT PUSH2 0x7D7 JUMPI DUP3 SWAP1 SUB PUSH1 0x1F AND DUP3 ADD SWAP2 JUMPDEST POP POP POP POP POP DUP2 MSTORE PUSH1 0x20 ADD PUSH1 0x3 DUP3 ADD DUP1 SLOAD PUSH2 0x80D SWAP1 PUSH2 0x178B JUMP JUMPDEST DUP1 PUSH1 0x1F ADD PUSH1 0x20 DUP1 SWAP2 DIV MUL PUSH1 0x20 ADD PUSH1 0x40 MLOAD SWAP1 DUP2 ADD PUSH1 0x40 MSTORE DUP1 SWAP3 SWAP2 SWAP1 DUP2 DUP2 MSTORE PUSH1 0x20 ADD DUP3 DUP1 SLOAD PUSH2 0x839 SWAP1 PUSH2 0x178B JUMP JUMPDEST DUP1 ISZERO PUSH2 0x884 JUMPI DUP1 PUSH1 0x1F LT PUSH2 0x85B JUMPI PUSH2 0x100 DUP1 DUP4 SLOAD DIV MUL DUP4 MSTORE SWAP2 PUSH1 0x20 ADD SWAP2 PUSH2 0x884 JUMP JUMPDEST DUP3 ADD SWAP2 SWAP1 PUSH0 MSTORE PUSH1 0x20 PUSH0 KECCAK256 SWAP1 JUMPDEST DUP2 SLOAD DUP2 MSTORE SWAP1 PUSH1 0x1 ADD SWAP1 PUSH1 0x20 ADD DUP1 DUP4 GT PUSH2 0x867 JUMPI DUP3 SWAP1 SUB PUSH1 0x1F AND DUP3 ADD SWAP2 JUMPDEST POP POP POP POP POP DUP2 MSTORE PUSH1 0x20 ADD PUSH1 0x4 DUP3 ADD DUP1 SLOAD PUSH2 0x89D SWAP1 PUSH2 0x178B JUMP JUMPDEST DUP1 PUSH1 0x1F ADD PUSH1 0x20 DUP1 SWAP2 DIV MUL PUSH1 0x20 ADD PUSH1 0x40 MLOAD SWAP1 DUP2 ADD PUSH1 0x40 MSTORE DUP1 SWAP3 SWAP2 SWAP1 DUP2 DUP2 MSTORE PUSH1 0x20 ADD DUP3 DUP1 SLOAD PUSH2 0x8C9 SWAP1 PUSH2 0x178B JUMP JUMPDEST DUP1 ISZERO PUSH2 0x914 JUMPI DUP1 PUSH1 0x1F LT PUSH2 0x8EB JUMPI PUSH2 0x100 DUP1 DUP4 SLOAD DIV MUL DUP4 MSTORE SWAP2 PUSH1 0x20 ADD SWAP2 PUSH2 0x914 JUMP JUMPDEST DUP3 ADD SWAP2 SWAP1 PUSH0 MSTORE PUSH1 0x20 PUSH0 KECCAK256 SWAP1 JUMPDEST DUP2 SLOAD DUP2 MSTORE SWAP1 PUSH1 0x1 ADD SWAP1 PUSH1 0x20 ADD DUP1 DUP4 GT PUSH2 0x8F7 JUMPI DUP3 SWAP1 SUB PUSH1 0x1F AND DUP3 ADD SWAP2 JUMPDEST POP POP POP POP POP DUP2 MSTORE PUSH1 0x20 ADD PUSH1 0x5 DUP3 ADD DUP1 SLOAD PUSH2 0x92D SWAP1 PUSH2 0x178B JUMP JUMPDEST DUP1 PUSH1 0x1F ADD PUSH1 0x20 DUP1 SWAP2 DIV MUL PUSH1 0x20 ADD PUSH1 0x40 MLOAD SWAP1 DUP2 ADD PUSH1 0x40 MSTORE DUP1 SWAP3 SWAP2 SWAP1 DUP2 DUP2 MSTORE PUSH1 0x20 ADD DUP3 DUP1 SLOAD PUSH2 0x959 SWAP1 PUSH2 0x178B JUMP JUMPDEST DUP1 ISZERO PUSH2 0x9A4 JUMPI DUP1 PUSH1 0x1F LT PUSH2 0x97B JUMPI PUSH2 0x100 DUP1 DUP4 SLOAD DIV MUL DUP4 MSTORE SWAP2 PUSH1 0x20 ADD SWAP2 PUSH2 0x9A4 JUMP JUMPDEST DUP3 ADD SWAP2 SWAP1 PUSH0 MSTORE PUSH1 0x20 PUSH0 KECCAK256 SWAP1 JUMPDEST DUP2 SLOAD DUP2 MSTORE SWAP1 PUSH1 0x1 ADD SWAP1 PUSH1 0x20 ADD DUP1 DUP4 GT PUSH2 0x987 JUMPI DUP3 SWAP1 SUB PUSH1 0x1F AND DUP3 ADD SWAP2 JUMPDEST POP POP POP POP POP DUP2 MSTORE PUSH1 0x20 ADD PUSH1 0x6 DUP3 ADD SLOAD DUP2 MSTORE POP POP SWAP1 POP PUSH2 0x9C2 DUP2 PUSH2 0x10D8 JUMP JUMPDEST SWAP2 POP POP SWAP2 SWAP1 POP JUMP JUMPDEST PUSH0 PUSH1 0x1 PUSH0 CALLER PUSH20 0xFFFFFFFFFFFFFFFFFFFFFFFFFFFFFFFFFFFFFFFF AND PUSH20 0xFFFFFFFFFFFFFFFFFFFFFFFFFFFFFFFFFFFFFFFF AND DUP2 MSTORE PUSH1 0x20 ADD SWAP1 DUP2 MSTORE PUSH1 0x20 ADD PUSH0 KECCAK256 PUSH0 SWAP1 SLOAD SWAP1 PUSH2 0x100 EXP SWAP1 DIV PUSH1 0xFF AND PUSH2 0xA54 JUMPI PUSH1 0x40 MLOAD PUSH32 0x8C379A000000000000000000000000000000000000000000000000000000000 DUP2 MSTORE PUSH1 0x4 ADD PUSH2 0xA4B SWAP1 PUSH2 0x1740 JUMP JUMPDEST PUSH1 0x40 MLOAD DUP1 SWAP2 SUB SWAP1 REVERT JUMPDEST PUSH1 0x2 PUSH0 DUP5 DUP2 MSTORE PUSH1 0x20 ADD SWAP1 DUP2 MSTORE PUSH1 0x20 ADD PUSH0 KECCAK256 PUSH0 CALLER PUSH20 0xFFFFFFFFFFFFFFFFFFFFFFFFFFFFFFFFFFFFFFFF AND PUSH20 0xFFFFFFFFFFFFFFFFFFFFFFFFFFFFFFFFFFFFFFFF AND DUP2 MSTORE PUSH1 0x20 ADD SWAP1 DUP2 MSTORE PUSH1 0x20 ADD PUSH0 KECCAK256 PUSH0 SWAP1 SLOAD SWAP1 PUSH2 0x100 EXP SWAP1 DIV PUSH1 0xFF AND PUSH2 0xAEC JUMPI PUSH1 0x40 MLOAD PUSH32 0x8C379A000000000000000000000000000000000000000000000000000000000 DUP2 MSTORE PUSH1 0x4 ADD PUSH2 0xAE3 SWAP1 PUSH2 0x1B4B JUMP JUMPDEST PUSH1 0x40 MLOAD DUP1 SWAP2 SUB SWAP1 REVERT JUMPDEST PUSH0 DUP1 PUSH0 DUP6 DUP2 MSTORE PUSH1 0x20 ADD SWAP1 DUP2 MSTORE PUSH1 0x20 ADD PUSH0 KECCAK256 PUSH1 0x40 MLOAD DUP1 PUSH1 0xE0 ADD PUSH1 0x40 MSTORE SWAP1 DUP2 PUSH0 DUP3 ADD SLOAD DUP2 MSTORE PUSH1 0x20 ADD PUSH1 0x1 DUP3 ADD DUP1 SLOAD PUSH2 0xB21 SWAP1 PUSH2 0x178B JUMP JUMPDEST DUP1 PUSH1 0x1F ADD PUSH1 0x20 DUP1 SWAP2 DIV MUL PUSH1 0x20 ADD PUSH1 0x40 MLOAD SWAP1 DUP2 ADD PUSH1 0x40 MSTORE DUP1 SWAP3 SWAP2 SWAP1 DUP2 DUP2 MSTORE PUSH1 0x20 ADD DUP3 DUP1 SLOAD PUSH2 0xB4D SWAP1 PUSH2 0x178B JUMP JUMPDEST DUP1 ISZERO PUSH2 0xB98 JUMPI DUP1 PUSH1 0x1F LT PUSH2 0xB6F JUMPI PUSH2 0x100 DUP1 DUP4 SLOAD DIV MUL DUP4 MSTORE SWAP2 PUSH1 0x20 ADD SWAP2 PUSH2 0xB98 JUMP JUMPDEST DUP3 ADD SWAP2 SWAP1 PUSH0 MSTORE PUSH1 0x20 PUSH0 KECCAK256 SWAP1 JUMPDEST DUP2 SLOAD DUP2 MSTORE SWAP1 PUSH1 0x1 ADD SWAP1 PUSH1 0x20 ADD DUP1 DUP4 GT PUSH2 0xB7B JUMPI DUP3 SWAP1 SUB PUSH1 0x1F AND DUP3 ADD SWAP2 JUMPDEST POP POP POP POP POP DUP2 MSTORE PUSH1 0x20 ADD PUSH1 0x2 DUP3 ADD DUP1 SLOAD PUSH2 0xBB1 SWAP1 PUSH2 0x178B JUMP JUMPDEST DUP1 PUSH1 0x1F ADD PUSH1 0x20 DUP1 SWAP2 DIV MUL PUSH1 0x20 ADD PUSH1 0x40 MLOAD SWAP1 DUP2 ADD PUSH1 0x40 MSTORE DUP1 SWAP3 SWAP2 SWAP1 DUP2 DUP2 MSTORE PUSH1 0x20 ADD DUP3 DUP1 SLOAD PUSH2 0xBDD SWAP1 PUSH2 0x178B JUMP JUMPDEST DUP1 ISZERO PUSH2 0xC28 JUMPI DUP1 PUSH1 0x1F LT PUSH2 0xBFF JUMPI PUSH2 0x100 DUP1 DUP4 SLOAD DIV MUL DUP4 MSTORE SWAP2 PUSH1 0x20 ADD SWAP2 PUSH2 0xC28 JUMP JUMPDEST DUP3 ADD SWAP2 SWAP1 PUSH0 MSTORE PUSH1 0x20 PUSH0 KECCAK256 SWAP1 JUMPDEST DUP2 SLOAD DUP2 MSTORE SWAP1 PUSH1 0x1 ADD SWAP1 PUSH1 0x20 ADD DUP1 DUP4 GT PUSH2 0xC0B JUMPI DUP3 SWAP1 SUB PUSH1 0x1F AND DUP3 ADD SWAP2 JUMPDEST POP POP POP POP POP DUP2 MSTORE PUSH1 0x20 ADD PUSH1 0x3 DUP3 ADD DUP1 SLOAD PUSH2 0xC41 SWAP1 PUSH2 0x178B JUMP JUMPDEST DUP1 PUSH1 0x1F ADD PUSH1 0x20 DUP1 SWAP2 DIV MUL PUSH1 0x20 ADD PUSH1 0x40 MLOAD SWAP1 DUP2 ADD PUSH1 0x40 MSTORE DUP1 SWAP3 SWAP2 SWAP1 DUP2 DUP2 MSTORE PUSH1 0x20 ADD DUP3 DUP1 SLOAD PUSH2 0xC6D SWAP1 PUSH2 0x178B JUMP JUMPDEST DUP1 ISZERO PUSH2 0xCB8 JUMPI DUP1 PUSH1 0x1F LT PUSH2 0xC8F JUMPI PUSH2 0x100 DUP1 DUP4 SLOAD DIV MUL DUP4 MSTORE SWAP2 PUSH1 0x20 ADD SWAP2 PUSH2 0xCB8 JUMP JUMPDEST DUP3 ADD SWAP2 SWAP1 PUSH0 MSTORE PUSH1 0x20 PUSH0 KECCAK256 SWAP1 JUMPDEST DUP2 SLOAD DUP2 MSTORE SWAP1 PUSH1 0x1 ADD SWAP1 PUSH1 0x20 ADD DUP1 DUP4 GT PUSH2 0xC9B JUMPI DUP3 SWAP1 SUB PUSH1 0x1F AND DUP3 ADD SWAP2 JUMPDEST POP POP POP POP POP DUP2 MSTORE PUSH1 0x20 ADD PUSH1 0x4 DUP3 ADD DUP1 SLOAD PUSH2 0xCD1 SWAP1 PUSH2 0x178B JUMP JUMPDEST DUP1 PUSH1 0x1F ADD PUSH1 0x20 DUP1 SWAP2 DIV MUL PUSH1 0x20 ADD PUSH1 0x40 MLOAD SWAP1 DUP2 ADD PUSH1 0x40 MSTORE DUP1 SWAP3 SWAP2 SWAP1 DUP2 DUP2 MSTORE PUSH1 0x20 ADD DUP3 DUP1 SLOAD PUSH2 0xCFD SWAP1 PUSH2 0x178B JUMP JUMPDEST DUP1 ISZERO PUSH2 0xD48 JUMPI DUP1 PUSH1 0x1F LT PUSH2 0xD1F JUMPI PUSH2 0x100 DUP1 DUP4 SLOAD DIV MUL DUP4 MSTORE SWAP2 PUSH1 0x20 ADD SWAP2 PUSH2 0xD48 JUMP JUMPDEST DUP3 ADD SWAP2 SWAP1 PUSH0 MSTORE PUSH1 0x20 PUSH0 KECCAK256 SWAP1 JUMPDEST DUP2 SLOAD DUP2 MSTORE SWAP1 PUSH1 0x1 ADD SWAP1 PUSH1 0x20 ADD DUP1 DUP4 GT PUSH2 0xD2B JUMPI DUP3 SWAP1 SUB PUSH1 0x1F AND DUP3 ADD SWAP2 JUMPDEST POP POP POP POP POP DUP2 MSTORE PUSH1 0x20 ADD PUSH1 0x5 DUP3 ADD DUP1 SLOAD PUSH2 0xD61 SWAP1 PUSH2 0x178B JUMP JUMPDEST DUP1 PUSH1 0x1F ADD PUSH1 0x20 DUP1 SWAP2 DIV MUL PUSH1 0x20 ADD PUSH1 0x40 MLOAD SWAP1 DUP2 ADD PUSH1 0x40 MSTORE DUP1 SWAP3 SWAP2 SWAP1 DUP2 DUP2 MSTORE PUSH1 0x20 ADD DUP3 DUP1 SLOAD PUSH2 0xD8D SWAP1 PUSH2 0x178B JUMP JUMPDEST DUP1 ISZERO PUSH2 0xDD8 JUMPI DUP1 PUSH1 0x1F LT PUSH2 0xDAF JUMPI PUSH2 0x100 DUP1 DUP4 SLOAD DIV MUL DUP4 MSTORE SWAP2 PUSH1 0x20 ADD SWAP2 PUSH2 0xDD8 JUMP JUMPDEST DUP3 ADD SWAP2 SWAP1 PUSH0 MSTORE PUSH1 0x20 PUSH0 KECCAK256 SWAP1 JUMPDEST DUP2 SLOAD DUP2 MSTORE SWAP1 PUSH1 0x1 ADD SWAP1 PUSH1 0x20 ADD DUP1 DUP4 GT PUSH2 0xDBB JUMPI DUP3 SWAP1 SUB PUSH1 0x1F AND DUP3 ADD SWAP2 JUMPDEST POP POP POP POP POP DUP2 MSTORE PUSH1 0x20 ADD PUSH1 0x6 DUP3 ADD SLOAD DUP2 MSTORE POP POP SWAP1 POP DUP3 DUP2 PUSH1 0xC0 ADD MLOAD EQ SWAP2 POP POP SWAP3 SWAP2 POP POP JUMP JUMPDEST PUSH0 PUSH1 0x20 MSTORE DUP1 PUSH0 MSTORE PUSH1 0x40 PUSH0 KECCAK256 PUSH0 SWAP2 POP SWAP1 POP DUP1 PUSH0 ADD SLOAD SWAP1 DUP1 PUSH1 0x1 ADD DUP1 SLOAD PUSH2 0xE21 SWAP1 PUSH2 0x178B JUMP JUMPDEST DUP1 PUSH1 0x1F ADD PUSH1 0x20 DUP1 SWAP2 DIV MUL PUSH1 0x20 ADD PUSH1 0x40 MLOAD SWAP1 DUP2 ADD PUSH1 0x40 MSTORE DUP1 SWAP3 SWAP2 SWAP1 DUP2 DUP2 MSTORE PUSH1 0x20 ADD DUP3 DUP1 SLOAD PUSH2 0xE4D SWAP1 PUSH2 0x178B JUMP JUMPDEST DUP1 ISZERO PUSH2 0xE98 JUMPI DUP1 PUSH1 0x1F LT PUSH2 0xE6F JUMPI PUSH2 0x100 DUP1 DUP4 SLOAD DIV MUL DUP4 MSTORE SWAP2 PUSH1 0x20 ADD SWAP2 PUSH2 0xE98 JUMP JUMPDEST DUP3 ADD SWAP2 SWAP1 PUSH0 MSTORE PUSH1 0x20 PUSH0 KECCAK256 SWAP1 JUMPDEST DUP2 SLOAD DUP2 MSTORE SWAP1 PUSH1 0x1 ADD SWAP1 PUSH1 0x20 ADD DUP1 DUP4 GT PUSH2 0xE7B JUMPI DUP3 SWAP1 SUB PUSH1 0x1F AND DUP3 ADD SWAP2 JUMPDEST POP POP POP POP POP SWAP1 DUP1 PUSH1 0x2 ADD DUP1 SLOAD PUSH2 0xEAD SWAP1 PUSH2 0x178B JUMP JUMPDEST DUP1 PUSH1 0x1F ADD PUSH1 0x20 DUP1 SWAP2 DIV MUL PUSH1 0x20 ADD PUSH1 0x40 MLOAD SWAP1 DUP2 ADD PUSH1 0x40 MSTORE DUP1 SWAP3 SWAP2 SWAP1 DUP2 DUP2 MSTORE PUSH1 0x20 ADD DUP3 DUP1 SLOAD PUSH2 0xED9 SWAP1 PUSH2 0x178B JUMP JUMPDEST DUP1 ISZERO PUSH2 0xF24 JUMPI DUP1 PUSH1 0x1F LT PUSH2 0xEFB JUMPI PUSH2 0x100 DUP1 DUP4 SLOAD DIV MUL DUP4 MSTORE SWAP2 PUSH1 0x20 ADD SWAP2 PUSH2 0xF24 JUMP JUMPDEST DUP3 ADD SWAP2 SWAP1 PUSH0 MSTORE PUSH1 0x20 PUSH0 KECCAK256 SWAP1 JUMPDEST DUP2 SLOAD DUP2 MSTORE SWAP1 PUSH1 0x1 ADD SWAP1 PUSH1 0x20 ADD DUP1 DUP4 GT PUSH2 0xF07 JUMPI DUP3 SWAP1 SUB PUSH1 0x1F AND DUP3 ADD SWAP2 JUMPDEST POP POP POP POP POP SWAP1 DUP1 PUSH1 0x3 ADD DUP1 SLOAD PUSH2 0xF39 SWAP1 PUSH2 0x178B JUMP JUMPDEST DUP1 PUSH1 0x1F ADD PUSH1 0x20 DUP1 SWAP2 DIV MUL PUSH1 0x20 ADD PUSH1 0x40 MLOAD SWAP1 DUP2 ADD PUSH1 0x40 MSTORE DUP1 SWAP3 SWAP2 SWAP1 DUP2 DUP2 MSTORE PUSH1 0x20 ADD DUP3 DUP1 SLOAD PUSH2 0xF65 SWAP1 PUSH2 0x178B JUMP JUMPDEST DUP1 ISZERO PUSH2 0xFB0 JUMPI DUP1 PUSH1 0x1F LT PUSH2 0xF87 JUMPI PUSH2 0x100 DUP1 DUP4 SLOAD DIV MUL DUP4 MSTORE SWAP2 PUSH1 0x20 ADD SWAP2 PUSH2 0xFB0 JUMP JUMPDEST DUP3 ADD SWAP2 SWAP1 PUSH0 MSTORE PUSH1 0x20 PUSH0 KECCAK256 SWAP1 JUMPDEST DUP2 SLOAD DUP2 MSTORE SWAP1 PUSH1 0x1 ADD SWAP1 PUSH1 0x20 ADD DUP1 DUP4 GT PUSH2 0xF93 JUMPI DUP3 SWAP1 SUB PUSH1 0x1F AND DUP3 ADD SWAP2 JUMPDEST POP POP POP POP POP SWAP1 DUP1 PUSH1 0x4 ADD DUP1 SLOAD PUSH2 0xFC5 SWAP1 PUSH2 0x178B JUMP JUMPDEST DUP1 PUSH1 0x1F ADD PUSH1 0x20 DUP1 SWAP2 DIV MUL PUSH1 0x20 ADD PUSH1 0x40 MLOAD SWAP1 DUP2 ADD PUSH1 0x40 MSTORE DUP1 SWAP3 SWAP2 SWAP1 DUP2 DUP2 MSTORE PUSH1 0x20 ADD DUP3 DUP1 SLOAD PUSH2 0xFF1 SWAP1 PUSH2 0x178B JUMP JUMPDEST DUP1 ISZERO PUSH2 0x103C JUMPI DUP1 PUSH1 0x1F LT PUSH2 0x1013 JUMPI PUSH2 0x100 DUP1 DUP4 SLOAD DIV MUL DUP4 MSTORE SWAP2 PUSH1 0x20 ADD SWAP2 PUSH2 0x103C JUMP JUMPDEST DUP3 ADD SWAP2 SWAP1 PUSH0 MSTORE PUSH1 0x20 PUSH0 KECCAK256 SWAP1 JUMPDEST DUP2 SLOAD DUP2 MSTORE SWAP1 PUSH1 0x1 ADD SWAP1 PUSH1 0x20 ADD DUP1 DUP4 GT PUSH2 0x101F JUMPI DUP3 SWAP1 SUB PUSH1 0x1F AND DUP3 ADD SWAP2 JUMPDEST POP POP POP POP POP SWAP1 DUP1 PUSH1 0x5 ADD DUP1 SLOAD PUSH2 0x1051 SWAP1 PUSH2 0x178B JUMP JUMPDEST DUP1 PUSH1 0x1F ADD PUSH1 0x20 DUP1 SWAP2 DIV MUL PUSH1 0x20 ADD PUSH1 0x40 MLOAD SWAP1 DUP2 ADD PUSH1 0x40 MSTORE DUP1 SWAP3 SWAP2 SWAP1 DUP2 DUP2 MSTORE PUSH1 0x20 ADD DUP3 DUP1 SLOAD PUSH2 0x107D SWAP1 PUSH2 0x178B JUMP JUMPDEST DUP1 ISZERO PUSH2 0x10C8 JUMPI DUP1 PUSH1 0x1F LT PUSH2 0x109F JUMPI PUSH2 0x100 DUP1 DUP4 SLOAD DIV MUL DUP4 MSTORE SWAP2 PUSH1 0x20 ADD SWAP2 PUSH2 0x10C8 JUMP JUMPDEST DUP3 ADD SWAP2 SWAP1 PUSH0 MSTORE PUSH1 0x20 PUSH0 KECCAK256 SWAP1 JUMPDEST DUP2 SLOAD DUP2 MSTORE SWAP1 PUSH1 0x1 ADD SWAP1 PUSH1 0x20 ADD DUP1 DUP4 GT PUSH2 0x10AB JUMPI DUP3 SWAP1 SUB PUSH1 0x1F AND DUP3 ADD SWAP2 JUMPDEST POP POP POP POP POP SWAP1 DUP1 PUSH1 0x6 ADD SLOAD SWAP1 POP DUP8 JUMP JUMPDEST PUSH1 0x60 DUP2 PUSH1 0x20 ADD MLOAD DUP3 PUSH1 0x40 ADD MLOAD DUP4 PUSH1 0x60 ADD MLOAD DUP5 PUSH1 0x80 ADD MLOAD PUSH1 0x40 MLOAD PUSH1 0x20 ADD PUSH2 0x1101 SWAP5 SWAP4 SWAP3 SWAP2 SWAP1 PUSH2 0x1CCB JUMP JUMPDEST PUSH1 0x40 MLOAD PUSH1 0x20 DUP2 DUP4 SUB SUB DUP2 MSTORE SWAP1 PUSH1 0x40 MSTORE SWAP1 POP SWAP2 SWAP1 POP JUMP JUMPDEST PUSH0 PUSH1 0x40 MLOAD SWAP1 POP SWAP1 JUMP JUMPDEST PUSH0 DUP1 REVERT JUMPDEST PUSH0 DUP1 REVERT JUMPDEST PUSH0 DUP2 SWAP1 POP SWAP2 SWAP1 POP JUMP JUMPDEST PUSH2 0x113A DUP2 PUSH2 0x1128 JUMP JUMPDEST DUP2 EQ PUSH2 0x1144 JUMPI PUSH0 DUP1 REVERT JUMPDEST POP JUMP JUMPDEST PUSH0 DUP2 CALLDATALOAD SWAP1 POP PUSH2 0x1155 DUP2 PUSH2 0x1131 JUMP JUMPDEST SWAP3 SWAP2 POP POP JUMP JUMPDEST PUSH0 PUSH20 0xFFFFFFFFFFFFFFFFFFFFFFFFFFFFFFFFFFFFFFFF DUP3 AND SWAP1 POP SWAP2 SWAP1 POP JUMP JUMPDEST PUSH0 PUSH2 0x1184 DUP3 PUSH2 0x115B JUMP JUMPDEST SWAP1 POP SWAP2 SWAP1 POP JUMP JUMPDEST PUSH2 0x1194 DUP2 PUSH2 0x117A JUMP JUMPDEST DUP2 EQ PUSH2 0x119E JUMPI PUSH0 DUP1 REVERT JUMPDEST POP JUMP JUMPDEST PUSH0 DUP2 CALLDATALOAD SWAP1 POP PUSH2 0x11AF DUP2 PUSH2 0x118B JUMP JUMPDEST SWAP3 SWAP2 POP POP JUMP JUMPDEST PUSH0 DUP1 PUSH1 0x40 DUP4 DUP6 SUB SLT ISZERO PUSH2 0x11CB JUMPI PUSH2 0x11CA PUSH2 0x1120 JUMP JUMPDEST JUMPDEST PUSH0 PUSH2 0x11D8 DUP6 DUP3 DUP7 ADD PUSH2 0x1147 JUMP JUMPDEST SWAP3 POP POP PUSH1 0x20 PUSH2 0x11E9 DUP6 DUP3 DUP7 ADD PUSH2 0x11A1 JUMP JUMPDEST SWAP2 POP POP SWAP3 POP SWAP3 SWAP1 POP JUMP JUMPDEST PUSH0 DUP2 ISZERO ISZERO SWAP1 POP SWAP2 SWAP1 POP JUMP JUMPDEST PUSH2 0x1207 DUP2 PUSH2 0x11F3 JUMP JUMPDEST DUP3 MSTORE POP POP JUMP JUMPDEST PUSH0 PUSH1 0x20 DUP3 ADD SWAP1 POP PUSH2 0x1220 PUSH0 DUP4 ADD DUP5 PUSH2 0x11FE JUMP JUMPDEST SWAP3 SWAP2 POP POP JUMP JUMPDEST PUSH0 PUSH1 0x20 DUP3 DUP5 SUB SLT ISZERO PUSH2 0x123B JUMPI PUSH2 0x123A PUSH2 0x1120 JUMP JUMPDEST JUMPDEST PUSH0 PUSH2 0x1248 DUP5 DUP3 DUP6 ADD PUSH2 0x1147 JUMP JUMPDEST SWAP2 POP POP SWAP3 SWAP2 POP POP JUMP JUMPDEST PUSH0 PUSH1 0x20 DUP3 DUP5 SUB SLT ISZERO PUSH2 0x1266 JUMPI PUSH2 0x1265 PUSH2 0x1120 JUMP JUMPDEST JUMPDEST PUSH0 PUSH2 0x1273 DUP5 DUP3 DUP6 ADD PUSH2 0x11A1 JUMP JUMPDEST SWAP2 POP POP SWAP3 SWAP2 POP POP JUMP JUMPDEST PUSH0 DUP1 REVERT JUMPDEST PUSH0 DUP1 REVERT JUMPDEST PUSH0 PUSH1 0x1F NOT PUSH1 0x1F DUP4 ADD AND SWAP1 POP SWAP2 SWAP1 POP JUMP JUMPDEST PUSH32 0x4E487B7100000000000000000000000000000000000000000000000000000000 PUSH0 MSTORE PUSH1 0x41 PUSH1 0x4 MSTORE PUSH1 0x24 PUSH0 REVERT JUMPDEST PUSH2 0x12CA DUP3 PUSH2 0x1284 JUMP JUMPDEST DUP2 ADD DUP2 DUP2 LT PUSH8 0xFFFFFFFFFFFFFFFF DUP3 GT OR ISZERO PUSH2 0x12E9 JUMPI PUSH2 0x12E8 PUSH2 0x1294 JUMP JUMPDEST JUMPDEST DUP1 PUSH1 0x40 MSTORE POP POP POP JUMP JUMPDEST PUSH0 PUSH2 0x12FB PUSH2 0x1117 JUMP JUMPDEST SWAP1 POP PUSH2 0x1307 DUP3 DUP3 PUSH2 0x12C1 JUMP JUMPDEST SWAP2 SWAP1 POP JUMP JUMPDEST PUSH0 PUSH8 0xFFFFFFFFFFFFFFFF DUP3 GT ISZERO PUSH2 0x1326 JUMPI PUSH2 0x1325 PUSH2 0x1294 JUMP JUMPDEST JUMPDEST PUSH2 0x132F DUP3 PUSH2 0x1284 JUMP JUMPDEST SWAP1 POP PUSH1 0x20 DUP2 ADD SWAP1 POP SWAP2 SWAP1 POP JUMP JUMPDEST DUP3 DUP2 DUP4 CALLDATACOPY PUSH0 DUP4 DUP4 ADD MSTORE POP POP POP JUMP JUMPDEST PUSH0 PUSH2 0x135C PUSH2 0x1357 DUP5 PUSH2 0x130C JUMP JUMPDEST PUSH2 0x12F2 JUMP JUMPDEST SWAP1 POP DUP3 DUP2 MSTORE PUSH1 0x20 DUP2 ADD DUP5 DUP5 DUP5 ADD GT ISZERO PUSH2 0x1378 JUMPI PUSH2 0x1377 PUSH2 0x1280 JUMP JUMPDEST JUMPDEST PUSH2 0x1383 DUP5 DUP3 DUP6 PUSH2 0x133C JUMP JUMPDEST POP SWAP4 SWAP3 POP POP POP JUMP JUMPDEST PUSH0 DUP3 PUSH1 0x1F DUP4 ADD SLT PUSH2 0x139F JUMPI PUSH2 0x139E PUSH2 0x127C JUMP JUMPDEST JUMPDEST DUP2 CALLDATALOAD PUSH2 0x13AF DUP5 DUP3 PUSH1 0x20 DUP7 ADD PUSH2 0x134A JUMP JUMPDEST SWAP2 POP POP SWAP3 SWAP2 POP POP JUMP JUMPDEST PUSH0 DUP2 SWAP1 POP SWAP2 SWAP1 POP JUMP JUMPDEST PUSH2 0x13CA DUP2 PUSH2 0x13B8 JUMP JUMPDEST DUP2 EQ PUSH2 0x13D4 JUMPI PUSH0 DUP1 REVERT JUMPDEST POP JUMP JUMPDEST PUSH0 DUP2 CALLDATALOAD SWAP1 POP PUSH2 0x13E5 DUP2 PUSH2 0x13C1 JUMP JUMPDEST SWAP3 SWAP2 POP POP JUMP JUMPDEST PUSH0 DUP1 PUSH0 DUP1 PUSH0 DUP1 PUSH0 PUSH1 0xE0 DUP9 DUP11 SUB SLT ISZERO PUSH2 0x1406 JUMPI PUSH2 0x1405 PUSH2 0x1120 JUMP JUMPDEST JUMPDEST PUSH0 PUSH2 0x1413 DUP11 DUP3 DUP12 ADD PUSH2 0x1147 JUMP JUMPDEST SWAP8 POP POP PUSH1 0x20 DUP9 ADD CALLDATALOAD PUSH8 0xFFFFFFFFFFFFFFFF DUP2 GT ISZERO PUSH2 0x1434 JUMPI PUSH2 0x1433 PUSH2 0x1124 JUMP JUMPDEST JUMPDEST PUSH2 0x1440 DUP11 DUP3 DUP12 ADD PUSH2 0x138B JUMP JUMPDEST SWAP7 POP POP PUSH1 0x40 DUP9 ADD CALLDATALOAD PUSH8 0xFFFFFFFFFFFFFFFF DUP2 GT ISZERO PUSH2 0x1461 JUMPI PUSH2 0x1460 PUSH2 0x1124 JUMP JUMPDEST JUMPDEST PUSH2 0x146D DUP11 DUP3 DUP12 ADD PUSH2 0x138B JUMP JUMPDEST SWAP6 POP POP PUSH1 0x60 DUP9 ADD CALLDATALOAD PUSH8 0xFFFFFFFFFFFFFFFF DUP2 GT ISZERO PUSH2 0x148E JUMPI PUSH2 0x148D PUSH2 0x1124 JUMP JUMPDEST JUMPDEST PUSH2 0x149A DUP11 DUP3 DUP12 ADD PUSH2 0x138B JUMP JUMPDEST SWAP5 POP POP PUSH1 0x80 DUP9 ADD CALLDATALOAD PUSH8 0xFFFFFFFFFFFFFFFF DUP2 GT ISZERO PUSH2 0x14BB JUMPI PUSH2 0x14BA PUSH2 0x1124 JUMP JUMPDEST JUMPDEST PUSH2 0x14C7 DUP11 DUP3 DUP12 ADD PUSH2 0x138B JUMP JUMPDEST SWAP4 POP POP PUSH1 0xA0 DUP9 ADD CALLDATALOAD PUSH8 0xFFFFFFFFFFFFFFFF DUP2 GT ISZERO PUSH2 0x14E8 JUMPI PUSH2 0x14E7 PUSH2 0x1124 JUMP JUMPDEST JUMPDEST PUSH2 0x14F4 DUP11 DUP3 DUP12 ADD PUSH2 0x138B JUMP JUMPDEST SWAP3 POP POP PUSH1 0xC0 PUSH2 0x1505 DUP11 DUP3 DUP12 ADD PUSH2 0x13D7 JUMP JUMPDEST SWAP2 POP POP SWAP3 SWAP6 SWAP9 SWAP2 SWAP5 SWAP8 POP SWAP3 SWAP6 POP JUMP JUMPDEST PUSH0 DUP2 MLOAD SWAP1 POP SWAP2 SWAP1 POP JUMP JUMPDEST PUSH0 DUP3 DUP3 MSTORE PUSH1 0x20 DUP3 ADD SWAP1 POP SWAP3 SWAP2 POP POP JUMP JUMPDEST PUSH0 JUMPDEST DUP4 DUP2 LT ISZERO PUSH2 0x154B JUMPI DUP1 DUP3 ADD MLOAD DUP2 DUP5 ADD MSTORE PUSH1 0x20 DUP2 ADD SWAP1 POP PUSH2 0x1530 JUMP JUMPDEST PUSH0 DUP5 DUP5 ADD MSTORE POP POP POP POP JUMP JUMPDEST PUSH0 PUSH2 0x1560 DUP3 PUSH2 0x1514 JUMP JUMPDEST PUSH2 0x156A DUP2 DUP6 PUSH2 0x151E JUMP JUMPDEST SWAP4 POP PUSH2 0x157A DUP2 DUP6 PUSH1 0x20 DUP7 ADD PUSH2 0x152E JUMP JUMPDEST PUSH2 0x1583 DUP2 PUSH2 0x1284 JUMP JUMPDEST DUP5 ADD SWAP2 POP POP SWAP3 SWAP2 POP POP JUMP JUMPDEST PUSH0 PUSH1 0x20 DUP3 ADD SWAP1 POP DUP2 DUP2 SUB PUSH0 DUP4 ADD MSTORE PUSH2 0x15A6 DUP2 DUP5 PUSH2 0x1556 JUMP JUMPDEST SWAP1 POP SWAP3 SWAP2 POP POP JUMP JUMPDEST PUSH0 DUP1 PUSH1 0x40 DUP4 DUP6 SUB SLT ISZERO PUSH2 0x15C4 JUMPI PUSH2 0x15C3 PUSH2 0x1120 JUMP JUMPDEST JUMPDEST PUSH0 PUSH2 0x15D1 DUP6 DUP3 DUP7 ADD PUSH2 0x1147 JUMP JUMPDEST SWAP3 POP POP PUSH1 0x20 PUSH2 0x15E2 DUP6 DUP3 DUP7 ADD PUSH2 0x13D7 JUMP JUMPDEST SWAP2 POP POP SWAP3 POP SWAP3 SWAP1 POP JUMP JUMPDEST PUSH2 0x15F5 DUP2 PUSH2 0x1128 JUMP JUMPDEST DUP3 MSTORE POP POP JUMP JUMPDEST PUSH2 0x1604 DUP2 PUSH2 0x13B8 JUMP JUMPDEST DUP3 MSTORE POP POP JUMP JUMPDEST PUSH0 PUSH1 0xE0 DUP3 ADD SWAP1 POP PUSH2 0x161D PUSH0 DUP4 ADD DUP11 PUSH2 0x15EC JUMP JUMPDEST DUP2 DUP2 SUB PUSH1 0x20 DUP4 ADD MSTORE PUSH2 0x162F DUP2 DUP10 PUSH2 0x1556 JUMP JUMPDEST SWAP1 POP DUP2 DUP2 SUB PUSH1 0x40 DUP4 ADD MSTORE PUSH2 0x1643 DUP2 DUP9 PUSH2 0x1556 JUMP JUMPDEST SWAP1 POP DUP2 DUP2 SUB PUSH1 0x60 DUP4 ADD MSTORE PUSH2 0x1657 DUP2 DUP8 PUSH2 0x1556 JUMP JUMPDEST SWAP1 POP DUP2 DUP2 SUB PUSH1 0x80 DUP4 ADD MSTORE PUSH2 0x166B DUP2 DUP7 PUSH2 0x1556 JUMP JUMPDEST SWAP1 POP DUP2 DUP2 SUB PUSH1 0xA0 DUP4 ADD MSTORE PUSH2 0x167F DUP2 DUP6 PUSH2 0x1556 JUMP JUMPDEST SWAP1 POP PUSH2 0x168E PUSH1 0xC0 DUP4 ADD DUP5 PUSH2 0x15FB JUMP JUMPDEST SWAP9 SWAP8 POP POP POP POP POP POP POP POP JUMP JUMPDEST PUSH2 0x16A3 DUP2 PUSH2 0x117A JUMP JUMPDEST DUP3 MSTORE POP POP JUMP JUMPDEST PUSH0 PUSH1 0x40 DUP3 ADD SWAP1 POP PUSH2 0x16BC PUSH0 DUP4 ADD DUP6 PUSH2 0x15EC JUMP JUMPDEST PUSH2 0x16C9 PUSH1 0x20 DUP4 ADD DUP5 PUSH2 0x169A JUMP JUMPDEST SWAP4 SWAP3 POP POP POP JUMP JUMPDEST PUSH32 0x43616C6C6572206973206E6F7420616E20617574686F726973656420656D706C PUSH0 DUP3 ADD MSTORE PUSH32 0x6F79657200000000000000000000000000000000000000000000000000000000 PUSH1 0x20 DUP3 ADD MSTORE POP JUMP JUMPDEST PUSH0 PUSH2 0x172A PUSH1 0x24 DUP4 PUSH2 0x151E JUMP JUMPDEST SWAP2 POP PUSH2 0x1735 DUP3 PUSH2 0x16D0 JUMP JUMPDEST PUSH1 0x40 DUP3 ADD SWAP1 POP SWAP2 SWAP1 POP JUMP JUMPDEST PUSH0 PUSH1 0x20 DUP3 ADD SWAP1 POP DUP2 DUP2 SUB PUSH0 DUP4 ADD MSTORE PUSH2 0x1757 DUP2 PUSH2 0x171E JUMP JUMPDEST SWAP1 POP SWAP2 SWAP1 POP JUMP JUMPDEST PUSH32 0x4E487B7100000000000000000000000000000000000000000000000000000000 PUSH0 MSTORE PUSH1 0x22 PUSH1 0x4 MSTORE PUSH1 0x24 PUSH0 REVERT JUMPDEST PUSH0 PUSH1 0x2 DUP3 DIV SWAP1 POP PUSH1 0x1 DUP3 AND DUP1 PUSH2 0x17A2 JUMPI PUSH1 0x7F DUP3 AND SWAP2 POP JUMPDEST PUSH1 0x20 DUP3 LT DUP2 SUB PUSH2 0x17B5 JUMPI PUSH2 0x17B4 PUSH2 0x175E JUMP JUMPDEST JUMPDEST POP SWAP2 SWAP1 POP JUMP JUMPDEST PUSH0 DUP2 SWAP1 POP DUP2 PUSH0 MSTORE PUSH1 0x20 PUSH0 KECCAK256 SWAP1 POP SWAP2 SWAP1 POP JUMP JUMPDEST PUSH0 PUSH1 0x20 PUSH1 0x1F DUP4 ADD DIV SWAP1 POP SWAP2 SWAP1 POP JUMP JUMPDEST PUSH0 DUP3 DUP3 SHL SWAP1 POP SWAP3 SWAP2 POP POP JUMP JUMPDEST PUSH0 PUSH1 0x8 DUP4 MUL PUSH2 0x1817 PUSH32 0xFFFFFFFFFFFFFFFFFFFFFFFFFFFFFFFFFFFFFFFFFFFFFFFFFFFFFFFFFFFFFFFF DUP3 PUSH2 0x17DC JUMP JUMPDEST PUSH2 0x1821 DUP7 DUP4 PUSH2 0x17DC JUMP JUMPDEST SWAP6 POP DUP1 NOT DUP5 AND SWAP4 POP DUP1 DUP7 AND DUP5 OR SWAP3 POP POP POP SWAP4 SWAP3 POP POP POP JUMP JUMPDEST PUSH0 DUP2 SWAP1 POP SWAP2 SWAP1 POP JUMP JUMPDEST PUSH0 PUSH2 0x185C PUSH2 0x1857 PUSH2 0x1852 DUP5 PUSH2 0x1128 JUMP JUMPDEST PUSH2 0x1839 JUMP JUMPDEST PUSH2 0x1128 JUMP JUMPDEST SWAP1 POP SWAP2 SWAP1 POP JUMP JUMPDEST PUSH0 DUP2 SWAP1 POP SWAP2 SWAP1 POP JUMP JUMPDEST PUSH2 0x1875 DUP4 PUSH2 0x1842 JUMP JUMPDEST PUSH2 0x1889 PUSH2 0x1881 DUP3 PUSH2 0x1863 JUMP JUMPDEST DUP5 DUP5 SLOAD PUSH2 0x17E8 JUMP JUMPDEST DUP3 SSTORE POP POP POP POP JUMP JUMPDEST PUSH0 SWAP1 JUMP JUMPDEST PUSH2 0x189D PUSH2 0x1891 JUMP JUMPDEST PUSH2 0x18A8 DUP2 DUP5 DUP5 PUSH2 0x186C JUMP JUMPDEST POP POP POP JUMP JUMPDEST JUMPDEST DUP2 DUP2 LT ISZERO PUSH2 0x18CB JUMPI PUSH2 0x18C0 PUSH0 DUP3 PUSH2 0x1895 JUMP JUMPDEST PUSH1 0x1 DUP2 ADD SWAP1 POP PUSH2 0x18AE JUMP JUMPDEST POP POP JUMP JUMPDEST PUSH1 0x1F DUP3 GT ISZERO PUSH2 0x1910 JUMPI PUSH2 0x18E1 DUP2 PUSH2 0x17BB JUMP JUMPDEST PUSH2 0x18EA DUP5 PUSH2 0x17CD JUMP JUMPDEST DUP2 ADD PUSH1 0x20 DUP6 LT ISZERO PUSH2 0x18F9 JUMPI DUP2 SWAP1 POP JUMPDEST PUSH2 0x190D PUSH2 0x1905 DUP6 PUSH2 0x17CD JUMP JUMPDEST DUP4 ADD DUP3 PUSH2 0x18AD JUMP JUMPDEST POP POP JUMPDEST POP POP POP JUMP JUMPDEST PUSH0 DUP3 DUP3 SHR SWAP1 POP SWAP3 SWAP2 POP POP JUMP JUMPDEST PUSH0 PUSH2 0x1930 PUSH0 NOT DUP5 PUSH1 0x8 MUL PUSH2 0x1915 JUMP JUMPDEST NOT DUP1 DUP4 AND SWAP2 POP POP SWAP3 SWAP2 POP POP JUMP JUMPDEST PUSH0 PUSH2 0x1948 DUP4 DUP4 PUSH2 0x1921 JUMP JUMPDEST SWAP2 POP DUP3 PUSH1 0x2 MUL DUP3 OR SWAP1 POP SWAP3 SWAP2 POP POP JUMP JUMPDEST PUSH2 0x1961 DUP3 PUSH2 0x1514 JUMP JUMPDEST PUSH8 0xFFFFFFFFFFFFFFFF DUP2 GT ISZERO PUSH2 0x197A JUMPI PUSH2 0x1979 PUSH2 0x1294 JUMP JUMPDEST JUMPDEST PUSH2 0x1984 DUP3 SLOAD PUSH2 0x178B JUMP JUMPDEST PUSH2 0x198F DUP3 DUP3 DUP6 PUSH2 0x18CF JUMP JUMPDEST PUSH0 PUSH1 0x20 SWAP1 POP PUSH1 0x1F DUP4 GT PUSH1 0x1 DUP2 EQ PUSH2 0x19C0 JUMPI PUSH0 DUP5 ISZERO PUSH2 0x19AE JUMPI DUP3 DUP8 ADD MLOAD SWAP1 POP JUMPDEST PUSH2 0x19B8 DUP6 DUP3 PUSH2 0x193D JUMP JUMPDEST DUP7 SSTORE POP PUSH2 0x1A1F JUMP JUMPDEST PUSH1 0x1F NOT DUP5 AND PUSH2 0x19CE DUP7 PUSH2 0x17BB JUMP JUMPDEST PUSH0 JUMPDEST DUP3 DUP2 LT ISZERO PUSH2 0x19F5 JUMPI DUP5 DUP10 ADD MLOAD DUP3 SSTORE PUSH1 0x1 DUP3 ADD SWAP2 POP PUSH1 0x20 DUP6 ADD SWAP5 POP PUSH1 0x20 DUP2 ADD SWAP1 POP PUSH2 0x19D0 JUMP JUMPDEST DUP7 DUP4 LT ISZERO PUSH2 0x1A12 JUMPI DUP5 DUP10 ADD MLOAD PUSH2 0x1A0E PUSH1 0x1F DUP10 AND DUP3 PUSH2 0x1921 JUMP JUMPDEST DUP4 SSTORE POP JUMPDEST PUSH1 0x1 PUSH1 0x2 DUP9 MUL ADD DUP9 SSTORE POP POP POP JUMPDEST POP POP POP POP POP POP JUMP JUMPDEST PUSH32 0x5065726D697373696F6E206E6F74206772616E74656420627920746865207374 PUSH0 DUP3 ADD MSTORE PUSH32 0x7564656E74000000000000000000000000000000000000000000000000000000 PUSH1 0x20 DUP3 ADD MSTORE POP JUMP JUMPDEST PUSH0 PUSH2 0x1A81 PUSH1 0x25 DUP4 PUSH2 0x151E JUMP JUMPDEST SWAP2 POP PUSH2 0x1A8C DUP3 PUSH2 0x1A27 JUMP JUMPDEST PUSH1 0x40 DUP3 ADD SWAP1 POP SWAP2 SWAP1 POP JUMP JUMPDEST PUSH0 PUSH1 0x20 DUP3 ADD SWAP1 POP DUP2 DUP2 SUB PUSH0 DUP4 ADD MSTORE PUSH2 0x1AAE DUP2 PUSH2 0x1A75 JUMP JUMPDEST SWAP1 POP SWAP2 SWAP1 POP JUMP JUMPDEST PUSH32 0x456D706C6F79657220646F6573206E6F742068617665207065726D697373696F PUSH0 DUP3 ADD MSTORE PUSH32 0x6E20746F2076657269667920746869732073747564656E742773206372656465 PUSH1 0x20 DUP3 ADD MSTORE PUSH32 0x6E7469616C730000000000000000000000000000000000000000000000000000 PUSH1 0x40 DUP3 ADD MSTORE POP JUMP JUMPDEST PUSH0 PUSH2 0x1B35 PUSH1 0x46 DUP4 PUSH2 0x151E JUMP JUMPDEST SWAP2 POP PUSH2 0x1B40 DUP3 PUSH2 0x1AB5 JUMP JUMPDEST PUSH1 0x60 DUP3 ADD SWAP1 POP SWAP2 SWAP1 POP JUMP JUMPDEST PUSH0 PUSH1 0x20 DUP3 ADD SWAP1 POP DUP2 DUP2 SUB PUSH0 DUP4 ADD MSTORE PUSH2 0x1B62 DUP2 PUSH2 0x1B29 JUMP JUMPDEST SWAP1 POP SWAP2 SWAP1 POP JUMP JUMPDEST PUSH0 DUP2 SWAP1 POP SWAP3 SWAP2 POP POP JUMP JUMPDEST PUSH32 0x4E616D653A200000000000000000000000000000000000000000000000000000 PUSH0 DUP3 ADD MSTORE POP JUMP JUMPDEST PUSH0 PUSH2 0x1BA7 PUSH1 0x6 DUP4 PUSH2 0x1B69 JUMP JUMPDEST SWAP2 POP PUSH2 0x1BB2 DUP3 PUSH2 0x1B73 JUMP JUMPDEST PUSH1 0x6 DUP3 ADD SWAP1 POP SWAP2 SWAP1 POP JUMP JUMPDEST PUSH0 PUSH2 0x1BC7 DUP3 PUSH2 0x1514 JUMP JUMPDEST PUSH2 0x1BD1 DUP2 DUP6 PUSH2 0x1B69 JUMP JUMPDEST SWAP4 POP PUSH2 0x1BE1 DUP2 DUP6 PUSH1 0x20 DUP7 ADD PUSH2 0x152E JUMP JUMPDEST DUP1 DUP5 ADD SWAP2 POP POP SWAP3 SWAP2 POP POP JUMP JUMPDEST PUSH32 0x2C20496E737469747574696F6E3A200000000000000000000000000000000000 PUSH0 DUP3 ADD MSTORE POP JUMP JUMPDEST PUSH0 PUSH2 0x1C21 PUSH1 0xF DUP4 PUSH2 0x1B69 JUMP JUMPDEST SWAP2 POP PUSH2 0x1C2C DUP3 PUSH2 0x1BED JUMP JUMPDEST PUSH1 0xF DUP3 ADD SWAP1 POP SWAP2 SWAP1 POP JUMP JUMPDEST PUSH32 0x2C205175616C696669636174696F6E3A20000000000000000000000000000000 PUSH0 DUP3 ADD MSTORE POP JUMP JUMPDEST PUSH0 PUSH2 0x1C6B PUSH1 0x11 DUP4 PUSH2 0x1B69 JUMP JUMPDEST SWAP2 POP PUSH2 0x1C76 DUP3 PUSH2 0x1C37 JUMP JUMPDEST PUSH1 0x11 DUP3 ADD SWAP1 POP SWAP2 SWAP1 POP JUMP JUMPDEST PUSH32 0x2C2044617465204973737565643A200000000000000000000000000000000000 PUSH0 DUP3 ADD MSTORE POP JUMP JUMPDEST PUSH0 PUSH2 0x1CB5 PUSH1 0xF DUP4 PUSH2 0x1B69 JUMP JUMPDEST SWAP2 POP PUSH2 0x1CC0 DUP3 PUSH2 0x1C81 JUMP JUMPDEST PUSH1 0xF DUP3 ADD SWAP1 POP SWAP2 SWAP1 POP JUMP JUMPDEST PUSH0 PUSH2 0x1CD5 DUP3 PUSH2 0x1B9B JUMP JUMPDEST SWAP2 POP PUSH2 0x1CE1 DUP3 DUP8 PUSH2 0x1BBD JUMP JUMPDEST SWAP2 POP PUSH2 0x1CEC DUP3 PUSH2 0x1C15 JUMP JUMPDEST SWAP2 POP PUSH2 0x1CF8 DUP3 DUP7 PUSH2 0x1BBD JUMP JUMPDEST SWAP2 POP PUSH2 0x1D03 DUP3 PUSH2 0x1C5F JUMP JUMPDEST SWAP2 POP PUSH2 0x1D0F DUP3 DUP6 PUSH2 0x1BBD JUMP JUMPDEST SWAP2 POP PUSH2 0x1D1A DUP3 PUSH2 0x1CA9 JUMP JUMPDEST SWAP2 POP PUSH2 0x1D26 DUP3 DUP5 PUSH2 0x1BBD JUMP JUMPDEST SWAP2 POP DUP2 SWAP1 POP SWAP6 SWAP5 POP POP POP POP POP JUMP INVALID LOG2 PUSH5 0x6970667358 0x22 SLT KECCAK256 CODESIZE 0x2C SDIV 0x22 0x22 0xC5 MSIZE 0xE7 0xA7 PUSH4 0xA0BEBF2C MSTORE PUSH31 0x4F5A0F2E7D53409D86A7321AD623A8E764736F6C6343000816003300000000 "
				},
				"gasEstimates": {
					"creation": {
						"codeDepositCost": "1506000",
						"executionCost": "1573",
						"totalCost": "1507573"
					},
					"external": {
						"addEmployer(address)": "24825",
						"credentials(uint256)": "infinite",
						"denyPermission(uint256,address)": "infinite",
						"grantPermission(uint256,address)": "infinite",
						"isEmployer(address)": "2922",
						"permissions(uint256,address)": "3094",
						"readCredential(uint256)": "infinite",
						"registerCredential(uint256,string,string,string,string,string,bytes32)": "infinite",
						"requestPermission(uint256)": "infinite",
						"verifyCredentials(uint256,bytes32)": "infinite"
					},
					"internal": {
						"generateVerificationMessage(struct CredentialVerification.Credential memory)": "infinite"
					}
				},
				"methodIdentifiers": {
					"addEmployer(address)": "68b54919",
					"credentials(uint256)": "e0574e3f",
					"denyPermission(uint256,address)": "3207e1c6",
					"grantPermission(uint256,address)": "2cdb559b",
					"isEmployer(address)": "417d6c99",
					"permissions(uint256,address)": "300ecdb9",
					"readCredential(uint256)": "92522e9d",
					"registerCredential(uint256,string,string,string,string,string,bytes32)": "44b89e3b",
					"requestPermission(uint256)": "3ff36d65",
					"verifyCredentials(uint256,bytes32)": "92642daa"
				}
			},
			"storageLayout": {
				"storage": [
					{
						"astId": 21,
						"contract": "contracts/CredentialVerification.sol:CredentialVerification",
						"label": "credentials",
						"offset": 0,
						"slot": "0",
						"type": "t_mapping(t_uint256,t_struct(Credential)16_storage)"
					},
					{
						"astId": 25,
						"contract": "contracts/CredentialVerification.sol:CredentialVerification",
						"label": "isEmployer",
						"offset": 0,
						"slot": "1",
						"type": "t_mapping(t_address,t_bool)"
					},
					{
						"astId": 31,
						"contract": "contracts/CredentialVerification.sol:CredentialVerification",
						"label": "permissions",
						"offset": 0,
						"slot": "2",
						"type": "t_mapping(t_uint256,t_mapping(t_address,t_bool))"
					}
				],
				"types": {
					"t_address": {
						"encoding": "inplace",
						"label": "address",
						"numberOfBytes": "20"
					},
					"t_bool": {
						"encoding": "inplace",
						"label": "bool",
						"numberOfBytes": "1"
					},
					"t_bytes32": {
						"encoding": "inplace",
						"label": "bytes32",
						"numberOfBytes": "32"
					},
					"t_mapping(t_address,t_bool)": {
						"encoding": "mapping",
						"key": "t_address",
						"label": "mapping(address => bool)",
						"numberOfBytes": "32",
						"value": "t_bool"
					},
					"t_mapping(t_uint256,t_mapping(t_address,t_bool))": {
						"encoding": "mapping",
						"key": "t_uint256",
						"label": "mapping(uint256 => mapping(address => bool))",
						"numberOfBytes": "32",
						"value": "t_mapping(t_address,t_bool)"
					},
					"t_mapping(t_uint256,t_struct(Credential)16_storage)": {
						"encoding": "mapping",
						"key": "t_uint256",
						"label": "mapping(uint256 => struct CredentialVerification.Credential)",
						"numberOfBytes": "32",
						"value": "t_struct(Credential)16_storage"
					},
					"t_string_storage": {
						"encoding": "bytes",
						"label": "string",
						"numberOfBytes": "32"
					},
					"t_struct(Credential)16_storage": {
						"encoding": "inplace",
						"label": "struct CredentialVerification.Credential",
						"members": [
							{
								"astId": 3,
								"contract": "contracts/CredentialVerification.sol:CredentialVerification",
								"label": "studentId",
								"offset": 0,
								"slot": "0",
								"type": "t_uint256"
							},
							{
								"astId": 5,
								"contract": "contracts/CredentialVerification.sol:CredentialVerification",
								"label": "studentName",
								"offset": 0,
								"slot": "1",
								"type": "t_string_storage"
							},
							{
								"astId": 7,
								"contract": "contracts/CredentialVerification.sol:CredentialVerification",
								"label": "institution",
								"offset": 0,
								"slot": "2",
								"type": "t_string_storage"
							},
							{
								"astId": 9,
								"contract": "contracts/CredentialVerification.sol:CredentialVerification",
								"label": "qualification",
								"offset": 0,
								"slot": "3",
								"type": "t_string_storage"
							},
							{
								"astId": 11,
								"contract": "contracts/CredentialVerification.sol:CredentialVerification",
								"label": "dateIssued",
								"offset": 0,
								"slot": "4",
								"type": "t_string_storage"
							},
							{
								"astId": 13,
								"contract": "contracts/CredentialVerification.sol:CredentialVerification",
								"label": "additionalData",
								"offset": 0,
								"slot": "5",
								"type": "t_string_storage"
							},
							{
								"astId": 15,
								"contract": "contracts/CredentialVerification.sol:CredentialVerification",
								"label": "signature",
								"offset": 0,
								"slot": "6",
								"type": "t_bytes32"
							}
						],
						"numberOfBytes": "224"
					},
					"t_uint256": {
						"encoding": "inplace",
						"label": "uint256",
						"numberOfBytes": "32"
					}
				}
			},
			"userdoc": {
				"kind": "user",
				"methods": {},
				"version": 1
			}
		}
	}
}