{
	"data": {
		"bytecode": {
			"linkReferences": {},
			"object": "608060405234801561000f575f80fd5b506113358061001d5f395ff3fe608060405234801561000f575f80fd5b5060043610610060575f3560e01c80632cdb559b146100645780633ff36d6514610080578063417d6c991461009c57806344b89e3b146100cc57806368b54919146100e857806392522e9d14610104575b5f80fd5b61007e600480360381019061007991906108f5565b610120565b005b61009a60048036038101906100959190610933565b6101c1565b005b6100b660048036038101906100b1919061095e565b610286565b6040516100c391906109a3565b60405180910390f35b6100e660048036038101906100e19190610b2b565b6102a3565b005b61010260048036038101906100fd919061095e565b610362565b005b61011e60048036038101906101199190610933565b6103b9565b005b600160025f8481526020019081526020015f205f8373ffffffffffffffffffffffffffffffffffffffff1673ffffffffffffffffffffffffffffffffffffffff1681526020019081526020015f205f6101000a81548160ff0219169083151502179055507f6e0403ef2b13328247bf9260ad8dd9c18fb5a18b95ea25de817ca991da05929b82826040516101b5929190610c72565b60405180910390a15050565b60015f3373ffffffffffffffffffffffffffffffffffffffff1673ffffffffffffffffffffffffffffffffffffffff1681526020019081526020015f205f9054906101000a900460ff1661024a576040517f08c379a000000000000000000000000000000000000000000000000000000000815260040161024190610d19565b60405180910390fd5b7f539186f88413c222585ff95ba62e32a55eb0153d0265293bfe5b2c324935a0a4813360405161027b929190610c72565b60405180910390a150565b6001602052805f5260405f205f915054906101000a900460ff1681565b6040518060c00160405280878152602001868152602001858152602001848152602001838152602001828152505f808981526020019081526020015f205f820151815f0190816102f39190610f3b565b5060208201518160010190816103099190610f3b565b50604082015181600201908161031f9190610f3b565b5060608201518160030190816103359190610f3b565b50608082015181600401908161034b9190610f3b565b5060a0820151816005015590505050505050505050565b6001805f8373ffffffffffffffffffffffffffffffffffffffff1673ffffffffffffffffffffffffffffffffffffffff1681526020019081526020015f205f6101000a81548160ff02191690831515021790555050565b60015f3373ffffffffffffffffffffffffffffffffffffffff1673ffffffffffffffffffffffffffffffffffffffff1681526020019081526020015f205f9054906101000a900460ff16610442576040517f08c379a000000000000000000000000000000000000000000000000000000000815260040161043990610d19565b60405180910390fd5b60025f8281526020019081526020015f205f3373ffffffffffffffffffffffffffffffffffffffff1673ffffffffffffffffffffffffffffffffffffffff1681526020019081526020015f205f9054906101000a900460ff166104da576040517f08c379a00000000000000000000000000000000000000000000000000000000081526004016104d19061107a565b60405180910390fd5b5f805f8381526020019081526020015f206040518060c00160405290815f8201805461050590610d6e565b80601f016020809104026020016040519081016040528092919081815260200182805461053190610d6e565b801561057c5780601f106105535761010080835404028352916020019161057c565b820191905f5260205f20905b81548152906001019060200180831161055f57829003601f168201915b5050505050815260200160018201805461059590610d6e565b80601f01602080910402602001604051908101604052809291908181526020018280546105c190610d6e565b801561060c5780601f106105e35761010080835404028352916020019161060c565b820191905f5260205f20905b8154815290600101906020018083116105ef57829003601f168201915b5050505050815260200160028201805461062590610d6e565b80601f016020809104026020016040519081016040528092919081815260200182805461065190610d6e565b801561069c5780601f106106735761010080835404028352916020019161069c565b820191905f5260205f20905b81548152906001019060200180831161067f57829003601f168201915b505050505081526020016003820180546106b590610d6e565b80601f01602080910402602001604051908101604052809291908181526020018280546106e190610d6e565b801561072c5780601f106107035761010080835404028352916020019161072c565b820191905f5260205f20905b81548152906001019060200180831161070f57829003601f168201915b5050505050815260200160048201805461074590610d6e565b80601f016020809104026020016040519081016040528092919081815260200182805461077190610d6e565b80156107bc5780601f10610793576101008083540402835291602001916107bc565b820191905f5260205f20905b81548152906001019060200180831161079f57829003601f168201915b5050505050815260200160058201548152505090507f6aa58652e4ead3656e06b44f6e5e760a9957c51fdd040d4be3da533228a8574f3360016107fe84610819565b60405161080d939291906110f8565b60405180910390a15050565b6060815f01518260200151836040015184606001516040516020016108419493929190611296565b6040516020818303038152906040529050919050565b5f604051905090565b5f80fd5b5f80fd5b5f819050919050565b61087a81610868565b8114610884575f80fd5b50565b5f8135905061089581610871565b92915050565b5f73ffffffffffffffffffffffffffffffffffffffff82169050919050565b5f6108c48261089b565b9050919050565b6108d4816108ba565b81146108de575f80fd5b50565b5f813590506108ef816108cb565b92915050565b5f806040838503121561090b5761090a610860565b5b5f61091885828601610887565b9250506020610929858286016108e1565b9150509250929050565b5f6020828403121561094857610947610860565b5b5f61095584828501610887565b91505092915050565b5f6020828403121561097357610972610860565b5b5f610980848285016108e1565b91505092915050565b5f8115159050919050565b61099d81610989565b82525050565b5f6020820190506109b65f830184610994565b92915050565b5f80fd5b5f80fd5b5f601f19601f8301169050919050565b7f4e487b71000000000000000000000000000000000000000000000000000000005f52604160045260245ffd5b610a0a826109c4565b810181811067ffffffffffffffff82111715610a2957610a286109d4565b5b80604052505050565b5f610a3b610857565b9050610a478282610a01565b919050565b5f67ffffffffffffffff821115610a6657610a656109d4565b5b610a6f826109c4565b9050602081019050919050565b828183375f83830152505050565b5f610a9c610a9784610a4c565b610a32565b905082815260208101848484011115610ab857610ab76109c0565b5b610ac3848285610a7c565b509392505050565b5f82601f830112610adf57610ade6109bc565b5b8135610aef848260208601610a8a565b91505092915050565b5f819050919050565b610b0a81610af8565b8114610b14575f80fd5b50565b5f81359050610b2581610b01565b92915050565b5f805f805f805f60e0888a031215610b4657610b45610860565b5b5f610b538a828b01610887565b975050602088013567ffffffffffffffff811115610b7457610b73610864565b5b610b808a828b01610acb565b965050604088013567ffffffffffffffff811115610ba157610ba0610864565b5b610bad8a828b01610acb565b955050606088013567ffffffffffffffff811115610bce57610bcd610864565b5b610bda8a828b01610acb565b945050608088013567ffffffffffffffff811115610bfb57610bfa610864565b5b610c078a828b01610acb565b93505060a088013567ffffffffffffffff811115610c2857610c27610864565b5b610c348a828b01610acb565b92505060c0610c458a828b01610b17565b91505092959891949750929550565b610c5d81610868565b82525050565b610c6c816108ba565b82525050565b5f604082019050610c855f830185610c54565b610c926020830184610c63565b9392505050565b5f82825260208201905092915050565b7f43616c6c6572206973206e6f7420616e20617574686f72697a656420656d706c5f8201527f6f79657200000000000000000000000000000000000000000000000000000000602082015250565b5f610d03602483610c99565b9150610d0e82610ca9565b604082019050919050565b5f6020820190508181035f830152610d3081610cf7565b9050919050565b5f81519050919050565b7f4e487b71000000000000000000000000000000000000000000000000000000005f52602260045260245ffd5b5f6002820490506001821680610d8557607f821691505b602082108103610d9857610d97610d41565b5b50919050565b5f819050815f5260205f209050919050565b5f6020601f8301049050919050565b5f82821b905092915050565b5f60088302610dfa7fffffffffffffffffffffffffffffffffffffffffffffffffffffffffffffffff82610dbf565b610e048683610dbf565b95508019841693508086168417925050509392505050565b5f819050919050565b5f610e3f610e3a610e3584610868565b610e1c565b610868565b9050919050565b5f819050919050565b610e5883610e25565b610e6c610e6482610e46565b848454610dcb565b825550505050565b5f90565b610e80610e74565b610e8b818484610e4f565b505050565b5b81811015610eae57610ea35f82610e78565b600181019050610e91565b5050565b601f821115610ef357610ec481610d9e565b610ecd84610db0565b81016020851015610edc578190505b610ef0610ee885610db0565b830182610e90565b50505b505050565b5f82821c905092915050565b5f610f135f1984600802610ef8565b1980831691505092915050565b5f610f2b8383610f04565b9150826002028217905092915050565b610f4482610d37565b67ffffffffffffffff811115610f5d57610f5c6109d4565b5b610f678254610d6e565b610f72828285610eb2565b5f60209050601f831160018114610fa3575f8415610f91578287015190505b610f9b8582610f20565b865550611002565b601f198416610fb186610d9e565b5f5b82811015610fd857848901518255600182019150602085019450602081019050610fb3565b86831015610ff55784890151610ff1601f891682610f04565b8355505b6001600288020188555050505b505050505050565b7f5065726d697373696f6e206e6f74206772616e746564206279207468652073745f8201527f7564656e74000000000000000000000000000000000000000000000000000000602082015250565b5f611064602583610c99565b915061106f8261100a565b604082019050919050565b5f6020820190508181035f83015261109181611058565b9050919050565b5f5b838110156110b557808201518184015260208101905061109a565b5f8484015250505050565b5f6110ca82610d37565b6110d48185610c99565b93506110e4818560208601611098565b6110ed816109c4565b840191505092915050565b5f60608201905061110b5f830186610c63565b6111186020830185610994565b818103604083015261112a81846110c0565b9050949350505050565b5f81905092915050565b7f4e616d653a2000000000000000000000000000000000000000000000000000005f82015250565b5f611172600683611134565b915061117d8261113e565b600682019050919050565b5f61119282610d37565b61119c8185611134565b93506111ac818560208601611098565b80840191505092915050565b7f2c20496e737469747574696f6e3a2000000000000000000000000000000000005f82015250565b5f6111ec600f83611134565b91506111f7826111b8565b600f82019050919050565b7f2c205175616c696669636174696f6e3a200000000000000000000000000000005f82015250565b5f611236601183611134565b915061124182611202565b601182019050919050565b7f2c2044617465206f662049737375616e63653a200000000000000000000000005f82015250565b5f611280601483611134565b915061128b8261124c565b601482019050919050565b5f6112a082611166565b91506112ac8287611188565b91506112b7826111e0565b91506112c38286611188565b91506112ce8261122a565b91506112da8285611188565b91506112e582611274565b91506112f18284611188565b91508190509594505050505056fea2646970667358221220caa9df0528a687be15a690ef8f713743492a2d06052f881584cc6b28fa09b44064736f6c63430008160033",
			"opcodes": "PUSH1 0x80 PUSH1 0x40 MSTORE CALLVALUE DUP1 ISZERO PUSH2 0xF JUMPI PUSH0 DUP1 REVERT JUMPDEST POP PUSH2 0x1335 DUP1 PUSH2 0x1D PUSH0 CODECOPY PUSH0 RETURN INVALID PUSH1 0x80 PUSH1 0x40 MSTORE CALLVALUE DUP1 ISZERO PUSH2 0xF JUMPI PUSH0 DUP1 REVERT JUMPDEST POP PUSH1 0x4 CALLDATASIZE LT PUSH2 0x60 JUMPI PUSH0 CALLDATALOAD PUSH1 0xE0 SHR DUP1 PUSH4 0x2CDB559B EQ PUSH2 0x64 JUMPI DUP1 PUSH4 0x3FF36D65 EQ PUSH2 0x80 JUMPI DUP1 PUSH4 0x417D6C99 EQ PUSH2 0x9C JUMPI DUP1 PUSH4 0x44B89E3B EQ PUSH2 0xCC JUMPI DUP1 PUSH4 0x68B54919 EQ PUSH2 0xE8 JUMPI DUP1 PUSH4 0x92522E9D EQ PUSH2 0x104 JUMPI JUMPDEST PUSH0 DUP1 REVERT JUMPDEST PUSH2 0x7E PUSH1 0x4 DUP1 CALLDATASIZE SUB DUP2 ADD SWAP1 PUSH2 0x79 SWAP2 SWAP1 PUSH2 0x8F5 JUMP JUMPDEST PUSH2 0x120 JUMP JUMPDEST STOP JUMPDEST PUSH2 0x9A PUSH1 0x4 DUP1 CALLDATASIZE SUB DUP2 ADD SWAP1 PUSH2 0x95 SWAP2 SWAP1 PUSH2 0x933 JUMP JUMPDEST PUSH2 0x1C1 JUMP JUMPDEST STOP JUMPDEST PUSH2 0xB6 PUSH1 0x4 DUP1 CALLDATASIZE SUB DUP2 ADD SWAP1 PUSH2 0xB1 SWAP2 SWAP1 PUSH2 0x95E JUMP JUMPDEST PUSH2 0x286 JUMP JUMPDEST PUSH1 0x40 MLOAD PUSH2 0xC3 SWAP2 SWAP1 PUSH2 0x9A3 JUMP JUMPDEST PUSH1 0x40 MLOAD DUP1 SWAP2 SUB SWAP1 RETURN JUMPDEST PUSH2 0xE6 PUSH1 0x4 DUP1 CALLDATASIZE SUB DUP2 ADD SWAP1 PUSH2 0xE1 SWAP2 SWAP1 PUSH2 0xB2B JUMP JUMPDEST PUSH2 0x2A3 JUMP JUMPDEST STOP JUMPDEST PUSH2 0x102 PUSH1 0x4 DUP1 CALLDATASIZE SUB DUP2 ADD SWAP1 PUSH2 0xFD SWAP2 SWAP1 PUSH2 0x95E JUMP JUMPDEST PUSH2 0x362 JUMP JUMPDEST STOP JUMPDEST PUSH2 0x11E PUSH1 0x4 DUP1 CALLDATASIZE SUB DUP2 ADD SWAP1 PUSH2 0x119 SWAP2 SWAP1 PUSH2 0x933 JUMP JUMPDEST PUSH2 0x3B9 JUMP JUMPDEST STOP JUMPDEST PUSH1 0x1 PUSH1 0x2 PUSH0 DUP5 DUP2 MSTORE PUSH1 0x20 ADD SWAP1 DUP2 MSTORE PUSH1 0x20 ADD PUSH0 KECCAK256 PUSH0 DUP4 PUSH20 0xFFFFFFFFFFFFFFFFFFFFFFFFFFFFFFFFFFFFFFFF AND PUSH20 0xFFFFFFFFFFFFFFFFFFFFFFFFFFFFFFFFFFFFFFFF AND DUP2 MSTORE PUSH1 0x20 ADD SWAP1 DUP2 MSTORE PUSH1 0x20 ADD PUSH0 KECCAK256 PUSH0 PUSH2 0x100 EXP DUP2 SLOAD DUP2 PUSH1 0xFF MUL NOT AND SWAP1 DUP4 ISZERO ISZERO MUL OR SWAP1 SSTORE POP PUSH32 0x6E0403EF2B13328247BF9260AD8DD9C18FB5A18B95EA25DE817CA991DA05929B DUP3 DUP3 PUSH1 0x40 MLOAD PUSH2 0x1B5 SWAP3 SWAP2 SWAP1 PUSH2 0xC72 JUMP JUMPDEST PUSH1 0x40 MLOAD DUP1 SWAP2 SUB SWAP1 LOG1 POP POP JUMP JUMPDEST PUSH1 0x1 PUSH0 CALLER PUSH20 0xFFFFFFFFFFFFFFFFFFFFFFFFFFFFFFFFFFFFFFFF AND PUSH20 0xFFFFFFFFFFFFFFFFFFFFFFFFFFFFFFFFFFFFFFFF AND DUP2 MSTORE PUSH1 0x20 ADD SWAP1 DUP2 MSTORE PUSH1 0x20 ADD PUSH0 KECCAK256 PUSH0 SWAP1 SLOAD SWAP1 PUSH2 0x100 EXP SWAP1 DIV PUSH1 0xFF AND PUSH2 0x24A JUMPI PUSH1 0x40 MLOAD PUSH32 0x8C379A000000000000000000000000000000000000000000000000000000000 DUP2 MSTORE PUSH1 0x4 ADD PUSH2 0x241 SWAP1 PUSH2 0xD19 JUMP JUMPDEST PUSH1 0x40 MLOAD DUP1 SWAP2 SUB SWAP1 REVERT JUMPDEST PUSH32 0x539186F88413C222585FF95BA62E32A55EB0153D0265293BFE5B2C324935A0A4 DUP2 CALLER PUSH1 0x40 MLOAD PUSH2 0x27B SWAP3 SWAP2 SWAP1 PUSH2 0xC72 JUMP JUMPDEST PUSH1 0x40 MLOAD DUP1 SWAP2 SUB SWAP1 LOG1 POP JUMP JUMPDEST PUSH1 0x1 PUSH1 0x20 MSTORE DUP1 PUSH0 MSTORE PUSH1 0x40 PUSH0 KECCAK256 PUSH0 SWAP2 POP SLOAD SWAP1 PUSH2 0x100 EXP SWAP1 DIV PUSH1 0xFF AND DUP2 JUMP JUMPDEST PUSH1 0x40 MLOAD DUP1 PUSH1 0xC0 ADD PUSH1 0x40 MSTORE DUP1 DUP8 DUP2 MSTORE PUSH1 0x20 ADD DUP7 DUP2 MSTORE PUSH1 0x20 ADD DUP6 DUP2 MSTORE PUSH1 0x20 ADD DUP5 DUP2 MSTORE PUSH1 0x20 ADD DUP4 DUP2 MSTORE PUSH1 0x20 ADD DUP3 DUP2 MSTORE POP PUSH0 DUP1 DUP10 DUP2 MSTORE PUSH1 0x20 ADD SWAP1 DUP2 MSTORE PUSH1 0x20 ADD PUSH0 KECCAK256 PUSH0 DUP3 ADD MLOAD DUP2 PUSH0 ADD SWAP1 DUP2 PUSH2 0x2F3 SWAP2 SWAP1 PUSH2 0xF3B JUMP JUMPDEST POP PUSH1 0x20 DUP3 ADD MLOAD DUP2 PUSH1 0x1 ADD SWAP1 DUP2 PUSH2 0x309 SWAP2 SWAP1 PUSH2 0xF3B JUMP JUMPDEST POP PUSH1 0x40 DUP3 ADD MLOAD DUP2 PUSH1 0x2 ADD SWAP1 DUP2 PUSH2 0x31F SWAP2 SWAP1 PUSH2 0xF3B JUMP JUMPDEST POP PUSH1 0x60 DUP3 ADD MLOAD DUP2 PUSH1 0x3 ADD SWAP1 DUP2 PUSH2 0x335 SWAP2 SWAP1 PUSH2 0xF3B JUMP JUMPDEST POP PUSH1 0x80 DUP3 ADD MLOAD DUP2 PUSH1 0x4 ADD SWAP1 DUP2 PUSH2 0x34B SWAP2 SWAP1 PUSH2 0xF3B JUMP JUMPDEST POP PUSH1 0xA0 DUP3 ADD MLOAD DUP2 PUSH1 0x5 ADD SSTORE SWAP1 POP POP POP POP POP POP POP POP POP JUMP JUMPDEST PUSH1 0x1 DUP1 PUSH0 DUP4 PUSH20 0xFFFFFFFFFFFFFFFFFFFFFFFFFFFFFFFFFFFFFFFF AND PUSH20 0xFFFFFFFFFFFFFFFFFFFFFFFFFFFFFFFFFFFFFFFF AND DUP2 MSTORE PUSH1 0x20 ADD SWAP1 DUP2 MSTORE PUSH1 0x20 ADD PUSH0 KECCAK256 PUSH0 PUSH2 0x100 EXP DUP2 SLOAD DUP2 PUSH1 0xFF MUL NOT AND SWAP1 DUP4 ISZERO ISZERO MUL OR SWAP1 SSTORE POP POP JUMP JUMPDEST PUSH1 0x1 PUSH0 CALLER PUSH20 0xFFFFFFFFFFFFFFFFFFFFFFFFFFFFFFFFFFFFFFFF AND PUSH20 0xFFFFFFFFFFFFFFFFFFFFFFFFFFFFFFFFFFFFFFFF AND DUP2 MSTORE PUSH1 0x20 ADD SWAP1 DUP2 MSTORE PUSH1 0x20 ADD PUSH0 KECCAK256 PUSH0 SWAP1 SLOAD SWAP1 PUSH2 0x100 EXP SWAP1 DIV PUSH1 0xFF AND PUSH2 0x442 JUMPI PUSH1 0x40 MLOAD PUSH32 0x8C379A000000000000000000000000000000000000000000000000000000000 DUP2 MSTORE PUSH1 0x4 ADD PUSH2 0x439 SWAP1 PUSH2 0xD19 JUMP JUMPDEST PUSH1 0x40 MLOAD DUP1 SWAP2 SUB SWAP1 REVERT JUMPDEST PUSH1 0x2 PUSH0 DUP3 DUP2 MSTORE PUSH1 0x20 ADD SWAP1 DUP2 MSTORE PUSH1 0x20 ADD PUSH0 KECCAK256 PUSH0 CALLER PUSH20 0xFFFFFFFFFFFFFFFFFFFFFFFFFFFFFFFFFFFFFFFF AND PUSH20 0xFFFFFFFFFFFFFFFFFFFFFFFFFFFFFFFFFFFFFFFF AND DUP2 MSTORE PUSH1 0x20 ADD SWAP1 DUP2 MSTORE PUSH1 0x20 ADD PUSH0 KECCAK256 PUSH0 SWAP1 SLOAD SWAP1 PUSH2 0x100 EXP SWAP1 DIV PUSH1 0xFF AND PUSH2 0x4DA JUMPI PUSH1 0x40 MLOAD PUSH32 0x8C379A000000000000000000000000000000000000000000000000000000000 DUP2 MSTORE PUSH1 0x4 ADD PUSH2 0x4D1 SWAP1 PUSH2 0x107A JUMP JUMPDEST PUSH1 0x40 MLOAD DUP1 SWAP2 SUB SWAP1 REVERT JUMPDEST PUSH0 DUP1 PUSH0 DUP4 DUP2 MSTORE PUSH1 0x20 ADD SWAP1 DUP2 MSTORE PUSH1 0x20 ADD PUSH0 KECCAK256 PUSH1 0x40 MLOAD DUP1 PUSH1 0xC0 ADD PUSH1 0x40 MSTORE SWAP1 DUP2 PUSH0 DUP3 ADD DUP1 SLOAD PUSH2 0x505 SWAP1 PUSH2 0xD6E JUMP JUMPDEST DUP1 PUSH1 0x1F ADD PUSH1 0x20 DUP1 SWAP2 DIV MUL PUSH1 0x20 ADD PUSH1 0x40 MLOAD SWAP1 DUP2 ADD PUSH1 0x40 MSTORE DUP1 SWAP3 SWAP2 SWAP1 DUP2 DUP2 MSTORE PUSH1 0x20 ADD DUP3 DUP1 SLOAD PUSH2 0x531 SWAP1 PUSH2 0xD6E JUMP JUMPDEST DUP1 ISZERO PUSH2 0x57C JUMPI DUP1 PUSH1 0x1F LT PUSH2 0x553 JUMPI PUSH2 0x100 DUP1 DUP4 SLOAD DIV MUL DUP4 MSTORE SWAP2 PUSH1 0x20 ADD SWAP2 PUSH2 0x57C JUMP JUMPDEST DUP3 ADD SWAP2 SWAP1 PUSH0 MSTORE PUSH1 0x20 PUSH0 KECCAK256 SWAP1 JUMPDEST DUP2 SLOAD DUP2 MSTORE SWAP1 PUSH1 0x1 ADD SWAP1 PUSH1 0x20 ADD DUP1 DUP4 GT PUSH2 0x55F JUMPI DUP3 SWAP1 SUB PUSH1 0x1F AND DUP3 ADD SWAP2 JUMPDEST POP POP POP POP POP DUP2 MSTORE PUSH1 0x20 ADD PUSH1 0x1 DUP3 ADD DUP1 SLOAD PUSH2 0x595 SWAP1 PUSH2 0xD6E JUMP JUMPDEST DUP1 PUSH1 0x1F ADD PUSH1 0x20 DUP1 SWAP2 DIV MUL PUSH1 0x20 ADD PUSH1 0x40 MLOAD SWAP1 DUP2 ADD PUSH1 0x40 MSTORE DUP1 SWAP3 SWAP2 SWAP1 DUP2 DUP2 MSTORE PUSH1 0x20 ADD DUP3 DUP1 SLOAD PUSH2 0x5C1 SWAP1 PUSH2 0xD6E JUMP JUMPDEST DUP1 ISZERO PUSH2 0x60C JUMPI DUP1 PUSH1 0x1F LT PUSH2 0x5E3 JUMPI PUSH2 0x100 DUP1 DUP4 SLOAD DIV MUL DUP4 MSTORE SWAP2 PUSH1 0x20 ADD SWAP2 PUSH2 0x60C JUMP JUMPDEST DUP3 ADD SWAP2 SWAP1 PUSH0 MSTORE PUSH1 0x20 PUSH0 KECCAK256 SWAP1 JUMPDEST DUP2 SLOAD DUP2 MSTORE SWAP1 PUSH1 0x1 ADD SWAP1 PUSH1 0x20 ADD DUP1 DUP4 GT PUSH2 0x5EF JUMPI DUP3 SWAP1 SUB PUSH1 0x1F AND DUP3 ADD SWAP2 JUMPDEST POP POP POP POP POP DUP2 MSTORE PUSH1 0x20 ADD PUSH1 0x2 DUP3 ADD DUP1 SLOAD PUSH2 0x625 SWAP1 PUSH2 0xD6E JUMP JUMPDEST DUP1 PUSH1 0x1F ADD PUSH1 0x20 DUP1 SWAP2 DIV MUL PUSH1 0x20 ADD PUSH1 0x40 MLOAD SWAP1 DUP2 ADD PUSH1 0x40 MSTORE DUP1 SWAP3 SWAP2 SWAP1 DUP2 DUP2 MSTORE PUSH1 0x20 ADD DUP3 DUP1 SLOAD PUSH2 0x651 SWAP1 PUSH2 0xD6E JUMP JUMPDEST DUP1 ISZERO PUSH2 0x69C JUMPI DUP1 PUSH1 0x1F LT PUSH2 0x673 JUMPI PUSH2 0x100 DUP1 DUP4 SLOAD DIV MUL DUP4 MSTORE SWAP2 PUSH1 0x20 ADD SWAP2 PUSH2 0x69C JUMP JUMPDEST DUP3 ADD SWAP2 SWAP1 PUSH0 MSTORE PUSH1 0x20 PUSH0 KECCAK256 SWAP1 JUMPDEST DUP2 SLOAD DUP2 MSTORE SWAP1 PUSH1 0x1 ADD SWAP1 PUSH1 0x20 ADD DUP1 DUP4 GT PUSH2 0x67F JUMPI DUP3 SWAP1 SUB PUSH1 0x1F AND DUP3 ADD SWAP2 JUMPDEST POP POP POP POP POP DUP2 MSTORE PUSH1 0x20 ADD PUSH1 0x3 DUP3 ADD DUP1 SLOAD PUSH2 0x6B5 SWAP1 PUSH2 0xD6E JUMP JUMPDEST DUP1 PUSH1 0x1F ADD PUSH1 0x20 DUP1 SWAP2 DIV MUL PUSH1 0x20 ADD PUSH1 0x40 MLOAD SWAP1 DUP2 ADD PUSH1 0x40 MSTORE DUP1 SWAP3 SWAP2 SWAP1 DUP2 DUP2 MSTORE PUSH1 0x20 ADD DUP3 DUP1 SLOAD PUSH2 0x6E1 SWAP1 PUSH2 0xD6E JUMP JUMPDEST DUP1 ISZERO PUSH2 0x72C JUMPI DUP1 PUSH1 0x1F LT PUSH2 0x703 JUMPI PUSH2 0x100 DUP1 DUP4 SLOAD DIV MUL DUP4 MSTORE SWAP2 PUSH1 0x20 ADD SWAP2 PUSH2 0x72C JUMP JUMPDEST DUP3 ADD SWAP2 SWAP1 PUSH0 MSTORE PUSH1 0x20 PUSH0 KECCAK256 SWAP1 JUMPDEST DUP2 SLOAD DUP2 MSTORE SWAP1 PUSH1 0x1 ADD SWAP1 PUSH1 0x20 ADD DUP1 DUP4 GT PUSH2 0x70F JUMPI DUP3 SWAP1 SUB PUSH1 0x1F AND DUP3 ADD SWAP2 JUMPDEST POP POP POP POP POP DUP2 MSTORE PUSH1 0x20 ADD PUSH1 0x4 DUP3 ADD DUP1 SLOAD PUSH2 0x745 SWAP1 PUSH2 0xD6E JUMP JUMPDEST DUP1 PUSH1 0x1F ADD PUSH1 0x20 DUP1 SWAP2 DIV MUL PUSH1 0x20 ADD PUSH1 0x40 MLOAD SWAP1 DUP2 ADD PUSH1 0x40 MSTORE DUP1 SWAP3 SWAP2 SWAP1 DUP2 DUP2 MSTORE PUSH1 0x20 ADD DUP3 DUP1 SLOAD PUSH2 0x771 SWAP1 PUSH2 0xD6E JUMP JUMPDEST DUP1 ISZERO PUSH2 0x7BC JUMPI DUP1 PUSH1 0x1F LT PUSH2 0x793 JUMPI PUSH2 0x100 DUP1 DUP4 SLOAD DIV MUL DUP4 MSTORE SWAP2 PUSH1 0x20 ADD SWAP2 PUSH2 0x7BC JUMP JUMPDEST DUP3 ADD SWAP2 SWAP1 PUSH0 MSTORE PUSH1 0x20 PUSH0 KECCAK256 SWAP1 JUMPDEST DUP2 SLOAD DUP2 MSTORE SWAP1 PUSH1 0x1 ADD SWAP1 PUSH1 0x20 ADD DUP1 DUP4 GT PUSH2 0x79F JUMPI DUP3 SWAP1 SUB PUSH1 0x1F AND DUP3 ADD SWAP2 JUMPDEST POP POP POP POP POP DUP2 MSTORE PUSH1 0x20 ADD PUSH1 0x5 DUP3 ADD SLOAD DUP2 MSTORE POP POP SWAP1 POP PUSH32 0x6AA58652E4EAD3656E06B44F6E5E760A9957C51FDD040D4BE3DA533228A8574F CALLER PUSH1 0x1 PUSH2 0x7FE DUP5 PUSH2 0x819 JUMP JUMPDEST PUSH1 0x40 MLOAD PUSH2 0x80D SWAP4 SWAP3 SWAP2 SWAP1 PUSH2 0x10F8 JUMP JUMPDEST PUSH1 0x40 MLOAD DUP1 SWAP2 SUB SWAP1 LOG1 POP POP JUMP JUMPDEST PUSH1 0x60 DUP2 PUSH0 ADD MLOAD DUP3 PUSH1 0x20 ADD MLOAD DUP4 PUSH1 0x40 ADD MLOAD DUP5 PUSH1 0x60 ADD MLOAD PUSH1 0x40 MLOAD PUSH1 0x20 ADD PUSH2 0x841 SWAP5 SWAP4 SWAP3 SWAP2 SWAP1 PUSH2 0x1296 JUMP JUMPDEST PUSH1 0x40 MLOAD PUSH1 0x20 DUP2 DUP4 SUB SUB DUP2 MSTORE SWAP1 PUSH1 0x40 MSTORE SWAP1 POP SWAP2 SWAP1 POP JUMP JUMPDEST PUSH0 PUSH1 0x40 MLOAD SWAP1 POP SWAP1 JUMP JUMPDEST PUSH0 DUP1 REVERT JUMPDEST PUSH0 DUP1 REVERT JUMPDEST PUSH0 DUP2 SWAP1 POP SWAP2 SWAP1 POP JUMP JUMPDEST PUSH2 0x87A DUP2 PUSH2 0x868 JUMP JUMPDEST DUP2 EQ PUSH2 0x884 JUMPI PUSH0 DUP1 REVERT JUMPDEST POP JUMP JUMPDEST PUSH0 DUP2 CALLDATALOAD SWAP1 POP PUSH2 0x895 DUP2 PUSH2 0x871 JUMP JUMPDEST SWAP3 SWAP2 POP POP JUMP JUMPDEST PUSH0 PUSH20 0xFFFFFFFFFFFFFFFFFFFFFFFFFFFFFFFFFFFFFFFF DUP3 AND SWAP1 POP SWAP2 SWAP1 POP JUMP JUMPDEST PUSH0 PUSH2 0x8C4 DUP3 PUSH2 0x89B JUMP JUMPDEST SWAP1 POP SWAP2 SWAP1 POP JUMP JUMPDEST PUSH2 0x8D4 DUP2 PUSH2 0x8BA JUMP JUMPDEST DUP2 EQ PUSH2 0x8DE JUMPI PUSH0 DUP1 REVERT JUMPDEST POP JUMP JUMPDEST PUSH0 DUP2 CALLDATALOAD SWAP1 POP PUSH2 0x8EF DUP2 PUSH2 0x8CB JUMP JUMPDEST SWAP3 SWAP2 POP POP JUMP JUMPDEST PUSH0 DUP1 PUSH1 0x40 DUP4 DUP6 SUB SLT ISZERO PUSH2 0x90B JUMPI PUSH2 0x90A PUSH2 0x860 JUMP JUMPDEST JUMPDEST PUSH0 PUSH2 0x918 DUP6 DUP3 DUP7 ADD PUSH2 0x887 JUMP JUMPDEST SWAP3 POP POP PUSH1 0x20 PUSH2 0x929 DUP6 DUP3 DUP7 ADD PUSH2 0x8E1 JUMP JUMPDEST SWAP2 POP POP SWAP3 POP SWAP3 SWAP1 POP JUMP JUMPDEST PUSH0 PUSH1 0x20 DUP3 DUP5 SUB SLT ISZERO PUSH2 0x948 JUMPI PUSH2 0x947 PUSH2 0x860 JUMP JUMPDEST JUMPDEST PUSH0 PUSH2 0x955 DUP5 DUP3 DUP6 ADD PUSH2 0x887 JUMP JUMPDEST SWAP2 POP POP SWAP3 SWAP2 POP POP JUMP JUMPDEST PUSH0 PUSH1 0x20 DUP3 DUP5 SUB SLT ISZERO PUSH2 0x973 JUMPI PUSH2 0x972 PUSH2 0x860 JUMP JUMPDEST JUMPDEST PUSH0 PUSH2 0x980 DUP5 DUP3 DUP6 ADD PUSH2 0x8E1 JUMP JUMPDEST SWAP2 POP POP SWAP3 SWAP2 POP POP JUMP JUMPDEST PUSH0 DUP2 ISZERO ISZERO SWAP1 POP SWAP2 SWAP1 POP JUMP JUMPDEST PUSH2 0x99D DUP2 PUSH2 0x989 JUMP JUMPDEST DUP3 MSTORE POP POP JUMP JUMPDEST PUSH0 PUSH1 0x20 DUP3 ADD SWAP1 POP PUSH2 0x9B6 PUSH0 DUP4 ADD DUP5 PUSH2 0x994 JUMP JUMPDEST SWAP3 SWAP2 POP POP JUMP JUMPDEST PUSH0 DUP1 REVERT JUMPDEST PUSH0 DUP1 REVERT JUMPDEST PUSH0 PUSH1 0x1F NOT PUSH1 0x1F DUP4 ADD AND SWAP1 POP SWAP2 SWAP1 POP JUMP JUMPDEST PUSH32 0x4E487B7100000000000000000000000000000000000000000000000000000000 PUSH0 MSTORE PUSH1 0x41 PUSH1 0x4 MSTORE PUSH1 0x24 PUSH0 REVERT JUMPDEST PUSH2 0xA0A DUP3 PUSH2 0x9C4 JUMP JUMPDEST DUP2 ADD DUP2 DUP2 LT PUSH8 0xFFFFFFFFFFFFFFFF DUP3 GT OR ISZERO PUSH2 0xA29 JUMPI PUSH2 0xA28 PUSH2 0x9D4 JUMP JUMPDEST JUMPDEST DUP1 PUSH1 0x40 MSTORE POP POP POP JUMP JUMPDEST PUSH0 PUSH2 0xA3B PUSH2 0x857 JUMP JUMPDEST SWAP1 POP PUSH2 0xA47 DUP3 DUP3 PUSH2 0xA01 JUMP JUMPDEST SWAP2 SWAP1 POP JUMP JUMPDEST PUSH0 PUSH8 0xFFFFFFFFFFFFFFFF DUP3 GT ISZERO PUSH2 0xA66 JUMPI PUSH2 0xA65 PUSH2 0x9D4 JUMP JUMPDEST JUMPDEST PUSH2 0xA6F DUP3 PUSH2 0x9C4 JUMP JUMPDEST SWAP1 POP PUSH1 0x20 DUP2 ADD SWAP1 POP SWAP2 SWAP1 POP JUMP JUMPDEST DUP3 DUP2 DUP4 CALLDATACOPY PUSH0 DUP4 DUP4 ADD MSTORE POP POP POP JUMP JUMPDEST PUSH0 PUSH2 0xA9C PUSH2 0xA97 DUP5 PUSH2 0xA4C JUMP JUMPDEST PUSH2 0xA32 JUMP JUMPDEST SWAP1 POP DUP3 DUP2 MSTORE PUSH1 0x20 DUP2 ADD DUP5 DUP5 DUP5 ADD GT ISZERO PUSH2 0xAB8 JUMPI PUSH2 0xAB7 PUSH2 0x9C0 JUMP JUMPDEST JUMPDEST PUSH2 0xAC3 DUP5 DUP3 DUP6 PUSH2 0xA7C JUMP JUMPDEST POP SWAP4 SWAP3 POP POP POP JUMP JUMPDEST PUSH0 DUP3 PUSH1 0x1F DUP4 ADD SLT PUSH2 0xADF JUMPI PUSH2 0xADE PUSH2 0x9BC JUMP JUMPDEST JUMPDEST DUP2 CALLDATALOAD PUSH2 0xAEF DUP5 DUP3 PUSH1 0x20 DUP7 ADD PUSH2 0xA8A JUMP JUMPDEST SWAP2 POP POP SWAP3 SWAP2 POP POP JUMP JUMPDEST PUSH0 DUP2 SWAP1 POP SWAP2 SWAP1 POP JUMP JUMPDEST PUSH2 0xB0A DUP2 PUSH2 0xAF8 JUMP JUMPDEST DUP2 EQ PUSH2 0xB14 JUMPI PUSH0 DUP1 REVERT JUMPDEST POP JUMP JUMPDEST PUSH0 DUP2 CALLDATALOAD SWAP1 POP PUSH2 0xB25 DUP2 PUSH2 0xB01 JUMP JUMPDEST SWAP3 SWAP2 POP POP JUMP JUMPDEST PUSH0 DUP1 PUSH0 DUP1 PUSH0 DUP1 PUSH0 PUSH1 0xE0 DUP9 DUP11 SUB SLT ISZERO PUSH2 0xB46 JUMPI PUSH2 0xB45 PUSH2 0x860 JUMP JUMPDEST JUMPDEST PUSH0 PUSH2 0xB53 DUP11 DUP3 DUP12 ADD PUSH2 0x887 JUMP JUMPDEST SWAP8 POP POP PUSH1 0x20 DUP9 ADD CALLDATALOAD PUSH8 0xFFFFFFFFFFFFFFFF DUP2 GT ISZERO PUSH2 0xB74 JUMPI PUSH2 0xB73 PUSH2 0x864 JUMP JUMPDEST JUMPDEST PUSH2 0xB80 DUP11 DUP3 DUP12 ADD PUSH2 0xACB JUMP JUMPDEST SWAP7 POP POP PUSH1 0x40 DUP9 ADD CALLDATALOAD PUSH8 0xFFFFFFFFFFFFFFFF DUP2 GT ISZERO PUSH2 0xBA1 JUMPI PUSH2 0xBA0 PUSH2 0x864 JUMP JUMPDEST JUMPDEST PUSH2 0xBAD DUP11 DUP3 DUP12 ADD PUSH2 0xACB JUMP JUMPDEST SWAP6 POP POP PUSH1 0x60 DUP9 ADD CALLDATALOAD PUSH8 0xFFFFFFFFFFFFFFFF DUP2 GT ISZERO PUSH2 0xBCE JUMPI PUSH2 0xBCD PUSH2 0x864 JUMP JUMPDEST JUMPDEST PUSH2 0xBDA DUP11 DUP3 DUP12 ADD PUSH2 0xACB JUMP JUMPDEST SWAP5 POP POP PUSH1 0x80 DUP9 ADD CALLDATALOAD PUSH8 0xFFFFFFFFFFFFFFFF DUP2 GT ISZERO PUSH2 0xBFB JUMPI PUSH2 0xBFA PUSH2 0x864 JUMP JUMPDEST JUMPDEST PUSH2 0xC07 DUP11 DUP3 DUP12 ADD PUSH2 0xACB JUMP JUMPDEST SWAP4 POP POP PUSH1 0xA0 DUP9 ADD CALLDATALOAD PUSH8 0xFFFFFFFFFFFFFFFF DUP2 GT ISZERO PUSH2 0xC28 JUMPI PUSH2 0xC27 PUSH2 0x864 JUMP JUMPDEST JUMPDEST PUSH2 0xC34 DUP11 DUP3 DUP12 ADD PUSH2 0xACB JUMP JUMPDEST SWAP3 POP POP PUSH1 0xC0 PUSH2 0xC45 DUP11 DUP3 DUP12 ADD PUSH2 0xB17 JUMP JUMPDEST SWAP2 POP POP SWAP3 SWAP6 SWAP9 SWAP2 SWAP5 SWAP8 POP SWAP3 SWAP6 POP JUMP JUMPDEST PUSH2 0xC5D DUP2 PUSH2 0x868 JUMP JUMPDEST DUP3 MSTORE POP POP JUMP JUMPDEST PUSH2 0xC6C DUP2 PUSH2 0x8BA JUMP JUMPDEST DUP3 MSTORE POP POP JUMP JUMPDEST PUSH0 PUSH1 0x40 DUP3 ADD SWAP1 POP PUSH2 0xC85 PUSH0 DUP4 ADD DUP6 PUSH2 0xC54 JUMP JUMPDEST PUSH2 0xC92 PUSH1 0x20 DUP4 ADD DUP5 PUSH2 0xC63 JUMP JUMPDEST SWAP4 SWAP3 POP POP POP JUMP JUMPDEST PUSH0 DUP3 DUP3 MSTORE PUSH1 0x20 DUP3 ADD SWAP1 POP SWAP3 SWAP2 POP POP JUMP JUMPDEST PUSH32 0x43616C6C6572206973206E6F7420616E20617574686F72697A656420656D706C PUSH0 DUP3 ADD MSTORE PUSH32 0x6F79657200000000000000000000000000000000000000000000000000000000 PUSH1 0x20 DUP3 ADD MSTORE POP JUMP JUMPDEST PUSH0 PUSH2 0xD03 PUSH1 0x24 DUP4 PUSH2 0xC99 JUMP JUMPDEST SWAP2 POP PUSH2 0xD0E DUP3 PUSH2 0xCA9 JUMP JUMPDEST PUSH1 0x40 DUP3 ADD SWAP1 POP SWAP2 SWAP1 POP JUMP JUMPDEST PUSH0 PUSH1 0x20 DUP3 ADD SWAP1 POP DUP2 DUP2 SUB PUSH0 DUP4 ADD MSTORE PUSH2 0xD30 DUP2 PUSH2 0xCF7 JUMP JUMPDEST SWAP1 POP SWAP2 SWAP1 POP JUMP JUMPDEST PUSH0 DUP2 MLOAD SWAP1 POP SWAP2 SWAP1 POP JUMP JUMPDEST PUSH32 0x4E487B7100000000000000000000000000000000000000000000000000000000 PUSH0 MSTORE PUSH1 0x22 PUSH1 0x4 MSTORE PUSH1 0x24 PUSH0 REVERT JUMPDEST PUSH0 PUSH1 0x2 DUP3 DIV SWAP1 POP PUSH1 0x1 DUP3 AND DUP1 PUSH2 0xD85 JUMPI PUSH1 0x7F DUP3 AND SWAP2 POP JUMPDEST PUSH1 0x20 DUP3 LT DUP2 SUB PUSH2 0xD98 JUMPI PUSH2 0xD97 PUSH2 0xD41 JUMP JUMPDEST JUMPDEST POP SWAP2 SWAP1 POP JUMP JUMPDEST PUSH0 DUP2 SWAP1 POP DUP2 PUSH0 MSTORE PUSH1 0x20 PUSH0 KECCAK256 SWAP1 POP SWAP2 SWAP1 POP JUMP JUMPDEST PUSH0 PUSH1 0x20 PUSH1 0x1F DUP4 ADD DIV SWAP1 POP SWAP2 SWAP1 POP JUMP JUMPDEST PUSH0 DUP3 DUP3 SHL SWAP1 POP SWAP3 SWAP2 POP POP JUMP JUMPDEST PUSH0 PUSH1 0x8 DUP4 MUL PUSH2 0xDFA PUSH32 0xFFFFFFFFFFFFFFFFFFFFFFFFFFFFFFFFFFFFFFFFFFFFFFFFFFFFFFFFFFFFFFFF DUP3 PUSH2 0xDBF JUMP JUMPDEST PUSH2 0xE04 DUP7 DUP4 PUSH2 0xDBF JUMP JUMPDEST SWAP6 POP DUP1 NOT DUP5 AND SWAP4 POP DUP1 DUP7 AND DUP5 OR SWAP3 POP POP POP SWAP4 SWAP3 POP POP POP JUMP JUMPDEST PUSH0 DUP2 SWAP1 POP SWAP2 SWAP1 POP JUMP JUMPDEST PUSH0 PUSH2 0xE3F PUSH2 0xE3A PUSH2 0xE35 DUP5 PUSH2 0x868 JUMP JUMPDEST PUSH2 0xE1C JUMP JUMPDEST PUSH2 0x868 JUMP JUMPDEST SWAP1 POP SWAP2 SWAP1 POP JUMP JUMPDEST PUSH0 DUP2 SWAP1 POP SWAP2 SWAP1 POP JUMP JUMPDEST PUSH2 0xE58 DUP4 PUSH2 0xE25 JUMP JUMPDEST PUSH2 0xE6C PUSH2 0xE64 DUP3 PUSH2 0xE46 JUMP JUMPDEST DUP5 DUP5 SLOAD PUSH2 0xDCB JUMP JUMPDEST DUP3 SSTORE POP POP POP POP JUMP JUMPDEST PUSH0 SWAP1 JUMP JUMPDEST PUSH2 0xE80 PUSH2 0xE74 JUMP JUMPDEST PUSH2 0xE8B DUP2 DUP5 DUP5 PUSH2 0xE4F JUMP JUMPDEST POP POP POP JUMP JUMPDEST JUMPDEST DUP2 DUP2 LT ISZERO PUSH2 0xEAE JUMPI PUSH2 0xEA3 PUSH0 DUP3 PUSH2 0xE78 JUMP JUMPDEST PUSH1 0x1 DUP2 ADD SWAP1 POP PUSH2 0xE91 JUMP JUMPDEST POP POP JUMP JUMPDEST PUSH1 0x1F DUP3 GT ISZERO PUSH2 0xEF3 JUMPI PUSH2 0xEC4 DUP2 PUSH2 0xD9E JUMP JUMPDEST PUSH2 0xECD DUP5 PUSH2 0xDB0 JUMP JUMPDEST DUP2 ADD PUSH1 0x20 DUP6 LT ISZERO PUSH2 0xEDC JUMPI DUP2 SWAP1 POP JUMPDEST PUSH2 0xEF0 PUSH2 0xEE8 DUP6 PUSH2 0xDB0 JUMP JUMPDEST DUP4 ADD DUP3 PUSH2 0xE90 JUMP JUMPDEST POP POP JUMPDEST POP POP POP JUMP JUMPDEST PUSH0 DUP3 DUP3 SHR SWAP1 POP SWAP3 SWAP2 POP POP JUMP JUMPDEST PUSH0 PUSH2 0xF13 PUSH0 NOT DUP5 PUSH1 0x8 MUL PUSH2 0xEF8 JUMP JUMPDEST NOT DUP1 DUP4 AND SWAP2 POP POP SWAP3 SWAP2 POP POP JUMP JUMPDEST PUSH0 PUSH2 0xF2B DUP4 DUP4 PUSH2 0xF04 JUMP JUMPDEST SWAP2 POP DUP3 PUSH1 0x2 MUL DUP3 OR SWAP1 POP SWAP3 SWAP2 POP POP JUMP JUMPDEST PUSH2 0xF44 DUP3 PUSH2 0xD37 JUMP JUMPDEST PUSH8 0xFFFFFFFFFFFFFFFF DUP2 GT ISZERO PUSH2 0xF5D JUMPI PUSH2 0xF5C PUSH2 0x9D4 JUMP JUMPDEST JUMPDEST PUSH2 0xF67 DUP3 SLOAD PUSH2 0xD6E JUMP JUMPDEST PUSH2 0xF72 DUP3 DUP3 DUP6 PUSH2 0xEB2 JUMP JUMPDEST PUSH0 PUSH1 0x20 SWAP1 POP PUSH1 0x1F DUP4 GT PUSH1 0x1 DUP2 EQ PUSH2 0xFA3 JUMPI PUSH0 DUP5 ISZERO PUSH2 0xF91 JUMPI DUP3 DUP8 ADD MLOAD SWAP1 POP JUMPDEST PUSH2 0xF9B DUP6 DUP3 PUSH2 0xF20 JUMP JUMPDEST DUP7 SSTORE POP PUSH2 0x1002 JUMP JUMPDEST PUSH1 0x1F NOT DUP5 AND PUSH2 0xFB1 DUP7 PUSH2 0xD9E JUMP JUMPDEST PUSH0 JUMPDEST DUP3 DUP2 LT ISZERO PUSH2 0xFD8 JUMPI DUP5 DUP10 ADD MLOAD DUP3 SSTORE PUSH1 0x1 DUP3 ADD SWAP2 POP PUSH1 0x20 DUP6 ADD SWAP5 POP PUSH1 0x20 DUP2 ADD SWAP1 POP PUSH2 0xFB3 JUMP JUMPDEST DUP7 DUP4 LT ISZERO PUSH2 0xFF5 JUMPI DUP5 DUP10 ADD MLOAD PUSH2 0xFF1 PUSH1 0x1F DUP10 AND DUP3 PUSH2 0xF04 JUMP JUMPDEST DUP4 SSTORE POP JUMPDEST PUSH1 0x1 PUSH1 0x2 DUP9 MUL ADD DUP9 SSTORE POP POP POP JUMPDEST POP POP POP POP POP POP JUMP JUMPDEST PUSH32 0x5065726D697373696F6E206E6F74206772616E74656420627920746865207374 PUSH0 DUP3 ADD MSTORE PUSH32 0x7564656E74000000000000000000000000000000000000000000000000000000 PUSH1 0x20 DUP3 ADD MSTORE POP JUMP JUMPDEST PUSH0 PUSH2 0x1064 PUSH1 0x25 DUP4 PUSH2 0xC99 JUMP JUMPDEST SWAP2 POP PUSH2 0x106F DUP3 PUSH2 0x100A JUMP JUMPDEST PUSH1 0x40 DUP3 ADD SWAP1 POP SWAP2 SWAP1 POP JUMP JUMPDEST PUSH0 PUSH1 0x20 DUP3 ADD SWAP1 POP DUP2 DUP2 SUB PUSH0 DUP4 ADD MSTORE PUSH2 0x1091 DUP2 PUSH2 0x1058 JUMP JUMPDEST SWAP1 POP SWAP2 SWAP1 POP JUMP JUMPDEST PUSH0 JUMPDEST DUP4 DUP2 LT ISZERO PUSH2 0x10B5 JUMPI DUP1 DUP3 ADD MLOAD DUP2 DUP5 ADD MSTORE PUSH1 0x20 DUP2 ADD SWAP1 POP PUSH2 0x109A JUMP JUMPDEST PUSH0 DUP5 DUP5 ADD MSTORE POP POP POP POP JUMP JUMPDEST PUSH0 PUSH2 0x10CA DUP3 PUSH2 0xD37 JUMP JUMPDEST PUSH2 0x10D4 DUP2 DUP6 PUSH2 0xC99 JUMP JUMPDEST SWAP4 POP PUSH2 0x10E4 DUP2 DUP6 PUSH1 0x20 DUP7 ADD PUSH2 0x1098 JUMP JUMPDEST PUSH2 0x10ED DUP2 PUSH2 0x9C4 JUMP JUMPDEST DUP5 ADD SWAP2 POP POP SWAP3 SWAP2 POP POP JUMP JUMPDEST PUSH0 PUSH1 0x60 DUP3 ADD SWAP1 POP PUSH2 0x110B PUSH0 DUP4 ADD DUP7 PUSH2 0xC63 JUMP JUMPDEST PUSH2 0x1118 PUSH1 0x20 DUP4 ADD DUP6 PUSH2 0x994 JUMP JUMPDEST DUP2 DUP2 SUB PUSH1 0x40 DUP4 ADD MSTORE PUSH2 0x112A DUP2 DUP5 PUSH2 0x10C0 JUMP JUMPDEST SWAP1 POP SWAP5 SWAP4 POP POP POP POP JUMP JUMPDEST PUSH0 DUP2 SWAP1 POP SWAP3 SWAP2 POP POP JUMP JUMPDEST PUSH32 0x4E616D653A200000000000000000000000000000000000000000000000000000 PUSH0 DUP3 ADD MSTORE POP JUMP JUMPDEST PUSH0 PUSH2 0x1172 PUSH1 0x6 DUP4 PUSH2 0x1134 JUMP JUMPDEST SWAP2 POP PUSH2 0x117D DUP3 PUSH2 0x113E JUMP JUMPDEST PUSH1 0x6 DUP3 ADD SWAP1 POP SWAP2 SWAP1 POP JUMP JUMPDEST PUSH0 PUSH2 0x1192 DUP3 PUSH2 0xD37 JUMP JUMPDEST PUSH2 0x119C DUP2 DUP6 PUSH2 0x1134 JUMP JUMPDEST SWAP4 POP PUSH2 0x11AC DUP2 DUP6 PUSH1 0x20 DUP7 ADD PUSH2 0x1098 JUMP JUMPDEST DUP1 DUP5 ADD SWAP2 POP POP SWAP3 SWAP2 POP POP JUMP JUMPDEST PUSH32 0x2C20496E737469747574696F6E3A200000000000000000000000000000000000 PUSH0 DUP3 ADD MSTORE POP JUMP JUMPDEST PUSH0 PUSH2 0x11EC PUSH1 0xF DUP4 PUSH2 0x1134 JUMP JUMPDEST SWAP2 POP PUSH2 0x11F7 DUP3 PUSH2 0x11B8 JUMP JUMPDEST PUSH1 0xF DUP3 ADD SWAP1 POP SWAP2 SWAP1 POP JUMP JUMPDEST PUSH32 0x2C205175616C696669636174696F6E3A20000000000000000000000000000000 PUSH0 DUP3 ADD MSTORE POP JUMP JUMPDEST PUSH0 PUSH2 0x1236 PUSH1 0x11 DUP4 PUSH2 0x1134 JUMP JUMPDEST SWAP2 POP PUSH2 0x1241 DUP3 PUSH2 0x1202 JUMP JUMPDEST PUSH1 0x11 DUP3 ADD SWAP1 POP SWAP2 SWAP1 POP JUMP JUMPDEST PUSH32 0x2C2044617465206F662049737375616E63653A20000000000000000000000000 PUSH0 DUP3 ADD MSTORE POP JUMP JUMPDEST PUSH0 PUSH2 0x1280 PUSH1 0x14 DUP4 PUSH2 0x1134 JUMP JUMPDEST SWAP2 POP PUSH2 0x128B DUP3 PUSH2 0x124C JUMP JUMPDEST PUSH1 0x14 DUP3 ADD SWAP1 POP SWAP2 SWAP1 POP JUMP JUMPDEST PUSH0 PUSH2 0x12A0 DUP3 PUSH2 0x1166 JUMP JUMPDEST SWAP2 POP PUSH2 0x12AC DUP3 DUP8 PUSH2 0x1188 JUMP JUMPDEST SWAP2 POP PUSH2 0x12B7 DUP3 PUSH2 0x11E0 JUMP JUMPDEST SWAP2 POP PUSH2 0x12C3 DUP3 DUP7 PUSH2 0x1188 JUMP JUMPDEST SWAP2 POP PUSH2 0x12CE DUP3 PUSH2 0x122A JUMP JUMPDEST SWAP2 POP PUSH2 0x12DA DUP3 DUP6 PUSH2 0x1188 JUMP JUMPDEST SWAP2 POP PUSH2 0x12E5 DUP3 PUSH2 0x1274 JUMP JUMPDEST SWAP2 POP PUSH2 0x12F1 DUP3 DUP5 PUSH2 0x1188 JUMP JUMPDEST SWAP2 POP DUP2 SWAP1 POP SWAP6 SWAP5 POP POP POP POP POP JUMP INVALID LOG2 PUSH5 0x6970667358 0x22 SLT KECCAK256 0xCA 0xA9 0xDF SDIV 0x28 0xA6 DUP8 0xBE ISZERO 0xA6 SWAP1 0xEF DUP16 PUSH18 0x3743492A2D06052F881584CC6B28FA09B440 PUSH5 0x736F6C6343 STOP ADDMOD AND STOP CALLER "
		},
		"gasEstimates": {
			"creation": {
				"codeDepositCost": "983400",
				"executionCost": "1019",
				"totalCost": "984419"
			},
			"external": {
				"addEmployer(address)": "24869",
				"grantPermission(uint256,address)": "infinite",
				"isEmployer(address)": "2855",
				"readCredential(uint256)": "infinite",
				"registerCredential(uint256,string,string,string,string,string,bytes32)": "infinite",
				"requestPermission(uint256)": "infinite"
			},
			"internal": {
				"generateVerificationMessage(struct AcademicVerification.Credential memory)": "infinite"
			}
		},
		"methodIdentifiers": {
			"addEmployer(address)": "68b54919",
			"grantPermission(uint256,address)": "2cdb559b",
			"isEmployer(address)": "417d6c99",
			"readCredential(uint256)": "92522e9d",
			"registerCredential(uint256,string,string,string,string,string,bytes32)": "44b89e3b",
			"requestPermission(uint256)": "3ff36d65"
		}
	},
	"abi": [
		{
			"anonymous": false,
			"inputs": [
				{
					"indexed": false,
					"internalType": "uint256",
					"name": "studentId",
					"type": "uint256"
				},
				{
					"indexed": false,
					"internalType": "address",
					"name": "employer",
					"type": "address"
				}
			],
			"name": "PermissionGranted",
			"type": "event"
		},
		{
			"anonymous": false,
			"inputs": [
				{
					"indexed": false,
					"internalType": "uint256",
					"name": "studentId",
					"type": "uint256"
				},
				{
					"indexed": false,
					"internalType": "address",
					"name": "employer",
					"type": "address"
				}
			],
			"name": "PermissionRequested",
			"type": "event"
		},
		{
			"anonymous": false,
			"inputs": [
				{
					"indexed": false,
					"internalType": "address",
					"name": "employer",
					"type": "address"
				},
				{
					"indexed": false,
					"internalType": "bool",
					"name": "isVerified",
					"type": "bool"
				},
				{
					"indexed": false,
					"internalType": "string",
					"name": "message",
					"type": "string"
				}
			],
			"name": "VerificationResult",
			"type": "event"
		},
		{
			"inputs": [
				{
					"internalType": "address",
					"name": "employer",
					"type": "address"
				}
			],
			"name": "addEmployer",
			"outputs": [],
			"stateMutability": "nonpayable",
			"type": "function"
		},
		{
			"inputs": [
				{
					"internalType": "uint256",
					"name": "studentId",
					"type": "uint256"
				},
				{
					"internalType": "address",
					"name": "employer",
					"type": "address"
				}
			],
			"name": "grantPermission",
			"outputs": [],
			"stateMutability": "nonpayable",
			"type": "function"
		},
		{
			"inputs": [
				{
					"internalType": "address",
					"name": "",
					"type": "address"
				}
			],
			"name": "isEmployer",
			"outputs": [
				{
					"internalType": "bool",
					"name": "",
					"type": "bool"
				}
			],
			"stateMutability": "view",
			"type": "function"
		},
		{
			"inputs": [
				{
					"internalType": "uint256",
					"name": "studentId",
					"type": "uint256"
				}
			],
			"name": "readCredential",
			"outputs": [],
			"stateMutability": "nonpayable",
			"type": "function"
		},
		{
			"inputs": [
				{
					"internalType": "uint256",
					"name": "studentId",
					"type": "uint256"
				},
				{
					"internalType": "string",
					"name": "studentName",
					"type": "string"
				},
				{
					"internalType": "string",
					"name": "institution",
					"type": "string"
				},
				{
					"internalType": "string",
					"name": "qualification",
					"type": "string"
				},
				{
					"internalType": "string",
					"name": "dateOfIssuance",
					"type": "string"
				},
				{
					"internalType": "string",
					"name": "additionalData",
					"type": "string"
				},
				{
					"internalType": "bytes32",
					"name": "signature",
					"type": "bytes32"
				}
			],
			"name": "registerCredential",
			"outputs": [],
			"stateMutability": "nonpayable",
			"type": "function"
		},
		{
			"inputs": [
				{
					"internalType": "uint256",
					"name": "studentId",
					"type": "uint256"
				}
			],
			"name": "requestPermission",
			"outputs": [],
			"stateMutability": "nonpayable",
			"type": "function"
		}
	]
}